:1000000071C000008FC000008DC000008BC00000D8
:1000100089C0000087C0000085C0000083C00000C8
:1000200081C000007FC000007DC000007BC00000D8
:1000300079C0000077C0000075C0000073C00000E8
:1000400071C000006FC000006DC000006BC00000F8
:1000500069C0000067C0000065C0000063C0000008
:1000600061C000005FC000005DC00000AEC60000BF
:1000700059C0000057C0000055C0000053C0000028
:1000800051C000004FC000004DC000004BC0000038
:1000900049C0000047C0000045C0000043C0000048
:1000A00041C000003FC000003DC000003BC0000058
:1000B00039C0000037C0000035C0000033C0000068
:1000C00031C000002FC000002DC000002BC0000078
:1000D00029C0000027C0000025C0000023C0000088
:1000E00021C0000011241FBECFEFD1E2DEBFCDBF83
:1000F00000E00CBF13E0A0E0B2E0ECE5F3E100E0CB
:100100000BBF02C007900D92AC3CB107D9F726E0B7
:10011000ACECB3E001C01D92A435B207E1F784D383
:100120000C94AC096DCF8FEF82B980930B018FE1F6
:1001300085B90895CF92DF92EF92FF920F931F93AC
:10014000CF93DF93C0910901C095C0931D0580B185
:10015000D0E0DC2FCC278095C82BD093D005C0935E
:10016000CF058091CC039091CD03C817D90709F42E
:100170003DC0D093CD03C093CC030DE514E00F2E0A
:10018000FDE6EF2EF4E0FF2EF02D88E79FEF9C01B7
:10019000255D334069018C2F81708093D2058823BF
:1001A000F1F08091D40381111AC0F801208130E070
:1001B000E057F109408150E0F801608970E080A1CA
:1001C00090E079D69601200F311F42E069E080E08F
:1001D00092E04AD462E070E080E092E02DD4D695BF
:1001E000C7950F5F1F4F0E151F05A9F6DF91CF9121
:1001F0001F910F91FF90EF90DF90CF900895089599
:1002000088E78093020108952091000126FD12C025
:100210002091000125FD05C0FC0120812F5F208376
:1002200004C0FC01208121502083E0E0F1E08081C6
:1002300086FFFDCF08952091000123FD12C020917B
:10024000000124FD05C0FC0120812150208304C051
:10025000FC0120812F5F2083E0E0F1E0808183FFBB
:10026000FDCF089584ED93E0CFDF83ED95E0E3CFFC
:100270000895EDE7F4E080E08F5F81938031E1F74E
:100280000895EAE7F0E0808180648083808186FDC4
:10029000FDCF80917900089588E38DB980E2809345
:1002A0007C0087E880937A0088E080937B008FEF62
:1002B00080937E0080937D00E4CF0895CF93982FA4
:1002C000969596952FE2929F912D112496952CE26A
:1002D000929F80191124982F883218F588E0809316
:1002E0007B00C92FC77096959695969590629093CE
:1002F0007C00C7DFC33059F018F4C13031F00CC0B6
:10030000C43039F0C63039F007C0C4E005C0C6E0DB
:1003100003C0C1E001C0C3E0CC0FCC0FCC0FCEB9FD
:1003200020C0893271F018F4883231F01AC08A3254
:1003300069F08B3281F015C085E280937C00A1DFEB
:1003400010C086E280937C009CDF0BC087E2809324
:100350007C0097DF06C080E280937C0010927B00D7
:1003600090DFCF910895CF93DF93C82FD0E0C15E87
:10037000DA4FDE01AC57BF4FFE01E85AFF4F8081D4
:100380008C938CA5808388818CA77BDF8883DF9109
:10039000CF910895EF92FF920F931F93CF93982FD1
:1003A000969596952FE2929F912D112496952CE289
:1003B000929F80191124982FE82FF0E0E15EFA4F08
:1003C000808164A570E0680F711DDF01A85ABF4FDE
:1003D0008C91680F711DEC57FF4F8081680F711D64
:1003E00075956795759567957093CF036093CE0368
:1003F000983208F006C2C92FC770969596959695C3
:10040000923009F4D4C030F4992359F0913009F4B2
:100410008EC0F7C1933009F448C1943009F464C127
:10042000F0C10C2F10E0072E000C880B990BD2D6D0
:1004300020E030E04CE450E432D620E030E04CE8FC
:1004400052E4C8D594D6862F972F9C01F801EB5221
:10045000FC4F808190E0982F88274085842B82175D
:10046000930709F4CEC1F801EB52FC4F60873323A8
:1004700064F1F801EB52FC4F1082E0E5F2E080E31A
:1004800086872DEC629F812D112486958695869511
:10049000880F982F990F990F890F462F481B842F8B
:1004A000805D808B89E2689F812D112482958F70F9
:1004B00094E6899F60191124629F612D112466952D
:1004C00066956695605D678720C08FEFF801EB52F7
:1004D000FC4F8083E0E5F2E08DE286876095262F71
:1004E00030E02F5F3F4FC90164E670E0FFD60F2E6A
:1004F000FAE0EF2EF12CF02DB701F8D6605D67879A
:10050000C901B701F3D6805D808BCF5CC0935A02DE
:1005100063E070E080E592E08FD2F801EB52FC4F8F
:10052000608170E08085A80190E0EAD46AC10C2F58
:1005300010E0F801EB52FC4F808990E09B012058BD
:100540008217930709F45DC16058F801EB52FC4F24
:10055000608B8091D403811120C0CF5CC09369026D
:10056000662364F48DE280936B026095262F30E061
:1005700043E068E084E692E077D20AC08BE28093A1
:100580006B02262F30E043E068E084E692E06CD214
:1005900063E070E084E692E04FD2F801EB52FC4F4A
:1005A000408950E060E070E0C801F1D42AC10C2F0E
:1005B00010E0072E000C880B990B0CD620E030E0E1
:1005C0004CE450E46CD520E030E04CE852E402D535
:1005D000CED5862F972F9C01A8014B525C4FFA0174
:1005E000E85BFF4F808190E0982F882770964081CC
:1005F000842B8217930709F404C1F801E35DFB4FD4
:100600006083332364F1F801E35EFB4F1082E8E27C
:10061000F2E080E387872DEC629F812D112486957F
:1006200086958695880F982F990F990F890F962F89
:10063000981B892F805D818B89E2689F812D112411
:1006400082958F7044E6849F60191124629F612D0A
:100650001124669566956695605D608B1DC0F801F6
:10066000E35EFB4F8FEF8083E8E2F2E08DE2878765
:100670006095262F30E02F5F3F4FC90164E670E0A0
:1006800035D60AE010E0B80131D6605D608BC90153
:10069000B8012CD6805D818BCF5CC093350263E0BE
:1006A00070E088E292E0C8D1ACC02C2F30E0F901B4
:1006B000E35CFB4F808190E06817790709F4A1C0E3
:1006C000F901E35CFB4F60839B01332744E06EE05C
:1006D00084E192E0C9D1CF5CC093200263E070E076
:1006E00084E192E0A9D18DC00C2F10E0072E000C00
:1006F000880B990B6FD520E030E04CE450E4CFD468
:1007000020E030E04CE852E465D431D5862F972FB5
:100710009C01F801EB52FC4F80A590E0982F8827B0
:1007200040AD842B8217930709F46BC0F801EB529C
:10073000FC4F60AF332364F1F801EB52FC4F10A67D
:10074000ECE3F2E080E387872DEC629F812D11249A
:10075000869586958695880F982F990F990F890F02
:10076000962F981B892F805D818B89E2689F812D50
:10077000112482958F7044E6849F60191124629F32
:10078000612D1124669566956695605D608B20C02D
:100790008FEFF801EB52FC4F80A7ECE3F2E08DE223
:1007A00087876095262F30E02F5F3F4FC90164E6B1
:1007B00070E09CD50F2EFAE0EF2EF12CF02DB70152
:1007C00095D5605D608BC901B70190D5805D818B47
:1007D000CF5CC093470263E070E08CE392E02CD1E1
:1007E000F801EB52FC4F20A530E040AD50E0DF01B6
:1007F000A856BF4F6C9170E0E855FF4F808190E0A4
:10080000A2D3CF911F910F91FF90EF900895CF93B6
:10081000C0E08C2F53DD8C2FA6DD8C2FBBDDCF5F8E
:10082000CC32B9F7CF910895AAD07DDCE9DC0AD0AB
:1008300033DD35D378941DDD7DDCE1DC13DDE7DFCE
:1008400016D0FACF60E070E083EB93E0F5D061E082
:1008500070E08EE993E0F0D062E070E089E893E028
:10086000EBD063E070E084E793E0E6C00895809108
:10087000D40390911E05981709F463C08370809388
:10088000D4038130E1F030F0823071F1833009F42B
:1008900040C053C060E070E083EB93E0CDD061E0F6
:1008A00070E08EE993E0C8D062E070E089E893E000
:1008B000C3D063E070E084E793E0BED03EC060E068
:1008C00070E08FE593E0B8D061E070E08AE493E0F7
:1008D000B3D062E070E085E393E0AED063E070E017
:1008E00080E293E0A9D029C060E070E08BE093E063
:1008F000A3D061E070E086EF92E09ED062E070E00D
:1009000081EE92E099D063E070E08CEC92E094D0BC
:1009100014C060E070E087EB92E08ED061E070E0A0
:1009200082EA92E089D062E070E08DE892E084D0C3
:1009300063E070E088E792E07FD08091D4038093F9
:100940001E050895E5E0F1E080818260808385E006
:100950008A95F1F7000080818D7F80830895E5E01E
:10096000F1E090819E7F908388B9ECCF0895E5E017
:10097000F1E090819160908388B9E4CF089583E09D
:10098000809304018FEF87B9E5E0F1E080818C7FEF
:10099000808318B88FE193E00197F1F700C0000061
:1009A0008AE2DDDF81E7DBDF8CE5E1DF88E2D7DFAC
:1009B00088E0D5DF8AE2D3DF89E7D1DF85EDCFDFBD
:1009C00080E7CDDF88E7CBDF89E0C9DF86E0C7DFDE
:1009D00082E7C5DF8AE0CBDF89E7C1DF8AEDBFDFD1
:1009E00080E1BDDF8CEDBBDF80E0B9DF81E8B7DF00
:1009F0008FE7B5DF89EDB3DF81EFB1DF8BEDAFDFDF
:100A000080E4ADDF88E7ABDF88E2A9DF81E0A7DF24
:100A10008FE39FE10197F1F700C0000080E89FDFBE
:100A20008CE09DDF9FEF24E38CE0915020408040DC
:100A3000E1F700C0000008950F931F93CF93DF9359
:100A40008C01FB01FF27E853FC4F808188DFE80120
:100A50000C5E1F4F89918BDFC017D107D9F7DF914B
:100A6000CF911F910F910895CF93DF93F9014330F8
:100A700009F451C028F4413051F0423021F1A2C1B3
:100A8000443009F48EC0453009F4FDC09BC1EC012F
:100A9000C60FD11DADECBCEC3CD4969587959695D0
:100AA0008795969587959C01220F331F880F991F74
:100AB000880F991F880F991F820F931FE81BF90B4E
:100AC000E05DE8837FC1EC01C60FD11DADECBCEC4D
:100AD00020D49695879596958795969587959C01B0
:100AE000220F331F880F991F880F991F880F991F96
:100AF000820F931F9F01281B390BC901805D8983D9
:100B00009F0107D496958795969587959695879595
:100B1000805D888357C1EC01C60FD11DADECBCECE4
:100B2000F8D39695879596958795969587959C0188
:100B3000220F331F880F991F880F991F880F991F45
:100B4000820F931F9F01281B390BC901805D8A8387
:100B5000AF0156954795569547959A01ABE7B4E195
:100B6000D8D39695879564E6689F9001699F300D6C
:100B70001124CF01821B930B9C01ADECBCECC9D3BB
:100B8000969587959695879596958795805D8983A7
:100B90009A01ABE7B4E1BDD396958795805D8883D4
:100BA00011C1EC01C60FD11DADECBCECB2D39695D2
:100BB000879596958795969587959C01220F331F6B
:100BC000880F991F880F991F880F991F820F931FF5
:100BD0009F01281B390BC901805D8B839F013695CE
:100BE000279536952795ABE7B4E193D396958795EE
:100BF00044E6489F9001499F300D1124CF01821B8C
:100C0000930B9C01ADECBCEC84D39695879596959F
:100C1000879596958795805D8A83AF015695479510
:100C200056954795569547959A01A5ECB0E271D334
:100C3000929582958F7089279F70892768EE73E05F
:100C4000869F9001879F300D969F300D1124CF0114
:100C5000821B930B9C013695279536952795ABE71C
:100C6000B4E157D396958795805D89839A01A5EC69
:100C7000B0E24FD3929582958F7089279F70892714
:100C8000805D88839FC0EC01C60FD11DADECBCEC2C
:100C900040D39695879596958795969587959C01CF
:100CA000220F331F880F991F880F991F880F991FD4
:100CB000820F931F9F01281B390BC901805D8C8314
:100CC0009F013695279536952795ABE7B4E121D35B
:100CD0009695879544E6489F9001499F300D1124D1
:100CE000CF01821B930B9C01ADECBCEC12D396950B
:100CF00087959695879596958795805D8B839F01BF
:100D0000369527953695279536952795A5ECB0E22B
:100D100000D3929582958F7089279F70892748EE1E
:100D200053E0849F9001859F300D949F300D1124D6
:100D3000CF01821B930B9C013695279536952795FD
:100D4000ABE7B4E1E6D296958795805D8A83AF01E3
:100D5000529542954F7045275F7045279A01A7E449
:100D6000B3E0D7D296958795969587959695879572
:100D700060E177E2869F9001879F300D969F300D4E
:100D80001124CF01821B930B9C0136952795369534
:100D9000279536952795A5ECB0E2BBD29295829522
:100DA0008F7089279F708927805D89839A01A7E4C6
:100DB000B3E0AFD29695879596958795969587954A
:100DC000805D8883DF91CF9108951F920F920FB6B7
:100DD0000F9211240BB60F922F933F938F939F93F3
:100DE000EF93FF938091D2039091D3032091D0038E
:100DF0003091D10382179307B9F0FC01EC52FA4FFE
:100E000080818093C6008091D2039091D303019694
:100E1000803891052CF49093D3038093D20304C0BF
:100E20001092D3031092D203FF91EF919F918F9173
:100E30003F912F910F900BBE0F900FBE0F901F9000
:100E400018952091D0033091D103F901EC52FA4F5B
:100E500080832F5F3F4F203831052CF43093D1032E
:100E60002093D00308951092D1031092D0030895D7
:100E70000F931F93CF93DF93EC018C01065F1F4FFD
:100E80008991DFDFC017D107D9F78091C00085FDB8
:100E90001092C600DF91CF911F910F91089510928B
:100EA000C50080E18093C40088E48093C10086E09F
:100EB0008093C2000895CF93DF93CDB7DEB72A9712
:100EC0000FB6F894DEBF0FBECDBF90EF99839AEABC
:100ED0009A839AE09B8393E09C832D838E836F8318
:100EE0004887198685E58A87CE010196C1DF2A9653
:100EF0000FB6F894DEBF0FBECDBFDF91CF9108953E
:100F0000CF93DF93CDB7DEB728970FB6F894DEBF47
:100F10000FBECDBF90EF99839AEA9A8398E09B83A6
:100F200095E09C834D838E836F8385E58887CE0112
:100F300001969EDF28960FB6F894DEBF0FBECDBF98
:100F4000DF91CF910895CF93DF93CDB7DEB7299787
:100F50000FB6F894DEBF0FBECDBF90EF99839AEA2B
:100F60009A8399E09B8398E09C838D836E834F8363
:100F7000288785E58987CE0101967ADF29960FB605
:100F8000F894DEBF0FBECDBFDF91CF910895CF9310
:100F9000DF93CDB7DEB728970FB6F894DEBF0FBE4C
:100FA000CDBF90EF99839AEA9A8398E09B839CE067
:100FB0009C838D836E834F8385E58887CE01019660
:100FC00057DF28960FB6F894DEBF0FBECDBFDF9176
:100FD000CF9108955058BB27AA270ED04DC13ED1BE
:100FE00030F043D120F031F49F3F11F41EF433C1AF
:100FF0000EF4E095E7FB29C1E92F4FD180F3BA1732
:10100000620773078407950718F071F49EF567C1AE
:101010000EF4E0950B2EBA2FA02D0B01B901900113
:101020000C01CA01A0011124FF27591B99F0593F57
:1010300050F4503E68F11A16F040A22F232F342F9F
:101040004427585FF3CF469537952795A795F040ED
:101050005395C9F77EF41F16BA0B620B730B840B02
:10106000BAF09150A1F0FF0FBB1F661F771F881FBA
:10107000C2F70EC0BA0F621F731F841F48F4879512
:1010800077956795B795F7959E3F08F0B3CF939501
:10109000880F08F09927EE0F9795879508950CD043
:1010A000EBC0E3D040F0DAD030F021F45F3F19F02C
:1010B000CCC0511115C1CFC0F0D098F39923C9F31A
:1010C0005523B1F3951B550BBB27AA27621773074E
:1010D000840738F09F5F5F4F220F331F441FAA1F02
:1010E000A9F333D00E2E3AF0E0E830D091505040C2
:1010F000E695001CCAF729D0FE2F27D0660F771F70
:10110000881FBB1F261737074807AB07B0E809F051
:10111000BB0B802DBF01FF2793585F4F2AF09E3FE6
:10112000510568F092C0DCC05F3FECF3983EDCF301
:10113000869577956795B795F7959F5FC9F7880F5F
:10114000911D9695879597F90895E1E0660F771FB1
:10115000881FBB1F621773078407BA0720F0621B42
:10116000730B840BBA0BEE1F88F7E095089504D03B
:101170006894B111B5C0089598D088F09F5790F049
:10118000B92F9927B751A0F0D1F0660F771F881FAC
:10119000991F1AF0BA95C9F712C0B13081F09FD0EB
:1011A000B1E008959CC0672F782F8827B85F39F089
:1011B000B93FCCF3869577956795B395D9F73EF40B
:1011C00090958095709561957F4F8F4F9F4F0895B3
:1011D000E89409C097FB3EF49095809570956195D1
:1011E0007F4F8F4F9F4F9923A9F0F92F96E9BB2787
:1011F0009395F695879577956795B795F111F8CF03
:10120000FAF4BB0F11F460FF1BC06F5F7F4F8F4F6D
:101210009F4F16C0882311F096E911C0772321F063
:101220009EE8872F762F05C0662371F096E8862FFB
:1012300070E060E02AF09A95660F771F881FDAF752
:10124000880F9695879597F9089597F99F6780E895
:1012500070E060E008959FEF80EC089500240A9408
:101260001616170618060906089500240A94121681
:101270001306140605060895092E0394000C11F4B4
:10128000882352F0BB0F40F4BF2B11F460FF04C061
:101290006F5F7F4F8F4F9F4F089557FD9058440FBA
:1012A000551F59F05F3F71F04795880F97FB991FC5
:1012B00061F09F3F79F08795089512161306140682
:1012C000551FF2CF4695F1DF08C01616170618060F
:1012D000991FF1CF86957105610508940895E894EA
:1012E000BB2766277727CB0197F9089597FB072E31
:1012F00016F4009406D077FD08D01AD007FC05D06C
:101300003EF4909581959F4F0895709561957F4F1C
:101310000895A29FB001B39FC001A39F700D811DCE
:101320001124911DB29F700D811D1124911D0895EE
:10133000AA1BBB1B51E107C0AA1FBB1FA617B707FB
:1013400010F0A61BB70B881F991F5A95A9F7809517
:0C1350009095BC01CD010895F894FFCFEA
:10135C00507265737365643A2078782020202020C1
:10136C0020200000456E76656C6F706554696D6564
:10137C00783A787878784D53456E76656C6F7065F1
:10138C004761696E78783A787878646254726163F0
:10139C006B566F6C756D6578203D2078787864623B
:1013AC004F7574566F6C756D652078203D2078787C
:1013BC00786462205069746368203D2078787820C6
:1013CC002020202020202020287075742074726921
:1013DC00676765726564206E6F746529004D69647A
:1013EC00692074726967676572204E6F746573202B
:1013FC0020004D696469204368616E6E656C3A200B
:10140C0078782020202000476C6F62616C20536537
:10141C007474696E67732020202020002020202007
:10142C0020202020202020202020202020202020B0
:10143C00004E6577204E616D653F202020202020D6
:10144C002020202020004E616D6520676F65732081
:10145C00686572652020202020200053616D706C1F
:10146C00652053656C6563742020202020202000AB
:10147C0063757272656E742076616C756520636835
:10148C00616E67650053746570206E756D62657270
:10149C003A202020202020202000537465707320D7
:1014AC00203A202020202020202020202020005303
:1014BC00657175656E63652020202020202020201A
:1014CC002020200063757272656E742076616C75D5
:1014DC0065206368616E67650042504D3A2020209C
:1014EC00202020202020202020202020200050619F
:1014FC00747465726E3A2020202020202020202039
:10150C00202000506572666F726D616E6365204DB0
:0C151C006F6465202020200080A0C0E04B
:00000001FF
