S01800005473756E616D694353314D61737465722E73726563F8
S1130000F3C0000011C100000FC1000050C2000085
S11300106CC2000088C20000A4C2000005C1000038
S113002003C1000001C10000FFC00000FDC00000CA
S1130030FBC00000F9C00000F7C00000F6C00000DB
S1130040F3C00000F1C00000EFC00000EDC00000EC
S1130050EBC000000C940714E7C00000E5C00000EA
S1130060E3C00000E1C00000DFC000000C94941461
S1130070DBC00000D9C00000D7C00000D5C000001C
S1130080D3C00000D1C00000CFC00000CDC000002C
S1130090CBC00000C9C00000C7C00000C5C000003C
S11300A0C3C00000C1C00000BFC00000BDC000004C
S11300B0BBC00000B9C00000B7C00000B5C000005C
S11300C0B3C00000B1C00000AFC00000ADC000006C
S11300D0ABC00000A9C000000C944810A5C00000EB
S11300E0A3C000000B0322052205220522052205D8
S11300F022052205220522052205220522052205C4
S11301002205220522052F035B0384032205220511
S1130110220522052205390365038E0322052205E3
S1130120220522052205B303EE03050442048B04D1
S1130130220522052205BD03F8030F044C0495048F
S1130140220522052205D404F804190522052205F6
S1130150220522052205DE0402053D0BF30DF30DF5
S1130160F30DF30DF30DF30DF30DF30DF30DF30D8B
S1130170F30DF30DF30DF30DF30D530B6D0B930B07
S1130180C20BF30DF30DF30DF30DF30D8A0BB00B4E
S1130190DF0BF30DF30DF30DF30DF00B0A0C430C11
S11301A08F0CC20C2C0DF30DF30DF30D270C600C0A
S11301B0AC0CDF0C490DF30DF30D5F0D790DA80D9B
S11301C0D70DF30DF30DF30DF30DF30D960DC50DD2
S11301D0D113D413D713DA13DD13E013E313E613A7
S11301E0E913EC13EF13F21311241FBECFEFD1E286
S11301F0DEBFCDBF00E00CBF13E0A0E0B2E0E0E65C
S1130200F9E300E00BBF02C007900D92AC38B107D0
S1130210D9F725E0ACE8B3E001C01D92A034B207E1
S1130220E1F77ED70C94AE1CEBCE1F920F920FB663
S11302300F9211242F933F938F939F9383B1209117
S11302408C038095382F3227909101029323892FB4
S113025080958093010290910002932398279093B4
S1130260000283238923922F982790938C03209153
S11302709F038923822B80939F039F918F913F91AA
S11302802F910F900FBE0F901F9018958FEF82B98A
S113029080930B018FE785B90895AF92BF92CF92F7
S11302A0DF92EF92FF920F931F93CF935C01209103
S11302B00901209520939D0390B130E0322F22272D
S11302C09095292BDB012D933C9340918D03509104
S11302D08E032417350709F451C06B0130938E0344
S11302E020938D03FB01008111817501F8E8EF0E65
S11302F0F11CC0E0902F917090939E039923A9F173
S1130300D60116969C9192959F70913051F018F0F9
S1130310943058F51AC04C2FB601C5010E94D3156C
S113032024C0D6011496EC911497F0E0EE0FFF1F51
S1130330EA0DFB1DE550FF4F208131818D919C9189
S1130340822793279183808310C0F601C583828519
S113035082608287D7012C91F701E057F10940812F
S1130360F701608980A10E94121516950795CF5F49
S1130370FFEFEF1AFF0AC03109F0BCCFCF911F91F4
S11303800F91FF90EF90DF90CF90BF90AF900895C2
S1130390FF920F931F93CF93DF93CDB7DEB7CC5764
S11303A0DE4F08811981C458D14080E266D0882389
S11303B041F1F801868182958F70833021F4C80160
S11303C00E94531A1EC0F80183818F938DB79EB784
S11303D08B5791400FB6F8949EBF0FBE8DBFADB73B
S11303E0BEB711968BE791E0FE01399601900D920C
S11303F00197E1F70E94B6160FB6F894DEBF0FBE60
S1130400CDBF80E43AD0882351F0F801868183FF80
S113041003C0877F868303C08860F8018683F80160
S1130420F78080E12AD0882371F0F0FE06C0F8013D
S1130430178282818F7D828306C081E0F8018783E1
S1130440828180628283F801F18481E016D088235E
S113045071F0F0FE06C0F801118682818D7F8283DF
S113046006C081E0F8018187828182608283DF9106
S1130470CF911F910F91FF9008952FB7F894909109
S11304809F03892390919F03982790939F032FBFE5
S11304900895E9E6F0E08081806F8083EAE6F0E089
S11304A080818F6080838DB38C638DBB08951F9290
S11304B00F920FB60F9211248F939F9380918F0305
S11304C081FF09C0909192039150909392038C7094
S11304D080938F0303C08D6080938F039F918F91CE
S11304E00F900FBE0F901F9018951F920F920FB68A
S11304F00F9211248F939F9380918F0380FF09C0E3
S1130500909192039F5F909392038C7080938F03DA
S113051003C08E6080938F039F918F910F900FBEC5
S11305200F901F9018951F920F920FB60F921124DF
S11305308F939F9380918F0383FF09C090919303BE
S11305409F5F90939303837080938F0303C08760AE
S113055080938F039F918F910F900FBE0F901F90E8
S113056018951F920F920FB60F9211248F939F9399
S113057080918F0382FF09C09091930391509093CF
S11305809303837080938F0303C08B6080938F03E6
S11305909F918F910F900FBE0F901F9018950F93FE
S11305A01F93CF93DF93AC01DB01909193032091D0
S11305B09103921791F0892F83708295807F16960C
S11305C08C931697109292031A968C911A978160C5
S11305D01A968C939093910339C2909192038091CF
S11305E09003981709F432C2981B1A968C911A97A3
S11305F081601A968C931A9716960C91169710E0B0
S11306000B33110508F01EC2F8018827EE58FF4F7E
S11306108F4F0C94321C913071F413968C91139774
S11306208F5F21F013968C93139713C08FEF13965B
S11306308C9313970EC09F3F61F413968C9113977C
S1130640815020F013968C93139703C013961C9239
S1130650139713966C91CA010E94A318F3C19130A9
S113066021F483E116968C93EDC182E116968C9366
S1130670E9C1913071F413968C9113978F5F21F037
S113068013968C93139711C08FEF13968C93139733
S11306900CC013968C911397815020F013968C9371
S11306A0139703C013961C92139713966C91CA0167
S11306B00E94A318C7C1913021F481E116968C934E
S11306C0C1C183E116968C93BDC1913079F4FA01CE
S11306D0E653FF4F80818F5F813410F48083B2C171
S11306E0FA01E653FF4F80E48083ACC1FA01E6537C
S11306F0FF4F9081915011F09083A4C1FA01E65309
S1130700FF4F81E080839EC1913021F482E11696EF
S11307108C9398C181E116968C9394C1913091F495
S113072014969C9114979F5F14969C931497FA01C6
S1130730E653FF4F8081981708F484C181501496C2
S11307408C9380C114969C911497915014969C9309
S11307501497FA01E653FF4F8081891708F072C19C
S113076014961C926FC1913021F485E216968C93F5
S113077069C182E216968C9365C115966C911597A2
S113078070E0FA01E60FF71FEF01C856DF4F28812A
S113079030E0322F2227E855FF4F8081282B9130FB
S11307A049F42F5F3F4F213080E1380740F020E0CB
S11307B030E105C02150310911F421E030E0640F2B
S11307C0751FFB01E855FF4F208315968C91480F48
S11307D0511DFA01E856FF4F308334C1913021F4A2
S11307E081E216968C932EC183E216968C932AC1CD
S11307F015968C91480F511DFA01E857FF4F81E07F
S11308009081911180E080831DC1913021F482E2B6
S113081016968C9317C184E216968C9313C191306B
S1130820C9F415968C911597FA01E80FF11D808D86
S11308308F5F808F15968C9190E0FA01E80FF91F75
S1130840208D283008F4FEC0FA01E80FF91F87E074
S1130850808FF8C015968C911597FA01E80FF11D59
S1130860808D8150808F15968C9190E0FA01E80F6D
S1130870F91F208D283008F4E5C0FA01E80FF91FAC
S1130880108EE0C0913021F483E216968C93DAC086
S113089085E216968C93D6C09130F9F415968C9116
S11308A01597FA01E80FF11DE551FF4F80818F5F25
S11308B0808315968C9190E0FA01E80FF91FE551B9
S11308C0FF4F2081253008F4BDC0480F591FFA019D
S11308D0E551FF4F84E08083B5C015968C91159740
S11308E0FA01E80FF11DE551FF4F808181508083AB
S11308F015968C9190E0FA01E80FF91FE551FF4F2E
S11309002081253008F49EC0480F591FFA01E55193
S1130910FF4F108297C0913021F484E216968C9395
S113092091C081E216968C938DC09130F9F415969E
S11309308C911597FA01E80FF11DE552FF4F808164
S11309408F5F808315968C9190E0FA01E80FF91F70
S1130950E552FF4F20812F3F09F074C0480F591F03
S1130960FA01E552FF4F8EEF80836CC015968C918F
S11309701597FA01E80FF11DE552FF4F8081815070
S1130980808315968C9190E0FA01E80FF91FE552E7
S1130990FF4F20812F3F09F055C0480F591FFA011E
S11309A0E552FF4F10824EC0913021F481E3169638
S11309B08C9348C082E316968C9344C0913069F4BA
S11309C01C968C911C978F5F803118F41C968C9325
S11309D039C08FE01C968C9335C01C968C911C9763
S11309E0815018F01C968C932DC01C961C922AC022
S11309F0913021F481E316968C9324C082E31696F9
S1130A008C9320C015962C91159730E0FB01E20FD2
S1130A10F31F8585913021F48F5F32F48FE704C092
S1130A208150813808F080E0A20FB31F1D968C938B
S1130A3009C0913021F482E316968C9303C081E3BC
S1130A4016968C938091920380939003DF91CF91BB
S1130A501F910F9108950F931F93CF93DF93EC0190
S1130A60FA0101900020E9F731978F01041B150B5F
S1130A70902F84E1801B0023A9F0FA0125E1269F31
S1130A80D001279FB00D1124AC0FBD1F2FEF200FF5
S1130A9030E02F5F3F4F420F531F21912D93E417F6
S1130AA0F507D9F7882389F045E1469F9001479FD0
S1130AB0300D1124C20FD31F080F80E2FE01E90F8D
S1130AC0F11D80839F5F9013F9CFDF91CF911F9128
S1130AD00F910895CF93DF93AC01FC01E855FF4FCC
S1130AE0EC01C857DF4FDC01A551BF4F90E021E076
S1130AF09F5F919329931D9212AA12A29031C1F77C
S1130B00FA01E550FF4F9A0125583E4F1192119278
S1130B10E217F307D9F7FA01E853FF4F88E790E0AB
S1130B2091838083329680E18083DF91CF91089511
S1130B30FC011182108212821382148215821682A1
S1130B4017821086118612861386613009F5148681
S1130B5084E2858785E2868786E2878787E2808BC1
S1130B6088E2818B89E2828B8AE2838B8BE2848B9D
S1130B708CE2858B8DE2868B8EE2878B8FE2808F71
S1130B8080E3818F81E3828F82E3838F83E3848F89
S1130B900895EAE7F0E0808180648083808186FDA7
S1130BA0FDCF80917900089580B3876080BB80E297
S1130BB080937C0087E880937A0088E080937B00B0
S1130BC08FEF80937E0080937D001092A003E1CF8D
S1130BD00895CF93982F969596952FE2929F912DF5
S1130BE0112496952CE2929F80191124982F883213
S1130BF070F488E080937B00C92FC7709695969512
S1130C009695906290937C00C4DFC1BB20C089326A
S1130C1071F018F4883231F01AC08A3269F08B32DC
S1130C2081F015C085E280937C00B3DF10C086E2BA
S1130C3080937C00AEDF0BC087E280937C00A9DF49
S1130C4006C080E280937C0010927B00A2DFCF91EB
S1130C5008950F931F93CF93DF938B01C82FD0E098
S1130C6098DFF801EC0FFD1F858FE75BFF4F408194
S1130C7090E0841B91099C0112F42F5F3F4F35953E
S1130C802795240F2083DF91CF911F910F91089511
S1130C90FC01E75BFF4F9C012B583F4F919193A7B9
S1130CA0E217F307D9F708954F925F926F927F92FC
S1130CB0CF92DF92EF92FF920F931F93CF93DF9324
S1130CC0982F96959695EFE29E9FE12D11249E2FE5
S1130CD096952CE2929F80191124982F883208F05F
S1130CE080C1D82FD770869586958695DA01199696
S1130CF02C9120FF03C0C8E0CD0F01C0CD2F82305E
S1130D0009F4A2C07A016B01833030F4882359F0CE
S1130D10813009F469C083C1833009F4BFC08430D1
S1130D2009F4E2C07CC1092F10E0CA01800F911FB1
S1130D30FC01EB58FF4F2081BC976081261720F4FB
S1130D40B62FB21B2B2F01C0261B233008F467C11A
S1130D5070E080E090E00E94771B209102023091C5
S1130D60030240910402509105020E94DC1A2B01F7
S1130D703C016091060270E080E090E00E94771BE5
S1130D809B01AC01C301B2010E94771A0E94441B6B
S1130D90862F262F372FF701928594609287D38769
S1130DA06D2F70E0F601E60FF71F808733232CF0D8
S1130DB0F601E60FF71F108205C09FEFF601E60F5C
S1130DC0F71F9083F601E60FF71F4D2F60810E94F5
S1130DD03815E701C00FD11FFE01EB58FF4FC75B69
S1130DE0DF4F888180831BC1892F90E09A01280FEF
S1130DF0391FF901E75BFF4F4081BC96208124171E
S1130E0009F40DC1D7011A962C911A9724601A96E9
S1130E102C931A972D2F20611B962C93FB01ED0F19
S1130E20F11D4058408B8E0D9F1D9C012B583F4F48
S1130E30875B9F4FDC018C91D9018C93408960E0E2
S1130E408D2F0E94AF15EBC0E92FF0E0CA018E0F81
S1130E509F1FDC01A75BBF4F2C919C968C9182173E
S1130E6009F4DDC0DA011A968C911A9784601A96F7
S1130E708C931A978D2F80621B968C936C0F711D27
S1130E80DB01A85ABF4F2C93E40FF51FDF01AB58C9
S1130E90BF4FE75BFF4F80818C93C1C0292F30E0A7
S1130EA0CA01820F931FFC01E75BFF4F4081BC9690
S1130EB08081841709F4B3C0F70182858460828736
S1130EC08D2F80638387CC0ED11CF601E858FF4F29
S1130ED040832E0D3F1DF901EB58FF4FD901A75B4D
S1130EE0BF4F8C9180839BC0092F10E0CA01800FF3
S1130EF0911FFC01EB58FF4F2081BC97608126179E
S1130F0020F4F62FF21B2F2F01C0261B233008F4E8
S1130F1086C070E080E090E00E94771B209102027E
S1130F203091030240910402509105020E94DC1AA0
S1130F302B013C016091060270E080E090E00E9489
S1130F40771B9B01AC01C301B2010E94771A0E9476
S1130F50441B862F972F9C01D7011A968C911A97C0
S1130F6084601A968C931A978D2F80641B968C93A9
S1130F70D0E0F601EC0FFD1F60AF33232CF0F60137
S1130F80EC0FFD1F10A605C08FEFF601EC0FFD1F3F
S1130F9080A796012C0F3D1FF901E85BFF4F80816C
S1130FA090E0982F882770962081822B892B71F4EA
S1130FB0CC0DDD1DDE01A856BF4FFE01E855FF4FE5
S1130FC028A5462F6C9180810E945C150E0D1F1D73
S1130FD0F801EB58FF4FD801A75BBF4F8C9180837A
S1130FE01EC08A32E1F4FA01ED58FF4F8081BC96AD
S1130FF090819817A1F0FA0192859460928790E508
S11310009387FB01E853FF4F90E091838083DA01DB
S1131010A156BF4FFA01ED58FF4F80818C93DF91A9
S1131020CF911F910F91FF90EF90DF90CF907F9021
S11310306F905F904F900895EF92FF920F931F93DC
S1131040CF937C018B01C0E08C2FC3DDB8018C2FC2
S113105000DEA801B7018C2F27DECF5FCC32A1F7C9
S1131060CF911F910F91FF90EF90089587E083BB7C
S11310700895A29827E0A09A662314F4A19A01C0C7
S1131080A198A098660F2150B1F721E1A09A992365
S113109014F4A19A01C0A198A098880F991F215017
S11310A0A9F7A29A0895CF93DF93CDB7DEB7CF57B0
S11310B0DE4F28813981C158D140CD57DE4F688138
S11310C0C358D140C957DE4F9881C758D140929533
S11310D09F70913049F028F09230D1F09330D9F0DC
S11310E01CC0C901C6DF19C0CB57DE4FE881C55803
S11310F0D140F0E0EE0FFF1F86E090E08C0F9D1FC3
S1131100E80FF91FE550FF4F80819181B2DF05C0E0
S1131110C901AFDF02C0C901ACDFDF91CF910895EF
S1131120CF93DF93CDB7DEB7C351D6400FB6F89453
S1131130DEBF0FBECDBF0E947A1160E0CE01835D99
S11311409A4FF6DCA3D892DFA4D92EDD0E940615AF
S11311500E94D3100E94FE130E945816CE010196DD
S1131160B9DCC05DDA4F6881C053D540CE01019629
S11311700E94A31800E010E00F2EFCE2DF2EF02DF9
S11311809801AFE2BAEB0E943A1C96958795929526
S113119082958F7089279F708927D89E9001D99E48
S11311A0300D11247801E21AF30A8E2D12DDBE01EE
S11311B0635D7A4F8E2D4DDD0F5F1F4F083B81E03D
S11311C01807F1F6CE01835D9A4F62DD60E0CE012F
S11311D0835D9A4F0E94641A8DB79EB7875E91090A
S11311E00FB6F8949EBF0FBE8DBFADB7BEB71196B4
S11311F087EEFE01E35DFA4F01900D928A95E1F7C7
S11312008DB79EB78B5791400FB6F8949EBF0FBE13
S11312108DBFADB7BEB711968BE791E0FE01319655
S113122001900D920197E1F7CE0184589E4FC7D0EB
S113123084E08093B10081E08093700078940FB6CD
S1131240F894DEBF0FBECDBF8E01035D1A4FB80107
S1131250CE01019622D81F930F938DB79EB78B575B
S113126091400FB6F8949EBF0FBE8DBFADB7BEB709
S113127011968BE791E0FE01319601900D92019752
S1131280E1F786D88DB79EB783589E4F0FB6F89472
S1131290DEBF0FBECDBF875E91090FB6F8949EBF27
S11312A00FBE8DBFADB7BEB7119687EEF8010190A2
S11312B00D928A95E1F78DB79EB78B5791400FB683
S11312C0F8949EBF0FBE8DBFADB7BEB711968BE726
S11312D091E0FE01319601900D920197E1F7E3DE72
S11312E00FB6F894DEBF0FBECDBFB801CE01019694
S11312F056D9B801CE0101969FDE8DB79EB7875EA1
S113130091090FB6F8949EBF0FBE8DBFADB7BEB79F
S1131310119687EEF80101900D928A95E1F78DB749
S11313209EB78B5791400FB6F8949EBF0FBE8DBFEA
S1131330ADB7BEB711968BE791E0FE0131960190EF
S11313400D920197E1F70E941E140FB6F894DEBFC8
S11313500FBECDBFA801BE016F5F7F4FCE01845881
S11313609E4F6DD18DB79EB7875E91090FB6F894E5
S11313709EBF0FBE8DBFADB7BEB7119687EEF80105
S113138001900D928A95E1F78DB79EB78B579140E6
S11313900FB6F8949EBF0FBE8DBFADB7BEB7119602
S11313A08BE791E0FE01319601900D920197E1F7F0
S11313B00AD70FB6F894DEBF0FBECDBF48CFCF9289
S11313C0DF92EF92FF920F931F93CF93DF93CDB7EA
S11313D0DEB78C01C657DE4FE880CA58D14040E6DC
S11313E052E060E070E037DB41E752E061E070E03A
S11313F0C80131DB4AE752E062E070E0C8012BDB50
S11314004FE752E063E070E0C80125DB68018DEB33
S1131410C80ED11C44E852E060E070E0C6011BDB5A
S113142041E752E061E070E0C60115DB42E952E0B9
S113143062E070E0C6010FDB49E952E063E070E06E
S1131440C60109DB680186E8C81A8EEFD80A46EAA5
S113145052E060E070E0C601FEDA45EB52E061E084
S113146070E0C601F8DA4CEB52E062E070E0C601CD
S1131470F2DA46EC52E063E070E0C601ECDA40EDEB
S113148052E064E070E0C601E6DA4EED52E065E059
S113149070E0C601E0DA680189ECC81A8DEFD80A59
S11314A04CEE52E061E070E0C601D5DA4AEF52E05A
S11314B062E070E0C601CFDA4AE853E063E070E02E
S11314C0C601C9DA48E053E060E070E0C601C3DA5F
S11314D068018CE0C81A8DEFD80A48E153E060E057
S11314E070E0C601B8DA4CE253E061E070E0C60196
S11314F0B2DA48E353E062E070E0C601ACDA4DE4EE
S113150053E063E070E0C601A6DA42E653E064E02B
S113151070E0C601A0DACC52DF4F28813981C45D66
S1131520D04043E065E0C8018A9659D7CD56DE4FD6
S11315302881C359D14030E02F5F3F4F42E06EE035
S1131540C801845B9D4F4BD7F12C8FEFE81AF80A42
S1131550970143E069E0C801459641D7970143E00C
S113156069E0C8018E529F4F3AD7CA52DF4F288193
S1131570C65DD04030E042E067E0C80189519F4F2A
S11315802ED7C557DE4F2881CB58D14030E02F5F8E
S11315903F4F42E06DE0C80184509F4F20D7E12CBB
S11315A0F12CB701C80103D78FEFE81AF80A0B5ED4
S11315B01F4F84E0E816F104A1F7DF91CF911F914A
S11315C00F91FF90EF90DF90CF900895EF92FF92EC
S11315D00F931F93CF93DF93EC018B017A01FB01EF
S11315E0E853FF4F2081318143E065E08A96F7D6C6
S11315F0F801E653FF4F208130E042E067E0CE017E
S113160089519F4FECD6F701238130E02F5F3F4F84
S113161043E069E0CE018E529F4FE1D6F70123816A
S113162030E02F5F3F4F43E069E0CE014596D7D6C7
S1131630DF91CF911F910F91FF90EF900895AF929A
S1131640BF92CF92DF92EF92FF920F931F93CF93AB
S1131650DF938C017B01EA018A8580FFC7C21A8669
S11316608E8190E08B33910508F0BDC2FC01882780
S1131670E355FF4F8F4F0C94321CC801A7DF60E085
S113168070E0C80194D661E070E0C80145968FD639
S113169062E070E0C8018A968AD663E070E0C8010F
S11316A0CF9685D6A0C260E070E0C80183549F4FF6
S11316B07ED661E070E0C8018E529F4F78D662E01A
S11316C070E0C80189519F4F72D663E070E0C80191
S11316D084509F4F6CD681E18E8388E0F801EB51F2
S11316E0FF4F808380E2759680837596808361E0E6
S11316F070E0C8018E529F4F5AD662E070E0C80174
S113170089519F4F54D663E070E0C80184509F4FC5
S11317104ED669C2C8015ADF61E070E0C8018E523A
S11317209F4F45D660C280E2F801EB51FF4F8083A2
S113173098E0759690837596808361E070E0C801A7
S11317408E529F4F34D662E070E0C80189519F4F9A
S11317502ED663E070E0C80184509F4F28D643C260
S1131760FB01E653FF4F208130E042E067E068016F
S113177087EEC80ED11CC60132D662E070E0C60105
S113178016D631C280E2F801EB51FF4F8083759683
S1131790808388E07596808361E070E0C8018E5292
S11317A09F4F05D662E070E0C80189519F4FFFD575
S11317B063E070E0C80184509F4FF9D514C22C81B6
S11317C030E02F5F3F4F42E06EE068019CEFC90EAE
S11317D0D11CC60104D663E070E0C601E8D503C29B
S11317E060E070E0C80186589E4FE1D561E070E08A
S11317F0C80181579E4FDBD562E070E0C8018C556B
S11318009E4FD5D563E070E0C80187549E4FCFD575
S113181081E28E8388E0F801EE55FE4F808380E2FA
S1131820759680837596808361E070E0C801815766
S11318309E4FBDD562E070E0C8018C559E4FB7D570
S113184063E070E0C80187549E4FB1D5CCC18D814F
S1131850DB01A80FB11DFD01E856FF4F208130E0E8
S1131860322F222770968081282B44E06AE0680199
S1131870B1E7CB1ABEEFDB0AC601B1D561E070E077
S1131880C60195D5B0C180E2F801EE55FE4F8083C4
S113189098E0759690837596808361E070E0C80146
S11318A081579E4F84D562E070E0C8018C559E4FED
S11318B07ED563E070E0C80187549E4F78D593C10C
S11318C08D81FB01E80FF11DE857FF4F80818823CC
S11318D019F0813079F01CC083E5F801E255FE4F20
S11318E080838FE6319680839CE63196908331968F
S11318F080830EC080E5F801E255FE4F80838FE6B9
S1131900319680838CE63196808389E73196808393
S113191062E070E0C8018C559E4F49D564C180E2F5
S1131920F801EE55FE4F80837596808388E07596A6
S1131930808361E070E0C80181579E4F38D562E032
S113194070E0C8018C559E4F32D563E070E0C80149
S113195087549E4F2CD547C18D81FB01E80FF11DA3
S1131960208D30E02F5F3F4F42E06AE06801E7E4FA
S1131970CE1AEEEFDE0AC60132D563E070E0C6018E
S113198016D531C180E2F801E954FE4F8083759683
S1131990808388E07596808361E070E0C8018C558F
S11319A09E4F05D562E070E0C80187549E4FFFD476
S11319B063E070E0C80182539E4FF9D414C18D8155
S11319C0FB01E80FF11DE551FF4F80818130A9F043
S11319D028F08230F9F0833051F137C081E4F80106
S11319E0E452FE4F80838DE23196808382E5319606
S11319F0808380E23196808328C082E5F801E45236
S1131A00FE4F808380E231968083319680833196C5
S1131A1080831BC081E4F801E452FE4F808380E29E
S1131A203196808331968083319680830EC08EE414
S1131A30F801E452FE4F80838FE6319680838EE670
S1131A403196808385E63196808363E070E0C80137
S1131A5082539E4FACD4C7C080E2F801E453FE4FDA
S1131A6080837596808388E07596808361E070E05A
S1131A70C80187549E4F9BD462E070E0C801825332
S1131A809E4F95D463E070E0C8018D519E4F8FD472
S1131A90AAC08D81FB01E80FF11DE552FF4F2081A3
S1131AA030E043E06DE06801FDE1CF1AFEEFDF0AAC
S1131AB0C60195D463E070E0C60179D494C060E0B7
S1131AC070E0C801895C9D4F72D461E070E0C80188
S1131AD0845B9D4F6CD462E070E0C8018F599D4FC8
S1131AE066D463E070E0C8018A589D4F60D481E3F6
S1131AF08E8388E0F801E15AFD4F808380E2759679
S1131B0080837596808361E070E0C801845B9D4F9B
S1131B104ED462E070E0C8018F599D4F48D463E011
S1131B2070E0C8018A589D4F42D45DC02C8530E0D6
S1131B302F5F3F4F42E06EE0680184EBC81A8DEFDF
S1131B40D80AC6014CD461E070E0C60130D44BC061
S1131B5080E2F801E15AFD4F808398E07596908306
S1131B607596808361E070E0C801845B9D4F1FD44B
S1131B7062E070E0C8018F599D4F19D463E070E0B2
S1131B80C8018A589D4F13D42EC08D81FA01E80FE5
S1131B90F11D45856EE068019FE9C91A9DEFD90AD8
S1131BA0C601E3D562E070E0C60101D41CC080E246
S1131BB0F801E15AFD4F80837596808388E075961D
S1131BC0808361E070E0C801845B9D4FF0D362E0E4
S1131BD070E0C8018F599D4FEAD363E070E0C801FB
S1131BE08A589D4FE4D38E818093A1038A8581FF17
S1131BF005C11A868E8182958F70823021F08330E0
S1131C0009F4E3C0FBC02D8130E0A701420F531F4C
S1131C10FA01E856FF4F808190E0982F882770964C
S1131C2040816C01C42A2F5F3F4F42E067E05801B6
S1131C30A1E7AA1AAEEFBA0AC501D1D3960144E0CE
S1131C406AE0C501CCD38D81F701E80FF11DE85797
S1131C50FF4F8081882319F0813079F01CC083E51F
S1131C60F801E255FE4F80838FE6319680839CE62F
S1131C7031969083319680830EC080E5F801E25559
S1131C80FE4F80838FE6319680838CE63196808385
S1131C9089E7319680838D81F701E80FF11D208D4E
S1131CA030E02F5F3F4F42E06AE0C80187549E4F07
S1131CB096D38D81F701E80FF11DE551FF4F808127
S1131CC08130A9F028F08230F9F0833051F137C027
S1131CD081E4F801E452FE4F80838DE231968083E3
S1131CE082E53196808380E23196808328C082E544
S1131CF0F801E452FE4F808380E23196808331966E
S1131D008083319680831BC081E4F801E452FE4F46
S1131D10808380E2319680833196808331968083FC
S1131D200EC08EE4F801E452FE4F80838FE63196B4
S1131D3080838EE63196808385E6319680838D811B
S1131D40F701E80FF11DE552FF4F208130E043E039
S1131D506DE0C8018D519E4F42D38E81843218F0BC
S1131D60877F825201C081E0C82ED12C0F2EF5E16D
S1131D70BF2EF02DBC9CC001BD9C900D1124865833
S1131D809E4F61E070E0800F911F11D396012F5F89
S1131D903F4FB29EC001B39E900D112486589E4FB2
S1131DA062E070E0800F911F02D3B2E0CB0ED11C31
S1131DB0BC9CC001BD9C900D112486589E4F63E0CD
S1131DC070E0800F911FF3D219C02D8130E02F5F96
S1131DD03F4F42E06AE06801EFE9CE1AEDEFDE0A18
S1131DE0C601FDD28D81FE01E80FF11D45856EE02F
S1131DF0C601BBD462E070E0C601D9D28A8582FFF5
S1131E003CC18B85F82FFF70AF2E998590FF02C0DF
S1131E1098E001C090E082958F70823009F48FC001
S1131E2030F4882369F0813009F452C025C184302C
S1131E3009F4C7C008F4A4C0853009F40BC11CC15F
S1131E40EA2DF0E0D701AE0FBF1F8C9181110AC0BB
S1131E50FD01208530E043E06EE0C8018C509D4FC9
S1131E60BED229C08DE2D801AE5FBC4F8C9368010D
S1131E7023E0C20ED21EEE0DFF1D8085809590E0FA
S1131E80019664E670E00E94031C2AE030E0B90188
S1131E900E94031C605DD6016C937801BCEFEB1AC1
S1131EA0FB0A8085809590E00196B9010E94031C8D
S1131EB0805DF7018083F801E250FD4F81E38A0DD4
S1131EC0808363E070E0C8018C509D4F70D2D4C011
S1131ED0F801E25FFC4F81E38A0D8083CA2CD12C88
S1131EE0F701EC0DFD1D8089882394F48DE2F8013F
S1131EF0E05FFC4F8083F701EC0DFD1D20892095E8
S1131F0030E043E068E0C801875F9C4F68D210C0AE
S1131F108BE2F801E05FFC4F8083F701EC0DFD1DBF
S1131F20208930E043E068E0C801875F9C4F57D2C6
S1131F3063E070E0C801875F9C4F39D29DC0CA2C12
S1131F40D12CA92EB12C025E1C4FF701EC0DFD1D06
S1131F50EA0DFB1DE85AFF4F208130E044E06EE0BB
S1131F60C8013DD296012F5F3F4F2A0D3B1D42E031
S1131F706AE0C80134D263E070E0C80118D27CC0C2
S1131F80CA2CD12CA92EB12C0D5C1C4FF701EC0DE1
S1131F90FD1DEA0DFB1DE858FF4F208130E044E0B1
S1131FA06EE0C8011CD296012F5F3F4F2A0D3B1DE6
S1131FB042E06BE0C80113D263E070E0C801F7D1DE
S1131FC05BC0C92ED12CCA0CD11CF701EC0DFD1D30
S1131FD080A581110CC0F701EC0DFD1D20AD30E092
S1131FE042E06FE0C801885B9C4FF9D125C08DE2C7
S1131FF0F801E95AFC4F80833196EC0CFD1CD701A3
S1132000D8968C91809590E0019664E670E00E94E9
S1132010031C2AE030E0B9010E94031C605D608368
S11320203196D701D8968C91809590E00196B901AC
S11320300E94031C805D8083085B1C4F96012F5F08
S11320403F4F42E06CE0C801CAD163E070E0C801D0
S1132050AED112C0065D1F4FF701E853FF4F208138
S1132060318143E065E0C801BAD18E81811104C099
S113207062E070E0C8019BD11A86DF91CF911F9175
S11320800F91FF90EF90DF90CF90BF90AF900895A5
S11320901F920F920FB60F9211240BB60F922F932B
S11320A03F935F936F937F938F939F93AF93BF936C
S11320B0EF93FF9320913601822F82958F70885081
S11320C0823078F48091950390E0FC01EE0FFF1FBD
S11320D08E0F9F1FFC01EE55FC4F208310920702C8
S11320E050C080910702811115C08091950390E042
S11320F030910702FC01EE0FFF1FE80FF91FEE55A8
S1132100FC4FE30FF11D2183809107028F5F8093C1
S1132110070237C0809107028F3F99F180919503A0
S113212090E030910702FC01EE0FFF1FE80FF91F4A
S1132130EE55FC4FE30FF11D21838091950390E050
S1132140FC01EE0FFF1F8E0F9F1FFC01EE55FC4F8D
S113215020818091950390E001966AE070E00E94EE
S1132160031C809395038091950390E0FC01EE0F8E
S1132170FF1F8E0F9F1FFC01EE55FC4F2083109212
S11321800702FF91EF91BF91AF919F918F917F9142
S11321906F915F913F912F910F900BBE0F900FBEE7
S11321A00F901F901895109235018FE180933401A0
S11321B0E1E3F1E0808188698083E2E3F1E08081FA
S11321C0866080830895AF92BF92CF92DF92EF92A0
S11321D0FF920F931F93CF93DF93CDB7DEB7E091B8
S11321E0940380919503E81709F45CC07E0186EAA4
S11321F0E80EF11C0AE010E0F0E0CF01880F991F0F
S1132200E80FF91FEE55FC4F808122819081829561
S11322108F708930C9F52223B9F19F70CB56DE4FF8
S11322208881C559D14098132FC00F2EF9E8AF2EDD
S1132230BB24B394F02DAC0EBD1EEDE0AE0EB11C6C
S11322406E01F6E9CF0ED11C8091940390E0FC015D
S1132250EE0FFF1F8E0F9F1FFC01EE55FC4F918167
S1132260F50181915F01981309C0F6012081E057BF
S1132270F1094081F601608980A1D4D3FFEFCF1A20
S1132280DF0ACE14DF0401F78091940390E00196F5
S1132290B8010E94031CE82F809394038091950356
S11322A08E13AACFDF91CF911F910F91FF90EF90E2
S11322B0DF90CF90BF90AF900895E2E0F1E080818D
S11322C08062808385E08A95F1F7000080818F7DAC
S11322D080830895E2E0F1E090819F7B908388B948
S11322E0ECCF0895E2E0F1E090819064908388B9A6
S11322F0E4CF089580E6809301018FEF87B9E2E08F
S1132300F1E080818F79808318B88FE193E00197A1
S1132310F1F700C000008AE2DDDF81E7DBDF8CE556
S1132320E1DF88E2D7DF88E0D5DF8AE2D3DF89E71F
S1132330D1DF85EDCFDF80E7CDDF88E7CBDF89E034
S1132340C9DF86E0C7DF82E7C5DF8AE0CBDF89E744
S1132350C1DF8AEDBFDF80E1BDDF8CEDBBDF80E054
S1132360B9DF81E8B7DF8FE7B5DF89EDB3DF81EF50
S1132370B1DF8BEDAFDF80E4ADDF88E7ABDF88E270
S1132380A9DF81E0A7DF8FE39FE10197F1F700C0A8
S1132390000080E89FDF8CE09DDF9FEF24E38CE06A
S11323A0915020408040E1F700C0000008950F9351
S11323B01F93CF93DF938C01FB01FF27E85FFD4F51
S11323C0808188DFE8010C5E1F4F89918BDFC01785
S11323D0D107D9F7DF91CF911F910F910895CF9332
S11323E0DF93F901433009F454C028F4413051F02B
S11323F0423029F1B7C1443009F495C0453009F49D
S11324000AC1B0C1EC01C60FD11DADECBCEC0E94F9
S11324103A1C9695879596958795969587959C01F0
S1132420220F331F880F991F880F991F880F991F38
S1132430820F931FE81BF90BE05DE88393C1EC0165
S1132440C60FD11DADECBCEC0E943A1C9695879545
S113245096958795969587959C01220F331F880F33
S1132460991F880F991F880F991F820F931F9F012F
S1132470281B390BC901805D89839F010E943A1C86
S1132480969587959695879596958795805D88838B
S113249069C1EC01C60FD11DADECBCEC0E943A1C25
S11324A09695879596958795969587959C01220F85
S11324B0331F880F991F880F991F880F991F820F48
S11324C0931F9F01281B390BC901805D8A83AF01CB
S11324D056954795569547959A01ABE7B4E10E9406
S11324E03A1C9695879564E6689F9001699F300D24
S11324F01124CF01821B930B9C01ADECBCEC0E9418
S11325003A1C969587959695879596958795805DBF
S113251089839A01ABE7B4E10E943A1C96958795AA
S1132520805D88831FC1EC01C60FD11DADECBCECEE
S11325300E943A1C969587959695879596958795CA
S11325409C01220F331F880F991F880F991F880F32
S1132550991F820F931F9F01281B390BC901805DAE
S11325608B839F013695279536952795ABE7B4E184
S11325700E943A1C9695879544E6489F9001499F8E
S1132580300D1124CF01821B930B9C01ADECBCECEC
S11325900E943A1C9695879596958795969587956A
S11325A0805D8A83AF015695479556954795569514
S11325B047959A01A5ECB0E20E943A1C9295829547
S11325C08F7089279F70892768EE73E0869F90013A
S11325D0879F300D969F300D1124CF01821B930BE2
S11325E09C013695279536952795ABE7B4E10E9473
S11325F03A1C96958795805D89839A01A5ECB0E293
S11326000E943A1C929582958F7089279F70892722
S1132610805D8883A7C0EC01C60FD11DADECBCEC76
S11326200E943A1C969587959695879596958795D9
S11326309C01220F331F880F991F880F991F880F41
S1132640991F820F931F9F01281B390BC901805DBD
S11326508C839F013695279536952795ABE7B4E192
S11326600E943A1C9695879544E6489F9001499F9D
S1132670300D1124CF01821B930B9C01ADECBCECFB
S11326800E943A1C96958795969587959695879579
S1132690805D8B839F0136952795369527953695D2
S11326A02795A5ECB0E20E943A1C929582958F7012
S11326B089279F70892748EE53E0849F9001859F66
S11326C0300D949F300D1124CF01821B930B9C017C
S11326D03695279536952795ABE7B4E10E943A1CC9
S11326E096958795805D8A83AF01529542954F7088
S11326F045275F7045279A01A7E4B3E00E943A1C7E
S113270096958795969587959695879560E177E256
S1132710869F9001879F300D969F300D1124CF0125
S1132720821B930B9C0136952795369527953695F4
S11327302795A5ECB0E20E943A1C929582958F7081
S113274089279F708927805D89839A01A7E4B3E074
S11327500E943A1C969587959695879596958795A8
S1132760805D8883DF91CF9108959C01A62FEBEAC9
S11327704E9FE12D1124E695E695E6959FE29E0F86
S11327808E2F880FE80FEE0FEE0F4E1B50E04C30EB
S1132790510558F5FA018827E851FF4F8F4F0C94E3
S11327A0321C80E243E423C083E243E420C080E29D
S11327B044E41DC083E244E41AC080E245E417C047
S11327C080E246E414C083E246E411C080E247E4B8
S11327D00EC083E247E40BC080E241E408C083E218
S11327E041E405C080E242E402C080E040E0F90137
S11327F0EA0FF11D408381839283089582E084BDB2
S113280093E095BD99E197BD80936E0008951F9262
S11328100F920FB60F9211248F939F938091970379
S113282090919803019690939803809397039F91B6
S11328308F910F900FBE0F901F901895CF92DF923B
S1132840EF92FF920F931F93CF93DF93CDB7DEB731
S1132850CC52DF4F28813981C45DD04040E050E044
S113286060EF79E482E090E0E1D780919703909162
S113287098038217930708F44EC0C257DE4F88812D
S1132880CE58D140882309F440C010929803109286
S11328909703E0919603F0E0EE0FFF1F8CE090E0C9
S11328A08C0F9D1FE80FF91FE550FF4FE080F1806A
S11328B08E010C561F4F6E0194EAC90ED11CE0FE26
S11328C009C0F8012081E057F1094081F8016089CD
S11328D080A1A8D0F694E7940F5F1F4F0C151D0537
S11328E071F7809196038F5F8093960390E0CA52AC
S11328F0DF4F2881C65DD04030E0215031092817D0
S113290039074CF41092960306C010929603109265
S1132910980310929703DF91CF911F910F91FF902D
S1132920EF90DF90CF9008951F920F920FB60F9201
S113293011240BB60F922F933F938F939F93EF9392
S1132940FF9380919B0390919C0320919903309174
S11329509A0382179307C1F0FC01E054FC4F808175
S11329608093C60080919B0390919C0301968038CC
S113297021E092072CF490939C0380939B0304C062
S113298010929C0310929B03FF91EF919F918F9162
S11329903F912F910F900BBE0F900FBE0F901F9081
S11329A018952091990330919A03F901E054FC4F52
S11329B080832F5F3F4F203881E038072CF4309319
S11329C09A0320939903089510929A0310929903FD
S11329D008950F931F93CF93DF93662369F0EC015F
S11329E06150062F10E00F5F1F4F080F191F8991C8
S11329F0D8DFC017D107D9F78091C00085FD1092A8
S1132A00C600DF91CF911F910F9108951092C500D8
S1132A1080E18093C40088E48093C10086E08093C1
S1132A20C2000895CF93DF93CDB7DEB72A970FB6D0
S1132A30F894DEBF0FBECDBF90EF99839AEA9A83D4
S1132A409AE09B8393E09C832D838E836F834887D6
S1132A50198685E58A876AE0CE010196BADF2A964F
S1132A600FB6F894DEBF0FBECDBFDF91CF910895AE
S1132A70CF93DF93CDB7DEB728970FB6F894DEBFB8
S1132A800FBECDBF90EF99839AEA9A8398E09B8317
S1132A9095E09C834D838E836F8385E5888768E00A
S1132AA0CE01019696DF28960FB6F894DEBF0FBECE
S1132AB0CDBFDF91CF910895CF93DF93CDB7DEB72C
S1132AC029970FB6F894DEBF0FBECDBF90EF998360
S1132AD09AEA9A8399E09B8398E09C838D836E8322
S1132AE04F83288785E5898769E0CE01019671DFE8
S1132AF029960FB6F894DEBF0FBECDBFDF91CF91FC
S1132B000895CF92EF920F93CF93DF93CDB7DEB7B3
S1132B102C970FB6F894DEBF0FBECDBF90EF99830C
S1132B209AEA9A839CE09B839AE09C838D836E83CC
S1132B304F8328870987EA86CB8685E58C876CE0F6
S1132B40CE01019646DF2C960FB6F894DEBF0FBE79
S1132B50CDBFDF91CF910F91EF90CF900895CF9398
S1132B60DF93CDB7DEB728970FB6F894DEBF0FBE5C
S1132B70CDBF90EF99839AEA9A8398E09B839CE077
S1132B809C838D836E834F8385E5888768E0CE01BF
S1132B9001961FDF28960FB6F894DEBF0FBECDBF97
S1132BA0DF91CF9108958F929F92AF92BF92CF926F
S1132BB0EF920F93CF93DF93EC0150E0FC01E40F0D
S1132BC0F51FE551FF4F90819130C9F030F09230FC
S1132BD041F1933009F451C061C04C0F5D1FEA010B
S1132BE0C857DF4FDA01A856BF4FFA01E855FF4F27
S1132BF02881EA01488D6C91808114DF4FC04C0F0D
S1132C005D1FEA01C857DF4FDA01A856BF4FFA012A
S1132C10E855FF4F2881EA01488D6C91808102DFDD
S1132C203DC0C40FD51F4E01E8E98E0E911C5E0114
S1132C30F8EAAF0EB11C2AEB4FEFF4016081F50105
S1132C4080813ADFFE01E857FF4F2081488DF4016F
S1132C506081F5018081E6DEDE01A85BBF4FFE01E5
S1132C60E85AFF4FC12CEC90008128A548ADE4013F
S1132C706881F501808145DF11C04C0F5D1FEA01B9
S1132C80C857DF4FDA01A856BF4FFA01E855FF4F86
S1132C902881EA01488D6C918081C4DEDF91CF9157
S1132CA00F91EF90CF90BF90AF909F908F90089529
S1132CB01092B90088E48093B800089594EA909340
S1132CC0BC00ECEBF0E090819923ECF79091B90013
S1132CD0987F983011F09031A1F48093BB0084E880
S1132CE08093BC00ECEBF0E080818823ECF79091BA
S1132CF0B900987F983139F081E0903429F480E06C
S1132D00089581E0089580E0089584E98093BC00EB
S1132D10ECEBF0E0808184FDFDCF08958093BB004F
S1132D2084E88093BC00ECEBF0E080818823ECF72E
S1132D309091B900987F81E0983209F480E0089579
S1132D4084EC8093BC00ECEBF0E080818823ECF70A
S1132D508091BB00089584E88093BC00ECEBF0E024
S1132D6080818823ECF78091BB0008954F925F9295
S1132D706F927F928F929F92AF92BF92CF92DF9287
S1132D80EF92FF920F931F93CF93DF93CDB7DEB7EC
S1132D90C459D1090FB6F894DEBF0FBECDBFCD5DC7
S1132DA0DD4F4881C352D240C059DE4F8881C0579D
S1132DB0D140CF58DE4F9881C157D140242F30E005
S1132DC044238CF0215031093901660C771C620EC2
S1132DD0731E7694762C6624779467940F2EF0EA0B
S1132DE05F2EF02D11C0205831093901660C771C73
S1132DF0260D371D39017694762C662477946794D2
S1132E000F2EF8EA5F2EF02DBE0168557F4F8E011C
S1132E100F5F1F4FFE01E055FF4F9801DB014D91FD
S1132E20BD01D9014D939D016E177F07B9F7DE01EE
S1132E3019969E0128543F4F41914D93E217F30791
S1132E40D9F74E01B1E18B0E911C7E01E0ECEE0E40
S1132E50F11CD401F90141919F014D93EE15FF0539
S1132E60C9F79E01275E3F4FBE0160537F4FD701D4
S1132E704D917D01F90141939F01A617B707B9F759
S1132E809E01275D3F4FDE01A052BF4FFB014191E0
S1132E90BF01F90141939F016A177B07B9F79E01AE
S1132EA0275C3F4FBE0160517F4F4D91F901419323
S1132EB09F01A617B707C9F79E01275B3F4FDE01A5
S1132EC0B395FB014191BF01F90141939F016A1739
S1132ED07B07B9F79E01275A3F4FBE01605F7E4FC3
S1132EE04D91F90141939F01A617B707C9F7DE0178
S1132EF0A759BF4F5E01F0EEAF1AFEEFBF0AFB0108
S1132F002191BF012D93EA15FB05C9F7EB969FAFFD
S1132F10EB97EC968FAFEC97CE58DE4F8881C25773
S1132F20D140ED968FAFED97852DC8DE813081F4C9
S1132F3084E1ECE0F2E0DE01AF57BF4F01900D9267
S1132F408A95E1F763E070E0CE018F579F4F2FDA47
S1132F50872DE4DE462C862DE1DE6E01FCE7CF0EE4
S1132F60D11C7801D7018D917D01D8DECE14DF0408
S1132F70C9F7CBDEEFE1FEE43197F1F700C00000C2
S1132F809E01205D3E4FF801D5018D915D01819335
S1132F902A173B07C9F7DE019196F90181919F0138
S1132FA0F40181934F01AE17BF07B9F7CE01805CDE
S1132FB09E4FAE014F5C5F4FFC012191CF012D93D9
S1132FC0A417B507C9F7CE01805B9E4FDE01AF5B46
S1132FD0BF4FFC012191CF01FA012193AF01EA1700
S1132FE0FB07B9F7FE01E05AFE4F9E0120593E4F00
S1132FF081918D932E173F07D9F7AE014D585E4F3F
S1133000CE018F5A9F4FDE01AD57BE4FFA01219179
S1133010AF01FC012193CF01A417B507B9F7CE0185
S11330208F599F4FAE014D565E4F2D91FC01219358
S1133030CF01A417B507C9F7DE01AF58BF4F7E0112
S1133040FDE5EF1AFEEFFF0AFA018191AF018D93BE
S1133050EE16FF06C9F7852D31DE813081F484E157
S1133060E1E2F2E0DE01AF57BF4F01900D928A9585
S1133070E1F763E070E0CE018F579F4F98D9C30109
S113308080589F4F892F4ADE80E8840D47DE6E0109
S1133090F1E8CF0ED11CD8018D918D013FDEC01611
S11330A0D106C9F732DEEFE1FEE43197F1F700C053
S11330B00000852D03DE813081F484E1E6E3F2E053
S11330C0DE01AF57BF4F01900D928A95E1F763E09F
S11330D070E0CE018F579F4F6AD97394872D1EDEFF
S11330E0842D1CDE6E012DEDC21A2DEFD20AD701FC
S11330F01C9111968C91B2E0EB0EF11C0FDE812F26
S11331000DDECE14DF0499F700DEEFE1FEE4319723
S1133110F1F700C00000CC56DF4F0FB6F894DEBFC5
S11331200FBECDBFDF91CF911F910F91FF90EF9014
S1133130DF90CF90BF90AF909F908F907F906F90D3
S11331405F904F9008958F929F92AF92BF92CF92CB
S1133150DF92EF92FF920F931F93CF93DF93CDB73C
S1133160DEB7C459D1400FB6F894DEBF0FBECDBF51
S11331707C01862F90E0662384F001979C01220F46
S1133180331F820F931F9695982F882797958795BD
S1133190082FD92E80EA11EA10C0805891099C01A9
S11331A0220F331F820F931F9695982F8827979588
S11331B08795082FD92E88EA19EA80DD813029F411
S11331C063E070E087E793E0F2D88D2DA7DD802FD0
S11331D0A5DD812F73DD813009F047C184E1EBE483
S11331E0F2E0DE01AF57BE4F01900D928A95E1F7F0
S11331F063E070E0CE018F579E4FD9D836C1A0DD71
S1133200D8018D938D01AC15BD05C9F7A4DDC05857
S1133210DE4F8883C058D14078DD87014E01B9E084
S11332208B0E911CF701D5018D915D018193A81539
S1133230B905C9F7D12CF40181914F01F8018087B8
S11332404D2D60810F5F1F4F13DCD394F8E0DF1224
S1133250F2CF5E0181E1A80EB11C670190E1C90EB5
S1133260D11C10E0D5014D915D01F60141936F0130
S113327060E0812F74DC1F5F1830A1F7FE0179969E
S1133280C7014896AE01475D5F4F2191DC012D9344
S1133290CD01E417F507C9F75701B8E2AB0EB11C2D
S11332A0DE01D996C501FA012191AF01FC012193F8
S11332B0CF014A175B07B9F7C701C896AE01475B50
S11332C05F4F2D91FC012193CF01A417B507C9F7D6
S11332D0C701885B9F4FDE01A75ABF4FFA012191B6
S11332E0AF01FC012193CF014A175B07B9F7C7016E
S11332F0885A9F4FAE0147595F4F2D91FC0121938E
S1133300CF01A417B507C9F7D701A859BF4F9E012C
S113331027583F4FFA018191AF018D93E217F307CC
S1133320C9F7F701E853FF4FEB968FADEB9790E0A9
S1133330982F8827EC962FADEC97822B918380836E
S1133340ED968FADED9732968083AE014F575F4F68
S1133350C70188589F4FFE01EF56FF4FDA012D91A8
S1133360AD01DC012D93CD01E417F507B9F7C701D1
S113337088579F4FAE014F555F4F2191DC012D932C
S1133380CD014E175F07C9F7870108561F4F4E013D
S1133390B1EB8B0E911CF801DA018D91AD01819393
S11333A08A169B06C9F76E01B1ECCB0ED11CF40151
S11333B081914F01F801808BD5012D915D011F96FC
S11333C04C9160810F5F1F4F77DBC814D90479F7E4
S11333D0970128543F4FDE01AF52BF4FF601819150
S11333E06F01F90181939F01CA16DB06B9F7C70182
S11333F085539F4FAE014F515F4F2D91FC01219397
S1133400CF014A175B07C9F7C70185529F4FBE0119
S11334106F507F4FDA012D91AD01FC012193CF0153
S1133420A617B707B9F7C70185519F4FFE01EF5F94
S1133430FE4FDB012D91BD01DC012D93CD01E6177B
S1133440F707B9F7D701A550BF4FAE014F575E4FED
S1133450808190E0982F88272181822B8D939D93E2
S113346032964E175F07A1F70AC0FE0131965F013D
S11334706E01F0E8CF1AFEEFDF0A8501C0CECC560C
S1133480DE4F0FB6F894DEBF0FBECDBFDF91CF91F4
S11334901F910F91FF90EF90DF90CF90BF90AF906E
S11334A09F908F900895CF93DF93EC016C8580E01B
S11334B090E046D240E150E061E070E0CE010D962C
S11334C036D2DF91CF910895CF93DF9361110CC071
S11334D0EC0180E090E023D28C8740E150E061E091
S11334E070E0CE010D960BD2DF91CF910895505824
S11334F0BB27AA270ED04DC13ED130F043D120F0D6
S113350031F49F3F11F41EF433C10EF4E095E7FB50
S113351029C1E92F4FD180F3BA17620773078407D3
S1133520950718F071F49EF567C10EF4E0950B2E23
S1133530BA2FA02D0B01B90190010C01CA01A00101
S11335401124FF27591B99F0593F50F4503E68F15C
S11335501A16F040A22F232F342F4427585FF3CF9D
S1133560469537952795A795F0405395C9F77EF46E
S11335701F16BA0B620B730B840BBAF09150A1F0B7
S1133580FF0FBB1F661F771F881FC2F70EC0BA0F3D
S1133590621F731F841F48F4879577956795B795C5
S11335A0F7959E3F08F0B3CF9395880F08F09927BD
S11335B0EE0F9795879508950CD0EBC0E3D040F0BB
S11335C0DAD030F021F45F3F19F0CCC0511115C1AD
S11335D0CFC0F0D098F39923C9F35523B1F3951BC9
S11335E0550BBB27AA2762177307840738F09F5F20
S11335F05F4F220F331F441FAA1FA9F333D00E2E8F
S11336003AF0E0E830D091505040E695001CCAF7FB
S113361029D0FE2F27D0660F771F881FBB1F2617C0
S113362037074807AB07B0E809F0BB0B802DBF0193
S1133630FF2793585F4F2AF09E3F510568F092C0D0
S1133640DCC05F3FECF3983EDCF386957795679595
S1133650B795F7959F5FC9F7880F911D9695879544
S113366097F90895E1E0660F771F881FBB1F621763
S113367073078407BA0720F0621B730B840BBA0B21
S1133680EE1F88F7E095089504D06894B111B5C091
S1133690089598D088F09F5790F0B92F9927B75183
S11336A0A0F0D1F0660F771F881F991F1AF0BA9502
S11336B0C9F712C0B13081F09FD0B1E008959CC029
S11336C0672F782F8827B85F39F0B93FCCF38695F8
S11336D077956795B395D9F73EF490958095709555
S11336E061957F4F8F4F9F4F0895E89409C097FBD2
S11336F03EF490958095709561957F4F8F4F9F4FC5
S11337009923A9F0F92F96E9BB279395F695879508
S113371077956795B795F111F8CFFAF4BB0F11F4CB
S113372060FF1BC06F5F7F4F8F4F9F4F16C0882372
S113373011F096E911C0772321F09EE8872F762FA8
S113374005C0662371F096E8862F70E060E02AF0E9
S11337509A95660F771F881FDAF7880F96958795D5
S113376097F9089597F99F6780E870E060E00895FD
S11337709FEF80EC089500240A9416161706180685
S11337800906089500240A94121613061406050661
S11337900895092E0394000C11F4882352F0BB0FF2
S11337A040F4BF2B11F460FF04C06F5F7F4F8F4F55
S11337B09F4F089557FD9058440F551F59F05F3F90
S11337C071F04795880F97FB991F61F09F3F79F03F
S11337D087950895121613061406551FF2CF4695C1
S11337E0F1DF08C0161617061806991FF1CF869543
S11337F07105610508940895E894BB276627772727
S1133800CB0197F9089597FB072E16F4009406D080
S113381077FD08D03ED007FC05D03EF49095819505
S11338209F4F0895709561957F4F0895052E97FBDE
S113383016F400940FD057FD05D03FD007FC02D0FA
S113384046F408C050954095309521953F4F4F4F11
S11338505F4F089590958095709561957F4F8F4F38
S11338609F4F0895EE0FFF1F881F8BBF0790F6919F
S1133870E02D1994A29FB001B39FC001A39F700DC6
S1133880811D1124911DB29F700D811D1124911D64
S11338900895AA1BBB1B51E107C0AA1FBB1FA61793
S11338A0B70710F0A61BB70B881F991F5A95A9F7E5
S11338B080959095BC01CD010895A1E21A2EAA1B12
S11338C0BB1BFD010DC0AA1FBB1FEE1FFF1FA217CC
S11338D0B307E407F50720F0A21BB30BE40BF50BC9
S11338E0661F771F881F991F1A9469F76095709552
S11338F0809590959B01AC01BD01CF010895DC0139
S1133900CB01FC01F999FECF06C0F2BDE1BDF89AE6
S1133910319600B40D9241505040B8F70895F9998A
S1133920FECF92BD81BDF89A992780B50895DC0138
S1133930CB0102C02D9105D041505040D8F70895D5
S1133940262FF999FECF1FBA92BD81BD20BD0FB6B7
S1133950F894FA9AF99A0FBE01960895F894FFCF55
S1133960FFFFD7A3484047FF80A0C0E041646472D2
S1133970657373205772697465204572726F723172
S113398000416464726573732057726974652045DD
S113399072726F723200416464726573732057727D
S11339A0697465204572726F723300416464726594
S11339B073732052656164204572726F7232200005
S11339C0506572666F726D616E6365204D6F6465DC
S11339D0005061747465726E3A0042504D3A00535F
S11339E0746F700053657175656E63652045646915
S11339F0740053746570733A0053746570206E7567
S1133A006D6265723A00547261636B20536574741D
S1133A10696E677300547261636B3A00506C61792C
S1133A204D6F64653A004F7574526F7574653A0052
S1133A30456E76656C6F70654D6F64653A005375BD
S1133A40737461696E54696D653A20004D696469E7
S1133A50204368616E6E656C3A004D696469207438
S1133A607269672020203A00476C6F62616C2053B2
S1133A70657474696E6773004F7574566F6C756DF9
S1133A80652078203A2078787864620050697463FD
S1133A9068203A207878780041747461636B5469C3
S1133AA06D6520203A20787878204D530052656C5B
S1133AB06561736554696D6578783A787878784D7E
S1133AC05300547261636B566F6C756D6520787822
S1133AD03A78787864620041646472657373205242
S10F3AE0656164204572726F7231200031
S9030000FC
