:1000000071C000008FC000008DC000008BC00000D8
:1000100089C0000087C0000085C0000083C00000C8
:1000200081C000007FC000007DC000007BC00000D8
:1000300079C0000077C0000075C0000073C00000E8
:1000400071C000006FC000006DC000006BC00000F8
:1000500069C0000067C0000065C0000064C0000007
:1000600061C000005FC000005DC000000C94860D00
:1000700059C0000057C0000055C0000053C0000028
:1000800051C000004FC000004DC000004BC0000038
:100090000C94C20D47C0000045C0000043C00000E2
:1000A00041C000003FC000003DC000003BC0000058
:1000B00039C0000037C0000035C0000033C0000068
:1000C00031C000002FC000002DC000002BC0000078
:1000D00029C0000027C0000025C0000023C0000088
:1000E00021C0000011241FBECFEFD1E2DEBFCDBF83
:1000F00000E00CBF13E0A0E0B2E0E8E2F1E200E0D3
:100100000BBF02C007900D92A433B107D9F727E0C7
:10011000A4E3B3E001C01D92A535B207E1F72BD6E9
:100120000C9492106DCF1F920F920FB60F92112464
:100130002F933F938F939F9383B1209134038095A6
:10014000382F3227909101029323892F8095809335
:100150000102909100029323982790930002832339
:100160008923922F98279093340320915406892352
:10017000822B809354069F918F913F912F910F90E6
:100180000FBE0F901F9018958FEF82B980930B01CF
:100190008FE785B908952F923F924F925F926F92A9
:1001A0007F928F929F92AF92BF92CF92DF92EF9207
:1001B000FF920F931F93CF93DF9300910901009556
:1001C0000093A90480B110E0102F00278095082B20
:1001D000109378050093770580913503909136034D
:1001E0000817190709F4D6C0109336030093350396
:1001F0000F2EF6E6CF2EF3E0DF2EF02D0F2EF6EDCC
:10020000EF2EF3E0FF2EF02DC0E0D0E00F2EFBE745
:100210008F2EF5E09F2EF02D0F2EF0E53F2EF02DC6
:100220000F2EFFE65F2EF02D0F2EFCE64F2EF02D49
:100230000F2EF9E72F2EF02D802F81708093CF05A0
:10024000882309F49AC080914D03813099F030F0F1
:10025000823011F1833009F475C08FC0F6014081FE
:1002600050E0F701608970E080A19A0190E00E945F
:10027000410E83C0E0915306F0E0EE0FFF1FEA5EEF
:10028000FB4F2081318180917705909178058227FD
:1002900093279183808371C03701F701A088B12C27
:1002A000BA2CAA2480A1A82AC093FE059E012F5F24
:1002B0003F4F42E067E08FE895E00E94D50B950143
:1002C00044E06AE08FE895E00E94D50B61E070E0C1
:1002D0008FE895E00E94BD0BF7018081882319F01B
:1002E000813039F00CC0F40132AA53AA44AA25AADD
:1002F00006C083E5F40182AB53AA44AA55AA62E082
:1003000070E083EA95E00E94BD0BF601208130E0A9
:100310002F5F3F4F42E06AE087EB95E00E94D50BEC
:1003200063E070E087EB95E00E94BD0BF601408131
:1003300050E0F301608970E080A19A0190E00E9492
:10034000410E1BC0F701E054FF4FA080B12CC093B9
:10035000FE059E0142E06BE087E296E00E94D50B2D
:10036000950142E06EE087E296E00E94D50B62E0E4
:1003700070E087E296E00E94BD0B169507952196E6
:10038000FFEFCF1ADF0A8FEFE81AF80AC031D10564
:1003900009F052CFDF91CF911F910F91FF90EF9015
:1003A000DF90CF90BF90AF909F908F907F906F9095
:1003B0005F904F903F902F90089580E211D0882356
:1003C00029F08091CB0580958093CB0580E408D0FF
:1003D000882329F08091CC0580958093CC050895E1
:1003E0002FB7F8949091540689239091540698273A
:1003F000909354062FBF089588E7809302010895D3
:10040000DC0190913C03990F990F90933C038091EC
:10041000000186FD03C0926090933C03809100012F
:1004200085FD05C080913C03816080933C039091E1
:100430003C039F7090933C03E92FF0E0E659FD4F99
:1004400080818823E9F02091390330913A03229585
:100450003295307F3227207F3227292B30933A0381
:100460002093390333272B32310521F48C918150AD
:100470008C9308952731310519F48C918F5F8C93FB
:100480000895DC0190913B03990F990F90933B03E2
:100490008091000184FD03C0926090933B038091A2
:1004A000000183FD05C080913B03816080933B0385
:1004B00090913B039F7090933B03E92FF0E0E65946
:1004C000FD4F80818823E9F0209137033091380374
:1004D00022953295307F3227207F3227292B309387
:1004E00038032093370333272B32310521F48C91C5
:1004F00081508C9308952731310519F48C918F5FC9
:100500008C9308958DE493E07BDF82E596E0B9CF8C
:100510000895EF92FF920F931F93CF93DF938C0177
:100520007A0194E1592F561B6623A1F0F90184E169
:100530008E9DD0018F9DB00D1124A00FB11FCFEF64
:10054000C60FD0E021962C0F3D1F91919D93E2178D
:10055000F307D9F7552391F024E12E9DC0012F9D7B
:10056000900D1124080F191F952F960F80E2F801A6
:10057000E60FF11D80836F5F6913F9CFDF91CF9193
:100580001F910F91FF90EF900895E6EFF3E080E068
:100590008F5F81938031E1F780E38093960481E35C
:1005A0008093970482E38093980483E38093990473
:1005B00084E380939A0485E380939B0486E380938D
:1005C0009C0487E380939D0488E380939E0489E3E1
:1005D00080939F048AE38093A0048BE38093A1041B
:1005E0008CE38093A2048DE38093A3048EE3809335
:1005F000A4048FE38093A50488E790E09093A70478
:100600008093A60481E08093FD051092530680E15B
:100610008093A8042AE732E041E050E068E087E2F6
:1006200095E077DF23E832E042E050E064E087E2E3
:1006300095E06FDF28E832E043E050E064E087E2D5
:1006400095E067DF2DE832E040E050E060E187E2CE
:1006500095E05FDF2AE732E041E050E068E08BEAB6
:1006600094E057DF2EE932E042E050E066E08BEAAA
:1006700094E04FDF25EA32E043E050E06CE08BEAA3
:1006800094E047DF22EB32E040E050E06DE08BEA9F
:1006900094E03FDF20EC32E041E050E066E08BE7A1
:1006A00095E037DF27EC32E042E050E069E08BE78D
:1006B00095E02FDF21ED32E043E050E069E08BE789
:1006C00095E027DF2BED32E040E050E06EE08BE775
:1006D00095E01FDF2AEE32E041E050E06DE08FEF61
:1006E00095E017DF28EF32E042E050E062E18FEF63
:1006F00095E00FDF2EE033E043E050E064E18FEF60
:1007000095E007DF24E233E040E050E06FE08FEF58
:1007100095E0FFCE0895EAE7F0E080818064808371
:10072000808186FDFDCF80917900089588E38DB9A1
:1007300080E280937C0087E880937A0088E0809351
:100740007B008FEF80937E0080937D001092D00518
:10075000E2CF0895CF93982F969596952FE2929F8A
:10076000912D112496952CE2929F80191124982F97
:10077000883218F588E080937B00C92FC770969562
:1007800096959695906290937C00C5DFC33059F0A2
:1007900018F4C13031F00CC0C43039F0C63039F033
:1007A00007C0C4E005C0C6E003C0C1E001C0C3E0AB
:1007B000CC0FCC0FCC0FCEB920C0893271F018F419
:1007C000883231F01AC08A3269F08B3281F015C05C
:1007D00085E280937C009FDF10C086E280937C00DE
:1007E0009ADF0BC087E280937C0095DF06C080E231
:1007F00080937C0010927B008EDFCF910895CF9381
:10080000C82F89DFEC2FF0E0E550FB4F8083CF91BC
:100810000895EF92FF920F931F93CF93982F969581
:1008200096952FE2929F912D112496952CE2929FFE
:1008300080191124982FA82FB0E0FD01EF52FA4F34
:100840006081FD01E550FB4FE081F0E0E61BF1091E
:10085000AF0112F44F5F5F4F55954795460FAF526A
:10086000BA4F4C93983208F01AC2C92FC7709695A8
:1008700096959695923009F4DAC030F4992359F0A0
:10088000913009F496C02AC2933009F455C19430CE
:1008900009F46FC123C20C2F10E0642F70E080E0D8
:1008A00090E00E94D00F20E030E04CE450E40E9441
:1008B000350F20E030E04CE852E40E94D00E0E9458
:1008C0009D0F862F972F9C01F801E25BFC4F8081E2
:1008D00090E0982F88274085842B8217930709F48E
:1008E000FDC1F801E25BFC4F6087332364F1F8013E
:1008F000E25BFC4F1082EEE3F2E080E386872DECB2
:10090000629F812D1124869586958695880F982F54
:10091000990F990F890F962F981B892F805D808BD7
:1009200089E2689F812D112482958F7094E6899FBA
:1009300060191124629F612D112466956695669554
:10094000605D678723C08FEFF801E25BFC4F808317
:10095000EEE3F2E08DE286876095262F30E02F5F90
:100960003F4FC90164E670E00E945C100F2EFAE070
:10097000EF2EF12CF02DB7010E945C10605D6787AF
:10098000C901B7010E945C10805D808BCF5CC09371
:10099000480263E070E08EE392E0EFD6F801E25B9C
:1009A000FC4F608170E08085A80190E00E94660E97
:1009B00095C10C2F10E060E8640FF801E25BFC4F7A
:1009C0008089861709F48AC1F801E25BFC4F608BCD
:1009D00080914D03811120C0CF5CC09357026623E4
:1009E00064F48DE280935902262F209530E043E095
:1009F00068E082E592E0D9D60AC08BE28093590282
:100A0000262F30E043E068E082E592E0CED663E056
:100A100070E082E592E0B1D6F801E25BFC4F4089DC
:100A200050E060E070E0C8010E94AD0E57C10C2F8D
:100A300010E0642F70E080E090E00E94D00F20E092
:100A400030E04CE450E40E94350F20E030E04CE808
:100A500052E40E94D00E0E949D0F862F972F9C017A
:100A6000A801425B5C4FFA01E85BFF4F808190E098
:100A7000982F882770964081842B8217930709F45A
:100A80002DC1F801EA55FC4F6083332364F1F8016E
:100A9000EA56FC4F1082E6E1F2E080E387872DEC16
:100AA000629F812D1124869586958695880F982FB3
:100AB000990F990F890F962F981B892F805D818B35
:100AC00089E2689F812D112482958F7094E6899F19
:100AD00060191124629F612D1124669566956695B3
:100AE000605D608B20C0F801EA56FC4F8FEF808379
:100AF000E6E1F2E08DE287876095262F30E02F5FF8
:100B00003F4FC90164E670E00E945C100AE010E00B
:100B1000B8010E945C10605D608BC901B8010E9441
:100B20005C10805D818BCF5CC093230263E070E03A
:100B300086E192E022D6D2C08C2F90E0FC01EA54EC
:100B4000FC4F2081421709F4C9C0FC01EA54FC4F54
:100B50004083242F30E044E06EE082E092E025D62E
:100B6000CF5CC0930E0263E070E082E092E005D6B5
:100B7000B5C00C2F10E0642F70E080E090E00E9480
:100B8000D00F20E030E04CE450E40E94350F20E02C
:100B900030E04CE852E40E94D00E0E949D0F862F58
:100BA000972F9C01F801E25BFC4F80A590E0982F05
:100BB000882740AD842B8217930709F48FC0F80172
:100BC000E25BFC4F60AF332364F1F801E25BFC4F62
:100BD00010A6EAE2F2E080E387872DEC629F812D88
:100BE0001124869586958695880F982F990F990FD1
:100BF000890F962F981B892F805D818B89E2689FD2
:100C0000812D112482958F7094E6899F601911249B
:100C1000629F612D1124669566956695605D608B77
:100C200023C08FEFF801E25BFC4F80A7EAE2F2E01D
:100C30008DE287876095262F30E02F5F3F4FC901F7
:100C400064E670E00E945C100F2EFAE0EF2EF12CAB
:100C5000F02DB7010E945C10605D608BC901B70187
:100C60000E945C10805D818BCF5CC093350263E095
:100C700070E08AE292E081D5F801E25BFC4F20A5AA
:100C800030E040AD50E0DF01A856BF4F6C9170E0FE
:100C9000E855FF4F808190E00E94890E1FC09A3274
:100CA000E9F4242F30E0225E3F4F8091A60490911A
:100CB000A7048217930791F03093A7042093A6040A
:100CC00080914D0381110AC043E065E08FE495E017
:100CD0006CD562E070E08FE495E04FD5CF911F9125
:100CE0000F91FF90EF900895CF93C0E08C2F32DDED
:100CF0008C2F85DD8C2F8DDDCF5FCC32B9F7CF9176
:100D0000089585E283BB08959C01A29891E1A09A81
:100D1000332314F4A59A01C0A598A098220F331F7D
:100D20009150A9F7A29A089580914D03813061F006
:100D300028F08230A1F08330C1F0089580917705CA
:100D400090917805E1CF0895E0915306F0E0EE0F21
:100D5000FF1FEA5EFB4F80819181D6CF089580917D
:100D6000770590917805D0CF08958091770590917F
:100D70007805CACF08951092790507DCA1D404DA6A
:100D8000C0DF3ADB15D0D2DC51D784E085BD81E0ED
:100D900080936E007894FFD912D40FDB10D4C4DF97
:100DA0000ED4B0DB0CD4A0DF0AD442D008D4F3CFE9
:100DB0000F931F93CF93DF93C6EAD4E02881398144
:100DC00043E065E08FE495E0F0D42091790530E0D0
:100DD0002F5F3F4F42E06EE083E196E0E6D4209142
:100DE000FD0530E043E069E08BE395E0DED420913F
:100DF000FD0530E043E069E08FEB94E0D6D4288134
:100E0000398143E065E08FE495E0CFD407E215E057
:100E1000C0E0D0E0BE01C801B0D421960C5E1F4FE7
:100E2000C430D105B9F7DF91CF911F910F9108958B
:100E30000F931F93CF93DF939091CD05809152062E
:100E4000981709F445C3837080935206891B9091CB
:100E50004D03923009F415C1933009F457C2913013
:100E600009F032C39091CC05992309F49EC090916A
:100E70007A05923051F1933009F45AC0913009F05B
:100E800023C3813089F42091FD052F5F2093FD0558
:100E900030E043E069E08FEB94E087D461E070E0FC
:100EA0008FEB94E06AD410C32091FD05215020936C
:100EB000FD0530E043E069E08FEB94E076D461E03B
:100EC00070E08FEB94E059D4FFC28130C9F4809177
:100ED000A8048F5F813418F48093A80403C080E4D1
:100EE0008093A8042091A80430E042E066E083EDFE
:100EF00094E05BD462E070E083ED94E03ED4E4C221
:100F00008091A804815019F08093A80403C081E067
:100F10008093A8042091A80430E042E066E083EDCD
:100F200094E043D462E070E083ED94E026D4CCC238
:100F3000813011F5809153068F5F80935306409165
:100F4000A80490E0242F30E02150310928173907F8
:100F50001CF44150409353062091530630E02F5F1C
:100F60003F4F42E06DE087EE94E01FD463E070E015
:100F700087EE94E002D4A8C280915306815018F005
:100F80008093530602C0109253062091530630E01E
:100F90002F5F3F4F42E06DE087EE94E006D463E0C0
:100FA00070E087EE94E0E9D38FC28130A1F58091A3
:100FB0007A058F5F843018F480937A0503C083E04C
:100FC00080937A0560917A0570E0C4E1C69FC00104
:100FD000C79F900D112485559B4F2CE3FC01238B5B
:100FE0009B0121503109C29FF001C39FF00D1124D4
:100FF000E555FB4F20E2238BC0D360917A0570E06A
:1010000061507109C69FC001C79F900D112485557D
:101010009B4FB3D359C280917A059EEF980F9A3FA8
:1010200020F4815080937A0503C081E080937A0593
:1010300060917A0570E0C4E1C69FC001C79F900D22
:10104000112485559B4F2CE3FC01238B9B012F5FC3
:101050003F4FC29FF001C39FF00D1124E555FB4F98
:1010600020E2238B8AD360917A0570E06F5F7F4F17
:10107000C69FC001C79F900D112485559B4F7DD3FE
:1010800023C29091CC05992309F4D4C09091CE0548
:10109000923009F44EC0933009F480C0913009F0C9
:1010A00013C2813019F52091FE0530E0C901825B41
:1010B0009C4FFC01E855FF4FC081CF5FC083709704
:1010C0008081D0E0D82B2F5F3F4F42E067E08FE870
:1010D00095E06BD39E0144E06AE08FE895E065D32C
:1010E00061E070E08FE895E048D3EEC12091FE0505
:1010F00030E0C901825B9C4FFC01E855FF4FC08185
:10110000C150C08370978081D0E0D82B2F5F3F4FB4
:1011100042E067E08FE895E048D39E0144E06AE052
:101120008FE895E042D361E070E08FE895E025D349
:10113000CBC18130D1F48091FE0590E0FC01EA52F0
:10114000FC4F20812F5F273028F4FC01EA52FC4F2E
:10115000208305C0FC01EA52FC4F26E0208362E0B8
:1011600070E083EA95E009D3AFC18091FE0590E07D
:10117000FC01EA52FC4F20812F5F2F3F29F0FC0138
:10118000EA52FC4F208304C0FC01EA52FC4F10825B
:1011900062E070E083EA95E0F0D296C1813031F5EB
:1011A0008091FE0590E0FC01E25BFC4F208D2F5FFB
:1011B000283028F4FC01E25BFC4F208F05C027E0BB
:1011C000FC01E25BFC4F208FFC01E25BFC4F208DB9
:1011D00030E02F5F3F4F42E06AE087EB95E0E5D2D9
:1011E00063E070E087EB95E0C8D26EC18091FE05A8
:1011F00090E0FC01E25BFC4F208D215028F0FC01C7
:10120000E25BFC4F208F04C0FC01E25BFC4F108EC0
:10121000FC01E25BFC4F208D30E02F5F3F4F42E04E
:101220006AE087EB95E0C1D263E070E087EB95E080
:10123000A4D24AC18130A1F58091CE058F5F843060
:1012400018F48093CE0503C083E08093CE056091AF
:10125000CE0570E0C4E1C69FC001C79F900D112468
:1012600085589A4F2CE3FC01238B9B0121503109B7
:10127000C29FF001C39FF00D1124E558FA4F20E200
:10128000238B7BD26091CE0570E061507109C69FBF
:10129000C001C79F900D112485589A4F6ED214C17A
:1012A0008091CE059EEF980F9A3F20F48150809355
:1012B000CE0503C081E08093CE056091CE0570E03D
:1012C000C4E1C69FC001C79F900D112485589A4F55
:1012D0002CE3FC01238B9B012F5F3F4FC29FF0014A
:1012E000C39FF00D1124E558FA4F20E2238B45D21D
:1012F0006091CE0570E06F5F7F4FC69FC001C79FB2
:10130000900D112485589A4F38D2DEC0813009F0F3
:101310006EC08091CC058823B1F180914F06813059
:1013200019F08230E1F0D0C0809179058F5F803173
:1013300018F48093790503C08FE08093790520919C
:10134000790530E02F5F3F4F42E06EE083E196E0A9
:101350002CD261E070E083E196E00FD2B5C0E0915D
:10136000FE05F0E0EA56FB4F20812F5F208330E03E
:1013700042E06EE087E296E018D262E070E087E239
:1013800096E0FBD1A1C080914F068F5F833018F4A7
:1013900080934F0603C082E080934F0660914F0612
:1013A00070E0C4E1C69FC001C79F900D1124815019
:1013B0009A4F2CE3FC01238B9B0121503109C29FE2
:1013C000F001C39FF00D1124E150FA4F20E2238B6E
:1013D000D4D160914F0670E061507109C69FC00181
:1013E000C79F900D112481509A4FC7D16DC0809135
:1013F000CC058823A1F180914F06813019F082300D
:10140000D1F062C080917905815018F08093790500
:1014100002C0109279052091790530E02F5F3F4F8F
:1014200042E06EE083E196E0C0D161E070E083E1EC
:1014300096E0A3D149C0E091FE05F0E0EA56FB4FEB
:1014400020812150208330E042E06EE087E296E088
:10145000ACD162E070E087E296E08FD135C0809138
:101460004F069EEF980F9A3F20F4815080934F06CD
:1014700003C081E080934F0660914F0670E0C4E1A5
:10148000C69FC001C79F900D112481509A4F2CE335
:10149000FC01238B9B012F5F3F4FC29FF001C39F35
:1014A000F00D1124E150FA4F20E2238B66D16091B8
:1014B0004F0670E06F5F7F4FC69FC001C79F900DC2
:1014C000112481509A4F59D1809152068093CD05B5
:1014D00080914D039091AA04981709F46BC0837012
:1014E00080934D03813009F138F0823009F43FC018
:1014F000833009F44CC05AC02091A6043091A7044F
:1015000043E065E08FE495E050D107E215E0C0E0EC
:10151000D0E0BE01C80131D121960C5E1F4FC4300E
:10152000D105B9F71092510641C02091A80430E0CE
:1015300042E066E083ED94E038D12091530630E03C
:101540002F5F3F4F42E06DE087EE94E02ED10BEA33
:1015500014E0C0E0D0E0BE01C8010FD121960C5EBE
:101560001F4FC430D105B9F710927A051FC00BE7A1
:1015700015E0C0E0D0E0BE01C801FFD021960C5EAE
:101580001F4FC430D105B9F71092CE050FC00FEF31
:1015900015E0C0E0D0E0BE01C801EFD021960C5E9E
:1015A0001F4FC430D105B9F710924F0680914D03FB
:1015B0008093AA04DF91CF911F910F91089580919C
:1015C0007905982F906990934303982F906B90938F
:1015D0004203982F906C909341038068809340035E
:1015E0003BD38093440390913F03913089F018F0EE
:1015F0009230C9F0089590914303891303C091E09C
:1016000090933E0390914003891302C010923E03D1
:10161000882334F080933D0382E080933F03089554
:1016200010923F03089588235CF180913E03882344
:1016300039F130913D0380919604831741F0E7E939
:10164000F4E081E090E02191231316C002C080E015
:1016500090E0DC01A25BBC4FFD01E857FF4F208109
:1016600030E058964C9150E07096608170E0709632
:10167000808190E006D304C001968F30910519F760
:1016800010923F030895E5E0F1E08081826080835D
:1016900085E08A95F1F7000080818D7F8083089531
:1016A000E5E0F1E090819E7F908388B9ECCF0895CA
:1016B000E5E0F1E090819160908388B9E4CF0895EE
:1016C00083E0809304018FEF87B9E5E0F1E080814A
:1016D0008C7F808318B88FE193E00197F1F700C009
:1016E00000008AE2DDDF81E7DBDF8CE5E1DF88E215
:1016F000D7DF88E0D5DF8AE2D3DF89E7D1DF85ED68
:10170000CFDF80E7CDDF88E7CBDF89E0C9DF86E088
:10171000C7DF82E7C5DF8AE0CBDF89E7C1DF8AED7B
:10172000BFDF80E1BDDF8CEDBBDF80E0B9DF81E8AA
:10173000B7DF8FE7B5DF89EDB3DF81EFB1DF8BED89
:10174000AFDF80E4ADDF88E7ABDF88E2A9DF81E0CF
:10175000A7DF8FE39FE10197F1F700C0000080E869
:101760009FDF8CE09DDF9FEF24E38CE091502040D1
:101770008040E1F700C0000008950F931F93CF93BE
:10178000DF938C01FB01FF27EA59FD4F808188DF41
:10179000E8010C5E1F4F89918BDFC017D107D9F785
:1017A000DF91CF911F910F910895CF93DF93F901AE
:1017B000433009F451C028F4413051F0423021F156
:1017C000A2C1443009F48EC0453009F4FDC09BC16C
:1017D000EC01C60FD11DADECBCEC81D4969587957C
:1017E00096958795969587959C01220F331F880FB4
:1017F000991F880F991F880F991F820F931FE81B4D
:10180000F90BE05DE8837FC1EC01C60FD11DADECA3
:10181000BCEC65D496958795969587959695879512
:101820009C01220F331F880F991F880F991F880F63
:10183000991F820F931F9F01281B390BC901805DDF
:1018400089839F014CD49695879596958795969513
:101850008795805D888357C1EC01C60FD11DADEC23
:10186000BCEC3DD4969587959695879596958795EA
:101870009C01220F331F880F991F880F991F880F13
:10188000991F820F931F9F01281B390BC901805D8F
:101890008A83AF0156954795569547959A01ABE7D0
:1018A000B4E11DD49695879564E6689F9001699F81
:1018B000300D1124CF01821B930B9C01ADECBCECCD
:1018C0000ED4969587959695879596958795805D84
:1018D00089839A01ABE7B4E102D496958795805D40
:1018E000888311C1EC01C60FD11DADECBCECF7D360
:1018F0009695879596958795969587959C01220F45
:10190000331F880F991F880F991F880F991F820F07
:10191000931F9F01281B390BC901805D8B839F0199
:101920003695279536952795ABE7B4E1D8D39695AC
:10193000879544E6489F9001499F300D1124CF01BF
:10194000821B930B9C01ADECBCECC9D3969587959B
:101950009695879596958795805D8A83AF01569574
:10196000479556954795569547959A01A5ECB0E24F
:10197000B6D3929582958F7089279F70892768EEDC
:1019800073E0869F9001879F300D969F300D112444
:10199000CF01821B930B9C01369527953695279591
:1019A000ABE7B4E19CD396958795805D89839A01D6
:1019B000A5ECB0E294D3929582958F7089279F70A1
:1019C0008927805D88839FC0EC01C60FD11DADECD7
:1019D000BCEC85D396958795969587959695879532
:1019E0009C01220F331F880F991F880F991F880FA2
:1019F000991F820F931F9F01281B390BC901805D1E
:101A00008C839F013695279536952795ABE7B4E1F2
:101A100066D39695879544E6489F9001499F300D7F
:101A20001124CF01821B930B9C01ADECBCEC57D36E
:101A3000969587959695879596958795805D8B83E6
:101A40009F01369527953695279536952795A5ECD0
:101A5000B0E245D3929582958F7089279F70892730
:101A600048EE53E0849F9001859F300D949F300D88
:101A70001124CF01821B930B9C0136952795369537
:101A80002795ABE7B4E12BD396958795805D8A8344
:101A9000AF01529542954F7045275F7045279A01D7
:101AA000A7E4B3E01CD39695879596958795969570
:101AB000879560E177E2869F9001879F300D969F22
:101AC000300D1124CF01821B930B9C013695279575
:101AD0003695279536952795A5ECB0E200D39295DB
:101AE00082958F7089279F708927805D89839A01ED
:101AF000A7E4B3E0F4D29695879596958795969549
:101B00008795805D8883DF91CF9108951F920F9212
:101B10000FB60F9211240BB60F922F933F938F9312
:101B20009F93EF93FF9380914B0390914C032091EF
:101B3000490330914A0382179307B9F0FC01EB5A2D
:101B4000F94F80818093C60080914B0390914C03A4
:101B50000196803891052CF490934C0380934B03AD
:101B600004C010924C0310924B03FF91EF919F9190
:101B70008F913F912F910F900BBE0F900FBE0F9042
:101B80001F9018951F920F920FB60F9211240BB64B
:101B90000F928F939F93EF93FF93809147039091C0
:101BA000CE00E82FF0E0EB52F94F90838F5F1AF0F0
:101BB0008093470302C010924703FF91EF919F91DA
:101BC0008F910F900BBE0F900FBE0F901F90189526
:101BD0002091490330914A03F901EB5AF94F808370
:101BE0002F5F3F4F203831052CF430934A03209368
:101BF0004903089510924A031092490308950F93E0
:101C00001F93CF93DF93EC018C01065F1F4F8991E7
:101C1000DFDFC017D107D9F78091C00085FD109292
:101C2000C600DF91CF911F910F9108951092C500CA
:101C300080E18093C4001092CD008FE18093CC00AE
:101C400088E48093C10086E08093C20090E990937D
:101C5000C9008093CA00089590914803809147037A
:101C6000981769F0E92FF0E0EB52F94F80819F5F00
:101C70001AF090934803089510924803089580E065
:101C80000895CF93DF93CDB7DEB72A970FB6F894B8
:101C9000DEBF0FBECDBF90EF99839AEA9A839AE098
:101CA0009B8393E09C832D838E836F834887198663
:101CB00085E58A87CE010196A2DF2A960FB6F894B1
:101CC000DEBF0FBECDBFDF91CF910895CF93DF93DD
:101CD000CDB7DEB728970FB6F894DEBF0FBECDBFE5
:101CE00090EF99839AEA9A8398E09B8395E09C838E
:101CF0004D838E836F8385E58887CE0101967FDFD4
:101D000028960FB6F894DEBF0FBECDBFDF91CF91FE
:101D10000895CF93DF93CDB7DEB729970FB6F89428
:101D2000DEBF0FBECDBF90EF99839AEA9A8399E008
:101D30009B8398E09C838D836E834F83288785E502
:101D40008987CE0101965BDF29960FB6F894DEBF36
:101D50000FBECDBFDF91CF910895CF93DF93CDB765
:101D6000DEB728970FB6F894DEBF0FBECDBF90EF59
:101D700099839AEA9A8398E09B839CE09C838D8365
:101D80006E834F8385E58887CE01019638DF2896DC
:101D90000FB6F894DEBF0FBECDBFDF91CF9108958F
:101DA0005058BB27AA270ED04DC13ED130F043D1A9
:101DB00020F031F49F3F11F41EF433C10EF4E0958E
:101DC000E7FB29C1E92F4FD180F3BA1762077307E8
:101DD0008407950718F071F49EF567C10EF4E0953D
:101DE0000B2EBA2FA02D0B01B90190010C01CA01D5
:101DF000A0011124FF27591B99F0593F50F4503E80
:101E000068F11A16F040A22F232F342F4427585F71
:101E1000F3CF469537952795A795F0405395C9F789
:101E20007EF41F16BA0B620B730B840BBAF0915041
:101E3000A1F0FF0FBB1F661F771F881FC2F70EC0E0
:101E4000BA0F621F731F841F48F4879577956795B3
:101E5000B795F7959E3F08F0B3CF9395880F08F09C
:101E60009927EE0F9795879508950CD0EBC0E3D096
:101E700040F0DAD030F021F45F3F19F0CCC05111BE
:101E800015C1CFC0F0D098F39923C9F35523B1F30E
:101E9000951B550BBB27AA2762177307840738F0D9
:101EA0009F5F5F4F220F331F441FAA1FA9F333D038
:101EB0000E2E3AF0E0E830D091505040E695001CEC
:101EC000CAF729D0FE2F27D0660F771F881FBB1FA8
:101ED000261737074807AB07B0E809F0BB0B802D82
:101EE000BF01FF2793585F4F2AF09E3F510568F0CE
:101EF00092C0DCC05F3FECF3983EDCF386957795AB
:101F00006795B795F7959F5FC9F7880F911D9695CF
:101F1000879597F90895E1E0660F771F881FBB1F2B
:101F2000621773078407BA0720F0621B730B840BD8
:101F3000BA0BEE1F88F7E095089504D06894B111AC
:101F4000B5C0089598D088F09F5790F0B92F992781
:101F5000B751A0F0D1F0660F771F881F991F1AF0B4
:101F6000BA95C9F712C0B13081F09FD0B1E00895A1
:101F70009CC0672F782F8827B85F39F0B93FCCF322
:101F8000869577956795B395D9F73EF490958095AA
:101F9000709561957F4F8F4F9F4F0895E89409C0CA
:101FA00097FB3EF490958095709561957F4F8F4F8C
:101FB0009F4F9923A9F0F92F96E9BB279395F695A2
:101FC000879577956795B795F111F8CFFAF4BB0F20
:101FD00011F460FF1BC06F5F7F4F8F4F9F4F16C084
:101FE000882311F096E911C0772321F09EE8872F0E
:101FF000762F05C0662371F096E8862F70E060E0CA
:102000002AF09A95660F771F881FDAF7880F969542
:10201000879597F9089597F99F6780E870E060E0E9
:1020200008959FEF80EC089500240A941616170671
:1020300018060906089500240A94121613061406B9
:1020400005060895092E0394000C11F4882352F01C
:10205000BB0F40F4BF2B11F460FF04C06F5F7F4FD4
:102060008F4F9F4F089557FD9058440F551F59F0BB
:102070005F3F71F04795880F97FB991F61F09F3F75
:1020800079F087950895121613061406551FF2CF9E
:102090004695F1DF08C0161617061806991FF1CFEE
:1020A00086957105610508940895E894BB27662715
:1020B0007727CB0197F9089597FB072E16F4009424
:1020C00006D077FD08D01AD007FC05D03EF49095D5
:1020D00081959F4F0895709561957F4F0895A29FB8
:1020E000B001B39FC001A39F700D811D1124911DEC
:1020F000B29F700D811D1124911D0895AA1BBB1B59
:1021000051E107C0AA1FBB1FA617B70710F0A61BF7
:10211000B70B881F991F5A95A9F780959095BC0118
:08212000CD010895F894FFCFF2
:10212800FFFF456E76656C6F706554696D65783A2A
:10213800787878784D53456E76656C6F7065476131
:10214800696E78783A7878786462547261636B560D
:102158006F6C756D6578203D2078787864624F756E
:1021680074566F6C756D652078203D20787878649A
:1021780062205069746368203D2078787820202098
:1021880020202020202080A0C0E0000101000100C4
:1021980000010100000100010100506174746572C2
:1021A8006E3A0042504D3A0053746F700050657299
:1021B800666F726D616E6365204D6F646500537460
:1021C8006570733A0053746570206E756D62657240
:1021D8003A0053657175656E6365204564697400DE
:1021E800547261636B3A00506C61794D6F64653A63
:1021F800004F7574526F7574653A00547261636B61
:102208002053657474696E6773004D69646920436F
:1022180068616E6E656C3A004D6964692074726914
:10222800673A202020202020202020202000202065
:102238002020202020202020202020202020202096
:1022480020202000476C6F62616C205365747469AC
:042258006E6773003A
:00000001FF
