S01800005473756E616D694353314D61737465722E73726563F8
S113000071C000008FC000008DC000008BC00000D4
S113001089C0000087C0000085C0000083C00000C4
S113002081C000007FC000007DC000007BC00000D4
S113003079C0000077C0000075C0000073C00000E4
S113004071C000006FC000006DC000006BC00000F4
S113005069C0000067C0000065C0000064C0000003
S113006061C000005FC000005DC000000C94A80DDA
S113007059C0000057C0000055C0000053C0000024
S113008051C000004FC000004DC000004BC0000034
S11300900C94E40D47C0000045C0000043C00000BC
S11300A041C000003FC000003DC000003BC0000054
S11300B039C0000037C0000035C0000033C0000064
S11300C031C000002FC000002DC000002BC0000074
S11300D029C0000027C0000025C0000023C0000084
S11300E021C0000011241FBECFEFD1E2DEBFCDBF7F
S11300F000E00CBF13E0A0E0B2E0ECE6F1E200E0C7
S11301000BBF02C007900D92A037B107D9F727E0C3
S1130110A0E7B3E001C01D92AE38B207E1F72BD6D9
S11301200C94B4106DCF1F920F920FB60F9211243E
S11301302F933F938F939F9383B120917003809566
S1130140382F3227909101029323892F8095809331
S11301500102909100029323982790930002832335
S11301608923922F98279093700320918D068923D9
S1130170822B80938D069F918F913F912F910F90A9
S11301800FBE0F901F9018958FEF82B980930B01CB
S11301908FE785B908952F923F924F925F926F92A5
S11301A07F928F929F92AF92BF92CF92DF92EF9203
S11301B0FF920F931F93CF93DF9300910901009552
S11301C00093E20480B110E0102F00278095082BE3
S11301D01093B1050093B00580917103909172035F
S11301E00817190709F4D6C010937203009371031A
S11301F00F2EFFE9CF2EF3E0DF2EF02D0F2EFFE0C0
S1130200EF2EF4E0FF2EF02DC0E0D0E00F2EF4EB43
S11302108F2EF5E09F2EF02D0F2EF0E53F2EF02DC2
S11302200F2EFFE65F2EF02D0F2EFCE64F2EF02D45
S11302300F2EF9E72F2EF02D802F81708093080662
S1130240882309F49AC080918603813099F030F0B4
S1130250823011F1833009F475C08FC0F6014081FA
S113026050E0F701608970E080A19A0190E00E945B
S1130270630E83C0E0918C06F0E0EE0FFF1FE15B9C
S1130280FB4F208131818091B0059091B105822787
S113029093279183808371C03701F701A088B12C23
S11302A0BA2CAA2480A1A82AC09337069E012F5FE6
S11302B03F4F42E067E088EC95E00E94F70B950120
S11302C044E06AE088EC95E00E94F70B61E070E09E
S11302D088EC95E00E94DF0BF7018081882319F0F8
S11302E0813039F00CC0F40132AA53AA44AA25AAD9
S11302F006C083E5F40182AB53AA44AA55AA62E07E
S113030070E08CED95E00E94DF0BF601208130E077
S11303102F5F3F4F42E06AE080EF95E00E94F70BC9
S113032063E070E080EF95E00E94DF0BF60140810E
S113033050E0F301608970E080A19A0190E00E948E
S1130340630E1BC0F701E054FF4FA080B12CC09393
S113035037069E0142E06BE080E696E00E94F70BD0
S1130360950142E06EE080E696E00E94F70B62E0C1
S113037070E080E696E00E94DF0B169507952196C3
S1130380FFEFCF1ADF0A8FEFE81AF80AC031D10560
S113039009F052CFDF91CF911F910F91FF90EF9011
S11303A0DF90CF90BF90AF909F908F907F906F9091
S11303B05F904F903F902F90089580E211D0882352
S11303C029F08091040680958093040680E408D087
S11303D0882329F080910506809580930506089569
S11303E02FB7F89490918D06892390918D069827C4
S11303F090938D062FBF089588E780930201089596
S1130400DC0190917803990F990F90937803809170
S1130410000186FD03C092609093780380910001EF
S113042085FD05C080917803816080937803909165
S113043078039F7090937803E92FF0E0EA55FD4F1D
S113044080818823E9F02091750330917603229509
S11304503295307F3227207F3227292B3093760341
S11304602093750333272B32310521F48C9181506D
S11304708C9308952731310519F48C918F5F8C93F7
S11304800895DC0190917703990F990F9093770366
S11304908091000184FD03C0926090937703809162
S11304A0000183FD05C08091770381608093770309
S11304B0909177039F7090937703E92FF0E0EA55CA
S11304C0FD4F80818823E9F02091730330917403F8
S11304D022953295307F3227207F3227292B309383
S11304E074032093730333272B32310521F48C9149
S11304F081508C9308952731310519F48C918F5FC5
S11305008C93089586E893E07BDF8BE896E0B9CF7F
S11305100895EF92FF920F931F93CF93DF938C0173
S11305207A0194E1592F561B6623A1F0F90184E165
S11305308E9DD0018F9DB00D1124A00FB11FCFEF60
S1130540C60FD0E021962C0F3D1F91919D93E21789
S1130550F307D9F7552391F024E12E9DC0012F9D77
S1130560900D1124080F191F952F960F80E2F801A2
S1130570E60FF11D80836F5F6913F9CFDF91CF918F
S11305801F910F91FF90EF900895EFE2F4E080E067
S11305908F5F81938031E1F780E38093CF0481E31F
S11305A08093D00482E38093D10483E38093D204C4
S11305B084E38093D30485E38093D40486E3809317
S11305C0D50487E38093D60488E38093D70489E332
S11305D08093D8048AE38093D9048BE38093DA046C
S11305E08CE38093DB048DE38093DC048EE38093BF
S11305F0DD048FE38093DE0488E790E09093E004C9
S11306008093DF0481E08093360610928C0680E1AB
S11306108093E10426EB32E041E050E068E080E6BC
S113062095E077DF2FEB32E042E050E064E080E6D3
S113063095E06FDF24EC32E043E050E064E080E6D4
S113064095E067DF29EC32E040E050E060E180E6CD
S113065095E05FDF26EB32E041E050E068E084EEB5
S113066094E057DF2AED32E042E050E066E084EEA9
S113067094E04FDF21EE32E043E050E06CE084EEA2
S113068094E047DF2EEE32E040E050E06DE084EE8F
S113069094E03FDF2CEF32E041E050E066E084EB91
S11306A095E037DF23E033E042E050E069E084EB9B
S11306B095E02FDF2DE033E043E050E069E084EB88
S11306C095E027DF27E133E040E050E06EE084EB83
S11306D095E01FDF26E233E041E050E06DE088E37F
S11306E096E017DF24E333E042E050E062E188E380
S11306F096E00FDF2AE433E043E050E064E188E36E
S113070096E007DF20E633E040E050E06FE088E366
S113071096E0FFCE0895EAE7F0E08081806480836C
S1130720808186FDFDCF80917900089588E38DB99D
S113073080E280937C0087E880937A0088E080934D
S11307407B008FEF80937E0080937D0010920906DA
S1130750E2CF0895CF93982F969596952FE2929F86
S1130760912D112496952CE2929F80191124982F93
S1130770883218F588E080937B00C92FC77096955E
S113078096959695906290937C00C5DFC33059F09E
S113079018F4C13031F00CC0C43039F0C63039F02F
S11307A007C0C4E005C0C6E003C0C1E001C0C3E0A7
S11307B0CC0FCC0FCC0FCEB920C0893271F018F415
S11307C0883231F01AC08A3269F08B3281F015C058
S11307D085E280937C009FDF10C086E280937C00DA
S11307E09ADF0BC087E280937C0095DF06C080E22D
S11307F080937C0010927B008EDFCF910895CF937D
S1130800C82F89DFEC2FF0E0EC5CFA4F8083CF91A6
S11308100895EF92FF920F931F93CF93982F96957D
S113082096952FE2929F912D112496952CE2929FFA
S113083080191124982FA82FB0E0FD01E65FF94F2D
S11308406081FD01EC5CFA4FE081F0E0E61BF10908
S1130850AF0112F44F5F5F4F55954795460FA65F62
S1130860B94F4C93983208F01AC2C92FC7709695A5
S113087096959695923009F4DAC030F4992359F09C
S1130880913009F496C02AC2933009F455C19430CA
S113089009F46FC123C20C2F10E0642F70E080E0D4
S11308A090E00E94F20F20E030E04CE450E40E941B
S11308B0570F20E030E04CE852E40E94F20E0E9410
S11308C0BF0F862F972F9C01F801E957FC4F8081B9
S11308D090E0982F88274085842B8217930709F48A
S11308E0FDC1F801E957FC4F6087332364F1F80137
S11308F0E957FC4F1082EEE3F2E080E386872DECAB
S1130900629F812D1124869586958695880F982F50
S1130910990F990F890F962F981B892F805D808BD3
S113092089E2689F812D112482958F7094E6899FB6
S113093060191124629F612D112466956695669550
S1130940605D678723C08FEFF801E957FC4F808310
S1130950EEE3F2E08DE286876095262F30E02F5F8C
S11309603F4FC90164E670E00E947E100F2EFAE04A
S1130970EF2EF12CF02DB7010E947E10605D678789
S1130980C901B7010E947E10805D808BCF5CC0934B
S1130990480263E070E08EE392E011D7F801E95772
S11309A0FC4F608170E08085A80190E00E94880E71
S11309B095C10C2F10E060E8640FF801E957FC4F73
S11309C08089861709F48AC1F801E957FC4F608BC6
S11309D080918603811120C0CF5CC09357026623A7
S11309E064F48DE280935902262F209530E043E091
S11309F068E082E592E0FBD60AC08BE2809359025C
S1130A00262F30E043E068E082E592E0F0D663E030
S1130A1070E082E592E0D3D6F801E957FC4F4089B3
S1130A2050E060E070E0C8010E94CF0E57C10C2F67
S1130A3010E0642F70E080E090E00E94F20F20E06C
S1130A4030E04CE450E40E94570F20E030E04CE8E2
S1130A5052E40E94F20E0E94BF0F862F972F9C0132
S1130A60A80149575C4FFA01E85BFF4F808190E091
S1130A70982F882770964081842B8217930709F456
S1130A802DC1F801E152FC4F6083332364F1F80176
S1130A90E153FC4F1082E6E1F2E080E387872DEC1E
S1130AA0629F812D1124869586958695880F982FAF
S1130AB0990F990F890F962F981B892F805D818B31
S1130AC089E2689F812D112482958F7094E6899F15
S1130AD060191124629F612D1124669566956695AF
S1130AE0605D608B20C0F801E153FC4F8FEF808381
S1130AF0E6E1F2E08DE287876095262F30E02F5FF4
S1130B003F4FC90164E670E00E947E100AE010E0E5
S1130B10B8010E947E10605D608BC901B8010E941B
S1130B207E10805D818BCF5CC093230263E070E014
S1130B3086E192E044D6D2C08C2F90E0FC01E151D2
S1130B40FC4F2081421709F4C9C0FC01E151FC4F5C
S1130B504083242F30E044E06EE082E092E047D608
S1130B60CF5CC0930E0263E070E082E092E027D68F
S1130B70B5C00C2F10E0642F70E080E090E00E947C
S1130B80F20F20E030E04CE450E40E94570F20E0E4
S1130B9030E04CE852E40E94F20E0E94BF0F862F10
S1130BA0972F9C01F801E957FC4F80A590E0982FFE
S1130BB0882740AD842B8217930709F48FC0F8016E
S1130BC0E957FC4F60AF332364F1F801E957FC4F58
S1130BD010A6EAE2F2E080E387872DEC629F812D84
S1130BE01124869586958695880F982F990F990FCD
S1130BF0890F962F981B892F805D818B89E2689FCE
S1130C00812D112482958F7094E6899F6019112497
S1130C10629F612D1124669566956695605D608B73
S1130C2023C08FEFF801E957FC4F80A7EAE2F2E016
S1130C308DE287876095262F30E02F5F3F4FC901F3
S1130C4064E670E00E947E100F2EFAE0EF2EF12C85
S1130C50F02DB7010E947E10605D608BC901B70161
S1130C600E947E10805D818BCF5CC093350263E06F
S1130C7070E08AE292E0A3D5F801E957FC4F20A581
S1130C8030E040AD50E0DF01A856BF4F6C9170E0FA
S1130C90E855FF4F808190E00E94AB0E1FC09A324E
S1130CA0E9F4242F30E0225E3F4F8091DF049091DD
S1130CB0E0048217930791F03093E0042093DF045B
S1130CC08091860381110AC043E065E088E895E0DD
S1130CD08ED562E070E088E895E071D5CF911F91E0
S1130CE00F91FF90EF900895CF93C0E08C2F32DDE9
S1130CF08C2F85DD8C2F8DDDCF5FCC32B9F7CF9172
S1130D00089585E283BB08959C01A29891E1A09A7D
S1130D10332314F4A59A01C0A598A098220F331F79
S1130D209150A9F7A29A089580918603813061F0C9
S1130D3028F08230A1F08330C1F008958091B0058D
S1130D409091B105E1CF0895E0918C06F0E0EE0FAB
S1130D50FF1FE15BFB4F80819181D6CF0895809185
S1130D60B0059091B105D0CF08958091B0059091D0
S1130D70B105CACF08951092B20507DCC3D404DAD2
S1130D80C0DF3ADB15D0D2DC73D784E085BD81E0C7
S1130D9080936E007894FFD912D40FDB10D4C4DF93
S1130DA00ED4B0DB0CD4A0DF0AD442D008D4F3CFE5
S1130DB00F931F93CF93DF93CFEDD4E02881398134
S1130DC043E065E088E895E012D52091B20530E073
S1130DD02F5F3F4F42E06EE08CE496E008D520910F
S1130DE0360630E043E069E084E795E000D52091E1
S1130DF0360630E043E069E088EF94E0F8D42881D7
S1130E00398143E065E088E895E0F1D400E615E037
S1130E10C0E0D0E0BE01C801D2D421960C5E1F4FC1
S1130E20C430D105B9F7DF91CF911F910F91089587
S1130E300F931F93CF93DF939091060680918B06B7
S1130E40981709F445C3837080938B06891B90918E
S1130E508603923009F415C1933009F457C29130D6
S1130E6009F032C390910506992309F49EC090912C
S1130E70B305923051F1933009F45AC0913009F01E
S1130E8023C3813089F4209136062F5F20933606E0
S1130E9030E043E069E088EF94E0A9D461E070E0D9
S1130EA088EF94E08CD410C320913606215020930F
S1130EB0360630E043E069E088EF94E098D461E0DE
S1130EC070E088EF94E07BD4FFC28130C9F4809154
S1130ED0E1048F5F813418F48093E10403C080E45B
S1130EE08093E1042091E10430E042E066E08CE08C
S1130EF095E07DD462E070E08CE095E060D4E4C2DB
S1130F008091E104815019F08093E10403C081E0F1
S1130F108093E1042091E10430E042E066E08CE05B
S1130F2095E065D462E070E08CE095E048D4CCC2F2
S1130F30813011F580918C068F5F80938C064091EF
S1130F40E10490E0242F30E02150310928173907BB
S1130F501CF4415040938C0620918C0630E02F5FA6
S1130F603F4F42E06DE080E295E041D463E070E001
S1130F7080E295E024D4A8C280918C06815018F0B8
S1130F8080938C0602C010928C0620918C0630E06F
S1130F902F5F3F4F42E06DE080E295E028D463E0AC
S1130FA070E080E295E00BD48FC28130A1F580918E
S1130FB0B3058F5F843018F48093B30503C083E0D6
S1130FC08093B3056091B30570E0C4E1C69FC0018E
S1130FD0C79F900D11248C519B4F2CE3FC01238B54
S1130FE09B0121503109C29FF001C39FF00D1124D0
S1130FF0EC51FB4F20E2238BE2D36091B30570E008
S113100061507109C69FC001C79F900D11248C5176
S11310109B4FD5D359C28091B3059EEF980F9A3F49
S113102020F481508093B30503C081E08093B3051D
S11310306091B30570E0C4E1C69FC001C79F900DE5
S113104011248C519B4F2CE3FC01238B9B012F5FBC
S11310503F4FC29FF001C39FF00D1124EC51FB4F91
S113106020E2238BACD36091B30570E06F5F7F4FB8
S1131070C69FC001C79F900D11248C519B4F9FD3D5
S113108023C290910506992309F4D4C090910706D0
S1131090923009F44EC0933009F480C0913009F0C5
S11310A013C2813019F52091370630E0C901895700
S11310B09C4FFC01E855FF4FC081CF5FC083709700
S11310C08081D0E0D82B2F5F3F4F42E067E088EC6F
S11310D095E08DD39E0144E06AE088EC95E087D3E7
S11310E061E070E088EC95E06AD3EEC120913706A8
S11310F030E0C90189579C4FFC01E855FF4FC0817E
S1131100C150C08370978081D0E0D82B2F5F3F4FB0
S113111042E067E088EC95E06AD39E0144E06AE02F
S113112088EC95E064D361E070E088EC95E047D307
S1131130CBC18130D1F48091370690E0FC01E15FAE
S1131140FB4F20812F5F273028F4FC01E15FFB4F28
S1131150208305C0FC01E15FFB4F26E0208362E0B1
S113116070E08CED95E02BD3AFC18091370690E011
S1131170FC01E15FFB4F20812F5F2F3F29F0FC0131
S1131180E15FFB4F208304C0FC01E15FFB4F108251
S113119062E070E08CED95E012D396C1813031F5B8
S11311A08091370690E0FC01E957FC4F208D2F5FBA
S11311B0283028F4FC01E957FC4F208F05C027E0B4
S11311C0FC01E957FC4F208FFC01E957FC4F208DAF
S11311D030E02F5F3F4F42E06AE080EF95E007D3B5
S11311E063E070E080EF95E0EAD26EC1809137064B
S11311F090E0FC01E957FC4F208D215028F0FC01C0
S1131200E957FC4F208F04C0FC01E957FC4F108EB6
S1131210FC01E957FC4F208D30E02F5F3F4F42E047
S11312206AE080EF95E0E3D263E070E080EF95E060
S1131230C6D24AC18130A1F5809107068F5F843000
S113124018F48093070603C083E080930706609137
S1131250070670E0C4E1C69FC001C79F900D11242A
S11312608C549A4F2CE3FC01238B9B0121503109B0
S1131270C29FF001C39FF00D1124EC54FA4F20E2F9
S1131280238B9DD26091070670E061507109C69F5F
S1131290C001C79F900D11248C549A4F90D214C151
S11312A0809107069EEF980F9A3F20F48150809317
S11312B0070603C081E0809307066091070670E08B
S11312C0C4E1C69FC001C79F900D11248C549A4F4E
S11312D02CE3FC01238B9B012F5F3F4FC29FF00146
S11312E0C39FF00D1124EC54FA4F20E2238B67D2F4
S11312F06091070670E06F5F7F4FC69FC001C79F74
S1131300900D11248C549A4F5AD2DEC0813009F0CA
S11313106EC0809105068823B1F1809188068130E2
S113132019F08230E1F0D0C08091B2058F5F803136
S113133018F48093B20503C08FE08093B205209126
S1131340B20530E02F5F3F4F42E06EE08CE496E060
S11313504ED261E070E08CE496E031D2B5C0E09109
S11313603706F0E0E153FB4F20812F5F208330E00C
S113137042E06EE080E696E03AD262E070E080E619
S113138096E01DD2A1C0809188068F5F833018F447
S11313908093880603C082E0809388066091880663
S11313A070E0C4E1C69FC001C79F900D1124885C02
S11313B0994F2CE3FC01238B9B0121503109C29FDF
S11313C0F001C39FF00D1124E85CF94F20E2238B58
S11313D0F6D16091880670E061507109C69FC00122
S11313E0C79F900D1124885C994FE9D16DC08091FD
S11313F005068823A1F180918806813019F0823096
S1131400D1F062C08091B205815018F08093B2058A
S113141002C01092B2052091B20530E02F5F3F4F19
S113142042E06EE08CE496E0E2D161E070E08CE4AE
S113143096E0C5D149C0E0913706F0E0E153FB4F97
S113144020812150208330E042E06EE080E696E087
S1131450CED162E070E080E696E0B1D135C08091F3
S113146088069EEF980F9A3F20F481508093880657
S113147003C081E0809388066091880670E0C4E12F
S1131480C69FC001C79F900D1124885C994F2CE31F
S1131490FC01238B9B012F5F3F4FC29FF001C39F31
S11314A0F00D1124E85CF94F20E2238B88D1609180
S11314B0880670E06F5F7F4FC69FC001C79F900D85
S11314C01124885C994F7BD180918B06809306060A
S11314D0809186039091E304981709F46BC083709C
S11314E080938603813009F138F0823009F43FC0DB
S11314F0833009F44CC05AC02091DF043091E004D9
S113150043E065E088E895E072D100E615E0C0E0CC
S1131510D0E0BE01C80153D121960C5E1F4FC430E8
S1131520D105B9F710928A0641C02091E10430E058
S113153042E066E08CE095E05AD120918C0630E0E0
S11315402F5F3F4F42E06DE080E295E050D104EE22
S113155014E0C0E0D0E0BE01C80131D121960C5E98
S11315601F4FC430D105B9F71092B3051FC004EB67
S113157015E0C0E0D0E0BE01C80121D121960C5E87
S11315801F4FC430D105B9F7109207060FC008E306
S113159016E0C0E0D0E0BE01C80111D121960C5E76
S11315A01F4FC430D105B9F7109288068091860385
S11315B08093E304DF91CF911F910F910895CF920F
S11315C0DF92EF92FF920F931F93CF93DF9380915B
S11315D0B205982F906990937C03982F906B909309
S11315E07B03982F906C90937A038068809379039F
S11315F055D380937D0390917C0389132DC04ED3E2
S1131600CDE7D3E089834AD38A830FEC14E0CFE09B
S1131610D4E00F2EFFE1CF2EF4E0DF2EF02D0F2EBD
S1131620FDE7EF2EF3E0FF2EF02DF80191918F01ED
S1131630F701818198130CC0288130E0FE01E05746
S1131640F109408150E0688970E088A190E03BD3C3
S11316502196CC15DD0549F790917D0380917B039C
S113166098130BC01BD3CDE7D3E0898317D38A83A8
S113167063E070E08EE892E0A2D090917D038091C7
S11316807A03981308C00AD380937E0363E070E062
S11316908AE792E094D090917D0380917903981326
S11316A00BC0FCD2CDE7D3E08983F8D28A8363E010
S11316B070E086E692E083D0DF91CF911F910F9185
S11316C0FF90EF90DF90CF900895E5E0F1E0808106
S11316D08260808385E08A95F1F7000080818D7FA8
S11316E080830895E5E0F1E090819E7F908388B93E
S11316F0ECCF0895E5E0F1E090819160908388B9A2
S1131700E4CF089583E0809304018FEF87B9E5E087
S1131710F1E080818C7F808318B88FE193E001979A
S1131720F1F700C000008AE2DDDF81E7DBDF8CE552
S1131730E1DF88E2D7DF88E0D5DF8AE2D3DF89E71B
S1131740D1DF85EDCFDF80E7CDDF88E7CBDF89E030
S1131750C9DF86E0C7DF82E7C5DF8AE0CBDF89E740
S1131760C1DF8AEDBFDF80E1BDDF8CEDBBDF80E050
S1131770B9DF81E8B7DF8FE7B5DF89EDB3DF81EF4C
S1131780B1DF8BEDAFDF80E4ADDF88E7ABDF88E26C
S1131790A9DF81E0A7DF8FE39FE10197F1F700C0A4
S11317A0000080E89FDF8CE09DDF9FEF24E38CE066
S11317B0915020408040E1F700C0000008950F934D
S11317C01F93CF93DF938C01FB01FF27EE55FD4F51
S11317D0808188DFE8010C5E1F4F89918BDFC01781
S11317E0D107D9F7DF91CF911F910F910895CF932E
S11317F0DF93F901433009F451C028F4413051F02A
S1131800423021F1A2C1443009F48EC0453009F4BC
S1131810FDC09BC1EC01C60FD11DADECBCEC81D465
S11318209695879596958795969587959C01220F11
S1131830331F880F991F880F991F880F991F820FD4
S1131840931FE81BF90BE05DE8837FC1EC01C60F31
S1131850D11DADECBCEC65D496958795969587958E
S1131860969587959C01220F331F880F991F880F27
S1131870991F880F991F820F931F9F01281B390BF3
S1131880C901805D89839F014CD49695879596956F
S1131890879596958795805D888357C1EC01C60F1F
S11318A0D11DADECBCEC3DD4969587959695879566
S11318B0969587959C01220F331F880F991F880FD7
S11318C0991F880F991F820F931F9F01281B390BA3
S11318D0C901805D8A83AF01569547955695479512
S11318E09A01ABE7B4E11DD49695879564E6689FA9
S11318F09001699F300D1124CF01821B930B9C0131
S1131900ADECBCEC0ED496958795969587959695F7
S11319108795805D89839A01ABE7B4E102D49695FB
S11319208795805D888311C1EC01C60FD11DADEC94
S1131930BCECF7D39695879596958795969587955C
S11319409C01220F331F880F991F880F991F880F3E
S1131950991F820F931F9F01281B390BC901805DBA
S11319608B839F013695279536952795ABE7B4E190
S1131970D8D39695879544E6489F9001499F300DAA
S11319801124CF01821B930B9C01ADECBCECC9D399
S1131990969587959695879596958795805D8A8384
S11319A0AF015695479556954795569547959A0193
S11319B0A5ECB0E2B6D3929582958F7089279F707B
S11319C0892768EE73E0869F9001879F300D969F6C
S11319D0300D1124CF01821B930B9C013695279562
S11319E036952795ABE7B4E19CD396958795805DB2
S11319F089839A01A5ECB0E294D3929582958F7075
S1131A0089279F708927805D88839FC0EC01C60F5A
S1131A10D11DADECBCEC85D39695879596958795AD
S1131A20969587959C01220F331F880F991F880F65
S1131A30991F880F991F820F931F9F01281B390B31
S1131A40C901805D8C839F0136952795369527952E
S1131A50ABE7B4E166D39695879544E6489F900139
S1131A60499F300D1124CF01821B930B9C01ADECD7
S1131A70BCEC57D3969587959695879596958795BB
S1131A80805D8B839F0136952795369527953695EE
S1131A902795A5ECB0E245D3929582958F7089275E
S1131AA09F70892748EE53E0849F9001859F300DF5
S1131AB0949F300D1124CF01821B930B9C0136950A
S1131AC0279536952795ABE7B4E12BD39695879563
S1131AD0805D8A83AF01529542954F7045275F70B0
S1131AE045279A01A7E4B3E01CD39695879596956C
S1131AF087959695879560E177E2869F9001879F09
S1131B00300D969F300D1124CF01821B930B9C0145
S1131B10369527953695279536952795A5ECB0E209
S1131B2000D3929582958F7089279F708927805D55
S1131B3089839A01A7E4B3E0F4D2969587959695A4
S1131B40879596958795805D8883DF91CF910895D9
S1131B501F920F920FB60F9211240BB60F922F9370
S1131B603F938F939F93EF93FF938091840390917E
S1131B708503209182033091830382179307B9F080
S1131B80FC01E257F94F80818093C6008091840361
S1131B90909185030196803891052CF490938503E8
S1131BA08093840304C01092850310928403FF91F0
S1131BB0EF919F918F913F912F910F900BBE0F90BA
S1131BC00FBE0F901F9018951F920F920FB60F9291
S1131BD011240BB60F928F939F93EF93FF938091F1
S1131BE080039091CE00E82FF0E0E25FF84F9083FD
S1131BF08F5F1AF08093800302C010928003FF91DC
S1131C00EF919F918F910F900BBE0F900FBE0F908D
S1131C101F9018952091820330918303F901E257B4
S1131C20F94F80832F5F3F4F203831052CF43093D8
S1131C3083032093820308951092830310928203F6
S1131C4008950F931F93CF93DF93EC018C01065FEC
S1131C501F4F8991DFDFC017D107D9F78091C000EA
S1131C6085FD1092C600DF91CF911F910F910895C9
S1131C701092C50080E18093C4001092CD008FE1E2
S1131C808093CC0088E48093C10086E08093C200F6
S1131C9090E99093C9008093CA00089590918103BC
S1131CA080918003981769F0E92FF0E0E25FF84F24
S1131CB080819F5F1AF090938103089510928103AD
S1131CC0089580E00895CF93DF93CDB7DEB72A97C8
S1131CD00FB6F894DEBF0FBECDBF90EF99839AEA9A
S1131CE09A839AE09B8393E09C832D838E836F83F6
S1131CF04887198685E58A87CE010196A2DF2A9650
S1131D000FB6F894DEBF0FBECDBFDF91CF9108951B
S1131D10CF93DF93CDB7DEB728970FB6F894DEBF25
S1131D200FBECDBF90EF99839AEA9A8398E09B8384
S1131D3095E09C834D838E836F8385E58887CE01F0
S1131D4001967FDF28960FB6F894DEBF0FBECDBF95
S1131D50DF91CF910895CF93DF93CDB7DEB7299765
S1131D600FB6F894DEBF0FBECDBF90EF99839AEA09
S1131D709A8399E09B8398E09C838D836E834F8341
S1131D80288785E58987CE0101965BDF29960FB602
S1131D90F894DEBF0FBECDBFDF91CF910895CF93EE
S1131DA0DF93CDB7DEB728970FB6F894DEBF0FBE2A
S1131DB0CDBF90EF99839AEA9A8398E09B839CE045
S1131DC09C838D836E834F8385E58887CE0101963E
S1131DD038DF28960FB6F894DEBF0FBECDBFDF9173
S1131DE0CF9108955058BB27AA270ED04DC13ED19C
S1131DF030F043D120F031F49F3F11F41EF433C18D
S1131E000EF4E095E7FB29C1E92F4FD180F3BA170F
S1131E10620773078407950718F071F49EF567C18C
S1131E200EF4E0950B2EBA2FA02D0B01B9019001F1
S1131E300C01CA01A0011124FF27591B99F0593F35
S1131E4050F4503E68F11A16F040A22F232F342F7D
S1131E504427585FF3CF469537952795A795F040CB
S1131E605395C9F77EF41F16BA0B620B730B840BE0
S1131E70BAF09150A1F0FF0FBB1F661F771F881F98
S1131E80C2F70EC0BA0F621F731F841F48F48795F0
S1131E9077956795B795F7959E3F08F0B3CF9395DF
S1131EA0880F08F09927EE0F9795879508950CD021
S1131EB0EBC0E3D040F0DAD030F021F45F3F19F00A
S1131EC0CCC0511115C1CFC0F0D098F39923C9F3F8
S1131ED05523B1F3951B550BBB27AA27621773072C
S1131EE0840738F09F5F5F4F220F331F441FAA1FE0
S1131EF0A9F333D00E2E3AF0E0E830D091505040A0
S1131F00E695001CCAF729D0FE2F27D0660F771F4D
S1131F10881FBB1F261737074807AB07B0E809F02F
S1131F20BB0B802DBF01FF2793585F4F2AF09E3FC4
S1131F30510568F092C0DCC05F3FECF3983EDCF3DF
S1131F40869577956795B795F7959F5FC9F7880F3D
S1131F50911D9695879597F90895E1E0660F771F8F
S1131F60881FBB1F621773078407BA0720F0621B20
S1131F70730B840BBA0BEE1F88F7E095089504D019
S1131F806894B111B5C0089598D088F09F5790F027
S1131F90B92F9927B751A0F0D1F0660F771F881F8A
S1131FA0991F1AF0BA95C9F712C0B13081F09FD0C9
S1131FB0B1E008959CC0672F782F8827B85F39F067
S1131FC0B93FCCF3869577956795B395D9F73EF4E9
S1131FD090958095709561957F4F8F4F9F4F089591
S1131FE0E89409C097FB3EF49095809570956195AF
S1131FF07F4F8F4F9F4F9923A9F0F92F96E9BB2765
S11320009395F695879577956795B795F111F8CFE0
S1132010FAF4BB0F11F460FF1BC06F5F7F4F8F4F4B
S11320209F4F16C0882311F096E911C0772321F041
S11320309EE8872F762F05C0662371F096E8862FD9
S113204070E060E02AF09A95660F771F881FDAF730
S1132050880F9695879597F9089597F99F6780E873
S113206070E060E008959FEF80EC089500240A94E6
S11320701616170618060906089500240A9412165F
S11320801306140605060895092E0394000C11F492
S1132090882352F0BB0F40F4BF2B11F460FF04C03F
S11320A06F5F7F4F8F4F9F4F089557FD9058440F98
S11320B0551F59F05F3F71F04795880F97FB991FA3
S11320C061F09F3F79F08795089512161306140660
S11320D0551FF2CF4695F1DF08C0161617061806ED
S11320E0991FF1CF86957105610508940895E894C8
S11320F0BB2766277727CB0197F9089597FB072E0F
S113210016F4009406D077FD08D01AD007FC05D049
S11321103EF4909581959F4F0895709561957F4FFA
S11321200895A29FB001B39FC001A39F700D811DAC
S11321301124911DB29F700D811D1124911D0895CC
S1132140AA1BBB1B51E107C0AA1FBB1FA617B707D9
S113215010F0A61BB70B881F991F5A95A9F78095F5
S10F21609095BC01CD010895F894FFCFC8
S113216CFFFF456E76656C6F706554696D65783AE2
S113217C787878784D53456E76656C6F70654761E9
S113218C696E78783A7878786462547261636B56C5
S113219C6F6C756D6578203D2078787864624F7526
S11321AC74566F6C756D652078203D207878786452
S11321BC62205069746368203D2078787820202050
S11321CC2020202020202D2D2D2D2D2D2D2D2D2D7D
S11321DC2D2D2D2D2D2D2D2D2D2D50726F677261C2
S11321EC6D4368616E67654D657373616765436FB5
S11321FC6E74726F6C4368616E67654D6573736161
S113220C676580A0C0E0000101000100000101002D
S113221C0001000101005061747465726E3A004251
S113222C504D3A0053746F7000506572666F726D46
S113223C616E6365204D6F64650053746570733A09
S113224C0053746570206E756D6265723A00536547
S113225C7175656E636520456469740054726163BD
S113226C6B3A00506C61794D6F64653A004F75742C
S113227C526F7574653A00547261636B20536574C4
S113228C74696E6773004D696469204368616E6E8E
S113229C656C3A004D69646920747269673A202050
S11322AC202020202020202020002020202020203E
S11322BC202020202020202020202020202020002E
S11322CC476C6F62616C2053657474696E6773003C
S9030000FC
