:10000000F3C0000012C1000010C1000025C20000B2
:1000100043C2000061C20000A8C2000006C1000087
:1000200004C1000002C1000000C10000FEC00000C9
:10003000FCC000000C94140BF8C00000F6C00000D7
:10004000F4C00000F2C00000F0C00000EEC00000EC
:10005000ECC00000EAC00000E8C00000E6C00000FC
:10006000E4C00000E2C00000E0C000000C9495165F
:10007000DCC00000DAC00000D8C00000D6C000001C
:10008000D4C00000D2C00000D0C00000CEC000002C
:10009000CCC00000CAC00000C8C00000C6C000003C
:1000A000C4C00000C2C00000C0C00000BEC000004C
:1000B000BCC00000BAC00000B8C00000B6C000005C
:1000C000B4C00000B2C00000B0C00000AEC000006C
:1000D000ACC00000AAC000000C945E12A6C00000D4
:1000E000A4C0000069034E054E054E054E054E05A1
:1000F0004E054E054E054E054E054E054E054E0568
:100100004E054E054E0580039D03C4034E054E0566
:100110004E054E054E058803A503CC034E054E053E
:100120004E054E054E05E7031C0430046504CC045F
:100130004E054E054E05EF03240438046D04D40427
:100140004E054E054E050E05280547054E054E0584
:100150004E054E054E0516053005F60CBF0FBF0FB8
:10016000BF0FBF0FBF0FBF0FBF0FBF0FBF0FBF0F1F
:10017000BF0FBF0FBF0FBF0FBF0F0C0D260D4C0DD4
:100180007B0DBF0FBF0FBF0FBF0FBF0F430D690D1B
:10019000980DBF0FBF0FBF0FBF0FA90DC30DFC0DF3
:1001A000480E7B0EE50EBF0FBF0FBF0FE00D190EFF
:1001B000650E980E020FBF0FBF0F2B0F450F740F68
:1001C000A30FBF0FBF0FBF0FBF0FBF0F620F910F66
:1001D000DA15DD15E015E315E615E915EC15EF1553
:1001E000F215F515F815FB1511241FBECFEFD1E25E
:1001F000DEBFCDBF00E00CBF13E0A0E0B2E0EEEC4C
:10020000F0E400E00BBF02C007900D92A63FB107DB
:10021000D9F728E0A6EFB3E001C01D92AB31B207D9
:10022000E1F70E94D5090C946520EACE8FEF82B9E0
:1002300080930B018FE785B90895CF92DF92EF92FB
:10024000FF920F931F93CF936C012091090120958A
:1002500020930B0490B130E0322F22279095292B68
:10026000DB012D933C934091F6035091F703241743
:10027000350709F443C07B013093F7032093F6035D
:10028000FB0100811181C0E0902F917090930C04CC
:10029000992379F1D7011A969C9192959F7091308C
:1002A00051F018F0943028F51AC04C2FB701C60150
:1002B0000E94D4171EC0D7011896EC911897F0E051
:1002C000EE0FFF1FEC0DFD1DE550FF4F208131812A
:1002D0008D919C9182279327918380830AC0F70197
:1002E000C1878685826086874C2FB701C6010E9430
:1002F000D41716950795CF5FC03131F6CF911F9176
:100300000F91FF90EF90DF90CF900895FF920F93A1
:100310001F93CF93DF93CDB7DEB7CC57DE4F088165
:100320001981C458D14080E277D0882341F1F80187
:10033000828582958F70833021F4C8010E940A1E45
:100340001EC0F80187818F938DB79EB78B57914060
:100350000FB6F8949EBF0FBE8DBFADB7BEB7119656
:100360008BE791E0FE01399601900D920197E1F73C
:100370000E940D1A0FB6F894DEBF0FBECDBF80E409
:100380004BD0882351F0F801828583FF03C0877F1B
:10039000828703C08860F8018287F801F38480E1D6
:1003A0003BD0882371F0F0FE06C0F80113868281ED
:1003B0008F7D828306C081E0F8018387828180621D
:1003C0008283F801F58481E027D0882371F0F0FE64
:1003D00006C0F801158682818D7F828306C081E088
:1003E000F8018587828182608283F801F28082E051
:1003F00013D0882359F0F2FE05C0F80182818B7F6B
:10040000828304C0F801828184608283DF91CF916E
:100410001F910F91FF9008952FB7F89490910D04BC
:10042000892390910D04982790930D042FBF089570
:10043000E9E6F0E08081806F8083EAE6F0E0808189
:100440008F6080838DB38C638DBB8DB18F7C8DB9B4
:100450008AB1837F8AB908951F920F920FB60F92C7
:1004600011248F938091F80381FF0BC08091FB03CF
:1004700081508093FB038091F8038C708093F80384
:1004800005C08091F80381608093F8038F910F90ED
:100490000FBE0F901F9018951F920F920FB60F92DC
:1004A00011248F938091F80380FF0BC08091FB0390
:1004B0008F5F8093FB038091F8038C708093F80327
:1004C00005C08091F80382608093F8038F910F90AC
:1004D0000FBE0F901F9018951F920F920FB60F929C
:1004E00011240BB60F928F939F93EF93FF938091FC
:1004F000FE038CB19091FE03807382958F70892BDF
:100500008093FE038091FE038F708093FE03E09141
:10051000FE03F0E0E05AFD4F80818823D9F08091FE
:10052000FD039091FE038091FD03892B8093FD03D1
:100530008091FD038B3229F48091FC038F5F8093BF
:10054000FC038091FD03873129F48091FC038150E5
:100550008093FC03FF91EF919F918F910F900BBEC1
:100560000F900FBE0F901F9018951F920F920FB60D
:100570000F9211240BB60F928F939F93EF93FF93DB
:100580008091FE038CB19091FE03807382958F70F1
:10059000892B8093FE038091FE038F708093FE036E
:1005A000E091FE03F0E0E05AFD4F80818823D9F00E
:1005B0008091FD039091FE038091FD03892B809330
:1005C000FD038091FD038B3229F48091FC038F5F42
:1005D0008093FC038091FD03873129F48091FC0313
:1005E00081508093FC03FF91EF919F918F910F9029
:1005F0000BBE0F900FBE0F901F9018958091FE03B9
:100600008CB19091FE03807382958F70892B8093BB
:10061000FE038091FE038F708093FE03E091FE0342
:10062000F0E0E05AFD4F80818823D9F08091FD03EE
:100630009091FE038091FD03892B8093FD038091AF
:10064000FD038B3229F48091FC038F5F8093FC03C0
:100650008091FD03873129F48091FC0381508093C0
:10066000FC030895CF93DF939C01FB019091FC0361
:100670008091FA03981789F09091FC0393709295FA
:10068000907F92871092FB031092F9038685816018
:1006900086878091FC038093FA039091FB038091FD
:1006A000F903981709F4FEC19091FB03A92FA81B29
:1006B000968591609687428550E04B33510508F04E
:1006C000EDC1EF01FA018827EE58FF4F8F4F0C94D0
:1006D0000B20A13041F48F818F5F11F08F830BC00D
:1006E0008FEF8F8308C0AF3F31F48F81815010F0BE
:1006F0008F8301C01F826F81C9010E94FA1BCEC186
:10070000A13019F483E18A87C9C182E18A87C6C111
:10071000A13041F48F818F5F11F08F8309C08FEF7B
:100720008F8306C08F81815010F08F8301C01F829C
:100730006F81C9010E94FA1BB1C1A13019F481E196
:100740008A87ACC183E18A87A9C1A13079F4F90114
:10075000E653FF4F90819F5F913410F490839EC1C8
:10076000F901E653FF4F80E4808398C1F901E65315
:10077000FF4F9081915011F0908390C1F901E653A1
:10078000FF4F81E080838AC1A13019F482E18A871A
:1007900085C181E18A8782C1A13069F498859F5F14
:1007A0009887F901E653FF4F8081981708F476C1C6
:1007B0008150888773C1988591509887F901E653D5
:1007C000FF4F8081891708F069C1188667C1A13081
:1007D00019F485E28A8762C182E28A875FC18985CE
:1007E00090E0B901680F791FFB01E856FF4F408187
:1007F00050E0542F442770966081462BA13049F475
:100800004F5F5F4F413060E1560740F040E050E1FC
:1008100005C04150510911F441E050E0820F931F8F
:10082000FC01E855FF4F40838985280F311DF901F0
:10083000E856FF4F508332C1A13019F481E28A8714
:100840002DC183E28A872AC18985280F311DF901CC
:10085000E857FF4F81E09081911180E080831EC1B5
:10086000A13019F482E28A8719C184E28A8716C10D
:10087000A130B1F48985F901E80FF11D808D8F5FFA
:10088000808F898590E0F901E80FF91F408D48308D
:1008900008F404C1F901E80FF91F87E0808FFEC05A
:1008A0008985F901E80FF11D808D8150808F898540
:1008B00090E0F901E80FF91F408D483008F4EEC0D0
:1008C000F901E80FF91F108EE9C0A13019F483E295
:1008D0008A87E4C085E28A87E1C0A130D9F489859E
:1008E000F901E80FF11DE551FF4F80818F5F808393
:1008F000898590E0F901E80FF91FE551FF4F40812C
:10090000443008F1820F931FFC01E551FF4F83E053
:10091000808319C08985F901E80FF11DE551FF4F6A
:10092000808181508083898590E0F901E80FF91F6B
:10093000E551FF4F4081443030F0820F931FFC019E
:10094000E551FF4F1082898590E0F901E80FF91F0A
:10095000E551FF4F40814D7F79F4280F391FF90190
:10096000E856FF4FD901A855BF4F2AEB4FEF6081E2
:100970008C910E945D1792C0F901E80FF91FEF01F9
:10098000C856DF4FDF01A855BF4F20A540AD688195
:100990008C910E945D1782C0A13019F484E28A878D
:1009A0007DC081E28A877AC0498550E0B901640F31
:1009B000751FFB01E553FF4F808190E0982F88273A
:1009C00070966081862BA13071F46A8162FF02C04B
:1009D000019602C084519F4F8136EAEE9E0780F057
:1009E00080E69AEE0DC06A8162FF02C0019702C0E4
:1009F0008C5E91098136FAEE9F0710F080E090E05E
:100A0000420F531FFA01E553FF4F90839985290F39
:100A1000311DF901E552FF4F808340C0A13019F428
:100A200081E38A873BC082E38A8738C0A13049F4DA
:100A300088898F5F803110F4888B30C08FE0888B7D
:100A40002DC08889815010F0888B28C0188A26C054
:100A5000A13019F481E38A8721C082E38A871EC00E
:100A6000E9852E2F30E0CE01820F931FFC01818992
:100A7000A13021F48F5F32F48FE704C081508138B8
:100A800008F080E0F901EC0FFD1F818B07C0A13059
:100A900019F482E38A8702C081E38A878091FB038D
:100AA0008093F903DF91CF9108959091FC03809199
:100AB000FA03981721F08091FC038170089582E079
:100AC00008950F931F93CF93DF93EC01FA010190E8
:100AD0000020E9F731978F01041B150B902F84E15B
:100AE000801B0023A9F0FA0125E1269FD001279F52
:100AF000B00D1124AC0FBD1F2FEF200F30E02F5F82
:100B00003F4F420F531F21912D93E417F507D9F75B
:100B1000882389F045E1469F9001479F300D1124BD
:100B2000C20FD31F080F80E2FE01E90FF11D808381
:100B30009F5F9013F9CFDF91CF911F910F9108958F
:100B4000CF93DF93AC01FC01E855FF4FEC01C85790
:100B5000DF4FDC01A551BF4F90E031E023E09F5F04
:100B6000919339932D9312AA12A29031C1F7FA01F1
:100B7000E550FF4F9A0125583E4F11921192E2170E
:100B8000F307D9F7FA01E853FF4F88E790E0918324
:100B90008083329680E18083DF91CF910895FC01BC
:100BA0001182108212821782108611861286138695
:100BB0001486158616861786DC01AB55BF4F1D922D
:100BC0001D921D921C921397A85BBF4F1D921D9200
:100BD0001D921C92139712971D921C9214821382DD
:100BE00016821582613009F5108A84E2818B85E2D4
:100BF000828B86E2838B87E2848B88E2858B89E215
:100C0000868B8AE2878B8BE2808F8CE2818F8DE2EC
:100C1000828F8EE2838F8FE2848F80E3858F81E3E2
:100C2000868F82E3878F83E380A3089582E0809399
:100C3000B00093E09093B10092E39093B30080935F
:100C400070000895AF92BF92CF92DF92EF92FF9221
:100C50000F931F93CF93DF93CDB7DEB765970FB692
:100C6000F894DEBF0FBECDBF00996FC0209109017F
:100C700020FD6BC08A016B017C0160E070E080E7C1
:100C800092E00E94E0132FEF84E39CE0215080402B
:100C90009040E1F700C00000009957C08091090121
:100CA00080FD53C085E1EAE9F2E0DE011196019092
:100CB0000D928A95E1F76894AA24A3F86894BB245E
:100CC000B5F861E070E0CE0101960E94E013EDDE20
:100CD000811105C0AD82B88A1D99F3CF0BC0813058
:100CE00029F4BD82A88A1D99ECCF2FC01D99E9CFA8
:100CF000823039F3811129C062E070E085E892E02A
:100D00000E94E01381E0F701808361E0C80147DFC2
:100D10008DB79EB78B5791400FB6F8949EBF0FBE0C
:100D20008DBFADB7BEB711968BE791E0F60101908C
:100D30000D920197E1F70E94AC1D0FB6F894DEBF4B
:100D40000FBECDBFC8010E940A1E65960FB6F8946B
:100D5000DEBF0FBECDBFDF91CF911F910F91FF90EE
:100D6000EF90DF90CF90BF90AF900895EAE7F0E06A
:100D7000808180648083808186FDFDCF80917900B1
:100D8000089580B3876080BB80E280937C0087E811
:100D900080937A0088E080937B008FEF80937E00C1
:100DA00080937D0010920E04E1CF0895CF93982F89
:100DB000969596952FE2929F912D112496952CE26F
:100DC000929F80191124982F883270F488E08093C4
:100DD0007B00C92FC77096959695969590629093D3
:100DE0007C00C4DFC1BB20C0893271F018F48832A6
:100DF00031F01AC08A3269F08B3281F015C085E279
:100E000080937C00B3DF10C086E280937C00AEDF6D
:100E10000BC087E280937C00A9DF06C080E280934C
:100E20007C0010927B00A2DFCF9108950F931F9357
:100E3000CF93DF938B01C82FD0E098DFF801EC0F40
:100E4000FD1F81A3E35BFF4F408190E0841B91096C
:100E50009C0112F42F5F3F4F35952795240F208377
:100E6000DF91CF911F910F910895FC01E35BFF4F3C
:100E70009C0127583F4F919193A7E217F307D9F7A9
:100E800008954F925F926F927F92AF92BF92CF92EE
:100E9000DF92EF92FF920F931F93CF93DF93982FE0
:100EA000969596952FE2929F912D112496952CE27E
:100EB000929F80191124982F883208F0C5C1182FED
:100EC0001770869586958695DA011D962C9120FFE0
:100ED00005C06894AA24A3F8A10E01C0A12E8230F7
:100EE00009F499C0EA016B01833030F4882359F08A
:100EF000813009F467C0C6C1833009F4E1C0843091
:100F000009F42EC1BFC1E92EF12CCA018E0D9F1D1F
:100F1000FC01E758FF4F2081BC976081261720F421
:100F2000B62FB21B2B2F01C0261B233008F4AAC1F9
:100F300070E080E090E00E942E1F2091000230912E
:100F4000010240910202509103020E94931E2B0164
:100F50003C016091040270E080E090E00E942E1F4E
:100F60009B01AC01C301B2010E942E1E0E94FB1E18
:100F7000862F262F372F9E8594609E871F87612F8F
:100F800070E0F601E60FF71F808733232CF0F6019F
:100F9000E60FF71F108205C09FEFF601E60FF71F5F
:100FA0009083F601E60FF71F412F60810E943917E9
:100FB000CE0DDF1DFE01E758FF4FC35BDF4F888179
:100FC000808360C1892F90E09A01280F391FF901B1
:100FD000E35BFF4F4081BC962081241709F452C186
:100FE0002E8524602E87212F20612F87FB01E10FA2
:100FF000F11D4058408B8C0F9D1FDC01A758BF4F3F
:10100000EC01C35BDF4F88818C93408960E0812FC6
:101010000E94B01737C1E92FF0E0CA018E0F9F1F61
:10102000DC01A758BF4FDC919C97CC91DC1709F4E9
:1010300029C1CA2CD12C9B012C0D3D1DD901A85AC8
:10104000BF4F8C9150972C91DA011E969C911E9760
:1010500094601E969C931E97912F90621F969C936E
:101060001F9712969C9192FF0AC090E0DC01B22B70
:101070008C2F90E08D1B91098A0F9B1F0AC02C2F8B
:1010800030E021503109AEEEA29FC001A39F900D28
:1010900011248431910510F484E190E06C0D7D1DE4
:1010A000DB01A85BBF4F9C9350968C93E40FF51F18
:1010B000DF01A758BF4FE35BFF4F80818C93E2C0F5
:1010C000292F30E0CA01820F931FFC01E758FF4F20
:1010D000F081DC01A35BBF4FEC91FE1709F4D2C095
:1010E0006A2D70E0A601460F571FDA01A858BF4FBE
:1010F0008C9150974C919E8594609E87912F906320
:101100009F879A8192FF0AC090E0DC01B42B8E2F5A
:1011100090E08F1B91098A0F9B1F0AC04E2F50E051
:1011200041505109EEEEE49FC001E59F900D11245E
:101130008431910510F48CED90E0C60ED71EF601B7
:10114000E859FF4F9083709680832C0F3D1FF90163
:10115000E758FF4FD901A35BBF4F8C91808392C0AA
:10116000E92EF12CCA018E0D9F1DFC01E758FF4F9F
:101170002081BC976081261720F4B62FB21B2B2F3D
:1011800001C0261B233008F47DC070E080E090E0B1
:101190000E942E1F20910002309101024091020214
:1011A000509103020E94931E2B013C0160910402A6
:1011B00070E080E090E00E942E1F9B01AC01C30113
:1011C000B2010E942E1E0E94FB1E862F972F9C01AB
:1011D0008E8584608E87812F80648F87B12CF60185
:1011E000EA0DFB1D60AF33232CF0F601EA0DFB1D69
:1011F00010A605C08FEFF601EA0DFB1D80A7F601D2
:10120000EA0DFB1DE551FF4F80818D7F813081F418
:10121000AC0CBD1CD501A856BF4FC50188559F4FCA
:10122000F50120A5462F6C91DC018C910E945D1781
:101230008E010E0D1F1DF801E758FF4FD801A35B6B
:10124000BF4F8C9180831EC08A32E1F4FA01E958C5
:10125000FF4F8081BC9690819817A1F0FA01968586
:101260009460968790E59787FB01E853FF4F90E0E5
:1012700091838083DA01AD55BF4FFA01E958FF4FE2
:1012800080818C93DF91CF911F910F91FF90EF9010
:10129000DF90CF90BF90AF907F906F905F904F9016
:1012A0000895EF92FF920F931F93CF937C018B01D0
:1012B000C0E08C2F7BDDB8018C2FB8DDA801B70111
:1012C0008C2FDFDDCF5FCC32A1F7CF911F910F9133
:1012D000FF90EF90089587E083BB0895A29827E0E0
:1012E000A09A662314F4A19A01C0A198A098660F51
:1012F0002150B1F721E1A09A992314F4A19A01C0D9
:10130000A198A098880F991F2150A9F7A29A089533
:10131000CF93DF93CDB7DEB7CD57DE4F6881C3588B
:10132000D140CF57DE4F28813981C158D140CA57AB
:10133000DE4F88819981C658D140822B932BCC57A0
:10134000DE4F28813981C458D140282B392BC5570D
:10135000DE4F9881CB58D14092959F70913049F0E3
:1013600028F09230D1F09330D9F01CC0C901B6DF1B
:1013700019C0C757DE4FE881C958D140F0E0EE0FE1
:10138000FF1F86E090E08C0F9D1FE80FF91FE550CE
:10139000FF4F80819181A2DF05C0C9019FDF02C09C
:1013A000C9019CDFDF91CF910895CF93DF93CDB733
:1013B000DEB7C25BD3400FB6F894DEBF0FBECDBF21
:1013C00019820E9483130E94160132D88FE094E0A4
:1013D000B7DB0E94AF1978944AE855E06FE074E0FB
:1013E000CE0101962FDC22DC69818AE895E0D7DB0B
:1013F00072DFC7DC0E9407170E94E9126091910515
:101400008FE094E00E94FA1B00E010E00F2EFCE257
:10141000DF2EF02D9801AFE2BAEB0E9413209695D3
:101420008795929582958F7089279F708927D89E7E
:101430009001D99E300D11247801E21AF30A8E2D05
:10144000B5DC6AE875E08E2DF1DC0F5F1F4F083BBD
:1014500081E01807F9F68AE895E007DD69818AE8F6
:1014600095E00E941B1E8DB79EB7825F91090FB653
:10147000F8949EBF0FBE8DBFADB7BEB7119682EF79
:10148000EAE8F5E001900D928A95E1F78DB79EB7F5
:101490008B5791400FB6F8949EBF0FBE8DBFADB76E
:1014A000BEB711968BE791E0EFE0F4E001900D926A
:1014B0000197E1F7CE01029639D1F89478940FB6EE
:1014C000F894DEBF0FBECDBF6AE875E08FE094E010
:1014D0000E941D010AE815E01F930F938DB79EB778
:1014E0008B5791400FB6F8949EBF0FBE8DBFADB71E
:1014F000BEB711968BE791E0EFE0F4E001900D921A
:101500000197E1F70E9486018DB79EB783589E4FE1
:101510000FB6F894DEBF0FBECDBF825F91090FB644
:10152000F8949EBF0FBE8DBFADB7BEB7119682EFC8
:10153000F80101900D928A95E1F78DB79EB78B5710
:1015400091400FB6F8949EBF0FBE8DBFADB7BEB72A
:1015500011968BE791E0EFE0F4E001900D92019796
:10156000E1F7D6DE0FB6F894DEBF0FBECDBFB801EF
:101570008FE094E096DEB8018FE094E073D81F937B
:101580000F938DB79EB78B5791400FB6F8949EBFBF
:101590000FBE8DBFADB7BEB711968BE791E0EFE000
:1015A000F4E001900D920197E1F70E9407160FB643
:1015B000F894DEBF0FBECDBFA8016FE074E0CE018E
:1015C0000296F4D18DB79EB7825F91090FB6F89459
:1015D0009EBF0FBE8DBFADB7BEB7119682EFF801AB
:1015E00001900D928A95E1F78DB79EB78B57914088
:1015F0000FB6F8949EBF0FBE8DBFADB7BEB71196A4
:101600008BE791E0EFE0F4E001900D920197E1F7B4
:10161000F0D70FB6F894DEBF0FBECDBFB8018FE094
:1016200094E00E94311950CF1F920F920FB60F9283
:1016300011240BB60F922F933F934F935F936F93A9
:101640007F938F939F93AF93BF93EF93FF9380917B
:10165000000490910104A0910204B091030401964A
:10166000A11DB11D8093000490930104A093020476
:10167000B09303046091000470910104809102040E
:101680009091030428E230E040E050E00E94CD1F3A
:10169000672B682B692BF9F483B12091FF038095A8
:1016A000382F3227909106029323892F80958093BB
:1016B00006029091050293239827909305028323B5
:1016C0008923922F98279093FF0320910D0489235B
:1016D000822B80930D04609100047091010480912D
:1016E00002049091030424E630E040E050E00E94C0
:1016F000CD1F672B682B692B31F46AE875E08FE00A
:1017000094E00E94FE02FF91EF91BF91AF919F91F3
:101710008F917F916F915F914F913F912F910F909A
:101720000BBE0F900FBE0F901F901895CF92DF92B7
:10173000EF92FF920F931F93CF93DF93CDB7DEB756
:101740008C01C257DE4FE880CE58D1404FEA52E0BC
:1017500060E070E0B6D940EC52E061E070E0C801B2
:10176000B0D949EC52E062E070E0C801AAD94EEC71
:1017700052E063E070E0C801A4D968018DEBC80EA7
:10178000D11C43ED52E060E070E0C6019AD940EC14
:1017900052E061E070E0C60194D941EE52E062E0AF
:1017A00070E0C6018ED948EE52E063E070E0C601F9
:1017B00088D9680186E8C81A8EEFD80A45EF52E04A
:1017C00060E070E0C6017DD944E053E061E070E084
:1017D000C60177D94BE053E062E070E0C60171D9F1
:1017E00045E153E063E070E0C6016BD94FE153E09F
:1017F00064E070E0C60165D94DE253E065E070E059
:10180000C6015FD9680189ECC81A8DEFD80A41E496
:1018100053E061E070E0C60154D94FE453E062E068
:1018200070E0C6014ED944EF53E063E070E0C601BA
:1018300048D94DE553E060E070E0C60142D9680147
:101840008CE0C81A8DEFD80A4DE653E060E070E0F6
:10185000C60137D941E853E061E070E0C60131D9F3
:101860004DE853E062E070E0C6012BD942EA53E054
:1018700063E070E0C60125D947EB53E064E070E017
:10188000C6011FD9CC52DF4F28813981C45DD040B9
:1018900043E065E0C8018A96ABD7C956DE4F288180
:1018A000C759D14030E02F5F3F4F42E06EE0C801A2
:1018B000845B9D4F9DD7F12C8FEFE81AF80A9701B2
:1018C00043E069E0C801459693D7970143E069E09A
:1018D000C8018E529F4F8CD7CA52DF4F2881C65DF8
:1018E000D04030E042E067E0C80189519F4F80D787
:1018F000C157DE4F2881CF58D14030E02F5F3F4F96
:1019000042E06DE0C80184509F4F72D7E12CF12C6A
:10191000B701C80155D78FEFE81AF80A0B5E1F4FC1
:1019200084E0E816F104A1F7DF91CF911F910F91A8
:10193000FF90EF90DF90CF900895EF92FF920F937A
:101940001F93CF93DF93EC018B017A01FB01E853E6
:10195000FF4F2081318143E065E08A9649D7F80145
:10196000E653FF4F208130E042E067E0CE0189512D
:101970009F4F3ED7F701278130E02F5F3F4F43E075
:1019800069E0CE018E529F4F33D7F701278130E0B7
:101990002F5F3F4F43E069E0CE01459629D7DF91A5
:1019A000CF911F910F91FF90EF9008958F929F928A
:1019B000AF92BF92CF92DF92EF92FF920F931F935D
:1019C000CF93DF938C017B01EA018E8580FFDAC221
:1019D0001E868A8590E08B33910508F0D0C2FC0109
:1019E0008827E355FF4F8F4F0C940B20C801A5DFCC
:1019F00060E070E0C801E4D661E070E0C80145969F
:101A0000DFD662E070E0C8018A96DAD663E070E063
:101A1000C801CF96D5D6B3C260E070E0C801835448
:101A20009F4FCED661E070E0C8018E529F4FC8D65E
:101A300062E070E0C80189519F4FC2D663E070E058
:101A4000C80184509F4FBCD681E18A8788E0F801A5
:101A5000EB51FF4F808380E275968083759680837B
:101A600061E070E0C8018E529F4FAAD662E070E03C
:101A7000C80189519F4FA4D663E070E0C80184502B
:101A80009F4F9ED67CC2C80158DF61E070E0C8015C
:101A90008E529F4F95D673C280E2F801EB51FF4FF3
:101AA000808398E0759690837596808361E070E0FE
:101AB000C8018E529F4F84D662E070E0C801895100
:101AC0009F4F7ED663E070E0C80184509F4F78D668
:101AD00056C2FB01E653FF4F208130E042E067E051
:101AE000680187EEC80ED11CC60182D662E070E0A4
:101AF000C60166D644C280E2F801EB51FF4F8083F5
:101B00007596808388E07596808361E070E0C801F7
:101B10008E529F4F55D662E070E0C80189519F4FA9
:101B20004FD663E070E0C80184509F4F49D627C26A
:101B3000288530E02F5F3F4F42E06EE068019CEF68
:101B4000C90ED11CC60154D663E070E0C60138D678
:101B500016C260E070E0C80186589E4F31D661E041
:101B600070E0C80181579E4F2BD662E070E0C8013B
:101B70008C559E4F25D663E070E0C80187549E4F78
:101B80001FD681E28A8788E0F801EE55FE4F8083F8
:101B900080E2759680837596808361E070E0C8016D
:101BA00081579E4F0DD662E070E0C8018C559E4F64
:101BB00007D663E070E0C80187549E4F01D6DFC1AD
:101BC0008985DB01A80FB11DFD01E856FF4F20817B
:101BD00030E0322F222770968081282B44E06AE083
:101BE0006801B1E7CB1ABEEFDB0AC60101D661E09E
:101BF00070E0C601E5D5C3C180E2F801EE55FE4FA5
:101C0000808398E0759690837596808361E070E09C
:101C1000C80181579E4FD4D562E070E0C8018C5551
:101C20009E4FCED563E070E0C80187549E4FC8D563
:101C3000A6C18985FB01E80FF11DE857FF4F8081A0
:101C4000882319F0813079F01CC083E5F801E25552
:101C5000FE4F80838FE6319680839CE63196908399
:101C6000319680830EC080E5F801E255FE4F8083F7
:101C70008FE6319680838CE63196808389E73196B2
:101C8000808362E070E0C8018C559E4F99D577C182
:101C900080E2F801EE55FE4F80837596808388E0E0
:101CA0007596808361E070E0C80181579E4F88D5AA
:101CB00062E070E0C8018C559E4F82D563E070E011
:101CC000C80187549E4F7CD55AC18985FB01E80F16
:101CD000F11D208D30E02F5F3F4F42E06AE0680148
:101CE000E7E4CE1AEEEFDE0AC60182D563E070E0CB
:101CF000C60166D544C180E2F801E954FE4F8083F5
:101D00007596808388E07596808361E070E0C801F5
:101D10008C559E4F55D562E070E0C80187549E4FA8
:101D20004FD563E070E0C80182539E4F49D527C16B
:101D30008985FB01E80FF11DE551FF4F808181305E
:101D4000A9F028F08230F9F0833051F137C081E4F6
:101D5000F801E452FE4F80838DE23196808382E564
:101D60003196808380E23196808328C082E5F80135
:101D7000E452FE4F808380E23196808331968083E7
:101D8000319680831BC081E4F801E452FE4F8083CA
:101D900080E23196808331968083319680830EC0B5
:101DA0008EE4F801E452FE4F80838FE63196808303
:101DB0008EE63196808385E63196808363E070E01D
:101DC000C80182539E4FFCD4DAC080E2F801E4538C
:101DD000FE4F80837596808388E07596808361E0EE
:101DE00070E0C80187549E4FEBD462E070E0C801F8
:101DF00082539E4FE5D463E070E0C8018D519E4F41
:101E0000DFD4BDC089859B01280F311DF901E55341
:101E1000FF4F208130E0322F222770968081282BBF
:101E200045E06DE068018DE1C81A8EEFD80AC60161
:101E3000DFD4D801A051BE4F8C91F801E151FE4F83
:101E40008083329680818C938EE2808363E070E0A1
:101E5000C601B6D494C060E070E0C801895C9D4FB3
:101E6000AFD461E070E0C801845B9D4FA9D462E00B
:101E700070E0C8018F599D4FA3D463E070E0C801A2
:101E80008A589D4F9DD481E38A8788E0F801E15A02
:101E9000FD4F808380E2759680837596808361E034
:101EA00070E0C801845B9D4F8BD462E070E0C80194
:101EB0008F599D4F85D463E070E0C8018A589D4FCB
:101EC0007FD45DC0288930E02F5F3F4F42E06EE055
:101ED000680194EBC91A9DEFD90AC60189D461E063
:101EE00070E0C6016DD44BC080E2F801E15AFD4FAD
:101EF000808398E0759690837596808361E070E0AA
:101F0000C801845B9D4F5CD462E070E0C8018F59CA
:101F10009D4F56D463E070E0C8018A589D4F50D45D
:101F20002EC08985FA01E80FF11D41896EE0680134
:101F3000AFE9CA1AADEFDA0AC60120D662E070E056
:101F4000C6013ED41CC080E2F801E15AFD4F8083F7
:101F50007596808388E07596808361E070E0C801A3
:101F6000845B9D4F2DD462E070E0C8018F599D4F76
:101F700027D463E070E0C8018A589D4F21D48A8538
:101F800080937C068E8581FF19C11E868A85829585
:101F90008F70823021F0833009F4F7C00FC129859A
:101FA00030E0C701820F931FFC01E856FF4FC0804D
:101FB000D12CDC2CCC2470968081C82A2F5F3F4F17
:101FC00042E067E05801B1E7AB1ABEEFBB0AC501BA
:101FD0000FD4960144E06AE0C5010AD48985F7016F
:101FE000E80FF11DE857FF4F8081882319F08130F9
:101FF00079F01CC083E5F801E255FE4F80838FE63F
:10200000319680839CE631969083319680830EC012
:1020100080E5F801E255FE4F80838FE6319680839C
:102020008CE63196808389E7319680838985F70134
:10203000E80FF11D208D30E02F5F3F4F42E06AE056
:10204000C80187549E4FD4D38985F701E80FF11D4D
:10205000E551FF4F80818130A9F028F08230F9F0FE
:10206000833051F137C081E4F801E452FE4F8083A0
:102070008DE23196808382E53196808380E23196CD
:10208000808328C082E5F801E452FE4F808380E21D
:102090003196808331968083319680831BC081E4A2
:1020A000F801E452FE4F808380E2319680833196BE
:1020B0008083319680830EC08EE4F801E452FE4F97
:1020C00080838FE6319680838EE63196808385E625
:1020D000319680838985F701E80FF11DE553FF4FA5
:1020E000208130E0322F222770968081282B45E016
:1020F0006DE0C8018D519E4F7BD3D801A051BE4FDA
:102100008C91F801E151FE4F8083329680818C934F
:102110008EE280838A85877F282F30E02432310544
:1021200014F0825201C081E0C82ED12C0F2EF5E1AF
:10213000BF2EF02DBC9CC001BD9C900D1124865873
:102140009E4F61E070E0800F911F3AD396012F5FA0
:102150003F4FB29EC001B39E900D112486589E4FF2
:1021600062E070E0800F911F2BD3F2E0CF0ED11C04
:10217000BC9CC001BD9C900D112486589E4F63E00D
:1021800070E0800F911F1CD319C0298530E02F5FAC
:102190003F4F42E06AE068018FE9C81A8DEFD80A24
:1021A000C60126D38985FE01E80FF11D41896EE045
:1021B000C601E4D462E070E0C60102D38E8582FFDE
:1021C00070C18F85982F9F70892E9D8590FF02C0CA
:1021D00028E001C020E082958F70823009F494C01D
:1021E00030F4882369F0813009F458C059C1843033
:1021F00009F4F6C008F4BEC0853009F43FC150C1EF
:10220000E82DF0E0D701AE0FBF1F8C91811110C0F7
:1022100080E2D801AE5FBC4F8C93EE0DFF1D208590
:1022200030E042E06FE0C8018C509D4FE1D229C000
:102230008DE2D801AE5FBC4F8C936801A3E0CA0E5B
:10224000DA1EEE0DFF1D8085809590E0019664E614
:1022500070E00E94BA1F2AE030E0B9010E94BA1F64
:10226000605DD6016C937801BCEFEB1AFB0A8085A8
:10227000809590E00196B9010E94BA1F805DF70138
:102280008083F801E250FD4F81E3880D808363E095
:1022900070E0C8018C509D4F93D202C1F801E25FFB
:1022A000FC4F81E3880D8083912CF701E80DF91D27
:1022B0008089882394F48DE2F801E05FFC4F8083ED
:1022C000F701E80DF91D2089209530E043E068E032
:1022D000C801875F9C4F8CD210C08BE2F801E05F91
:1022E000FC4F8083F701E80DF91D208930E043E0C1
:1022F00068E0C801875F9C4F7BD263E070E0C80153
:10230000875F9C4F5DD2CCC0912CC22ED12CC401D2
:102310008C0D9D1D5801F2EEAF1AFCEFBF0AE80EBE
:10232000F91EF701E85BFF4F208130E0322F2227B2
:1023300070968081282B45E06EE0C50159D2F801E6
:10234000E55DFC4FD801A45DBC4F8C918083329633
:1023500080818C938EE2808394012F5F3F4F2C0D00
:102360003D1D42E06AE0C50143D263E070E0C50173
:1023700027D296C0912CC22ED12CC4018C0D9D1D4C
:1023800058012DECA21A2CEFB20AE80EF91EF70143
:10239000E859FF4F208130E0322F2227709680814C
:1023A000282B45E06FE0C50123D2F801EF5BFC4F1D
:1023B000D801AE5BBC4F8C918083329680818C9328
:1023C0008EE2808394012F5F3F4F2C0D3D1D42E034
:1023D0006BE0C5010DD263E070E0C501F1D160C0D2
:1023E000C22ED12CC80CD11CF701EC0DFD1D80A50F
:1023F000811111C080E2F801E95AFC4F8083F70196
:10240000EC0DFD1D20AD30E042E060E1C801885BCD
:102410009C4FEED125C08DE2F801E95AFC4F808334
:102420003196EC0CFD1CD701D8968C91809590E0EC
:10243000019664E670E00E94BA1F2AE030E0B9011C
:102440000E94BA1F605D60833196D701D8968C9147
:10245000809590E00196B9010E94BA1F805D80834B
:10246000085B1C4F96012F5F3F4F42E06CE0C801B4
:10247000BFD163E070E0C801A3D112C0065D1F4F59
:10248000F701E853FF4F2081318143E065E0C80147
:10249000AFD18A85811104C062E070E0C80190D19B
:1024A0001E86DF91CF911F910F91FF90EF90DF90EB
:1024B000CF90BF90AF909F908F9008951F920F92F2
:1024C0000FB60F9211240BB60F922F933F935F9389
:1024D0006F937F938F939F93AF93BF93EF93FF93EC
:1024E00020913601822F82958F708850823078F447
:1024F0008091050490E0FC01EE0FFF1F8E0F9F1FDF
:10250000FC01E358F94F20831092070250C08091DC
:102510000702811115C08091050490E030910702F7
:10252000FC01EE0FFF1FE80FF91FE358F94FE30F0F
:10253000F11D2183809107028F5F8093070237C0CE
:10254000809107028F3F99F18091050490E03091CE
:102550000702FC01EE0FFF1FE80FF91FE358F94FC8
:10256000E30FF11D21838091050490E0FC01EE0F43
:10257000FF1F8E0F9F1FFC01E358F94F20818091B0
:10258000050490E001966AE070E00E94BA1F809313
:1025900005048091050490E0FC01EE0FFF1F8E0FF3
:1025A0009F1FFC01E358F94F208310920702FF910F
:1025B000EF91BF91AF919F918F917F916F915F91BB
:1025C0003F912F910F900BBE0F900FBE0F901F9059
:1025D0001895109235018FE180933401E1E3F1E029
:1025E000808188698083E2E3F1E080818660808376
:1025F00008959F92AF92BF92CF92DF92EF92FF9297
:102600000F931F93CF93DF93CDB7DEB7E091040410
:1026100080910504E81709F44DC07E0186E7E81AA9
:102620008EEFF80ACE2CDF2C0AE010E0F0E0CF01AC
:10263000880F991FE80FF91FE358F94F8081228115
:10264000908182958F70893039F5222329F19F700E
:10265000F7018089981320C05701F1E1AF0EB11C3A
:10266000912C8091040490E0FC01EE0FFF1F8E0F6F
:102670009F1FFC01E358F94F9181F50181915F01A2
:10268000981306C0492D6C2D7D2DCE010F968CD44C
:102690009394F0E19F12E5CF8091040490E00196BD
:1026A000B8010E94BA1FE82F8093040480910504AA
:1026B0008E13BCCFDF91CF911F910F91FF90EF90C0
:1026C000DF90CF90BF90AF909F900895E2E0F1E04F
:1026D00080818062808385E08A95F1F700008081A7
:1026E0008F7D80830895E2E0F1E090819F7B90836D
:1026F00088B9ECCF0895E2E0F1E090819064908396
:1027000088B9E4CF089580E6809301018FEF87B9FF
:10271000E2E0F1E080818F79808318B88FE193E067
:102720000197F1F700C000008AE2DDDF81E7DBDF1F
:102730008CE5E1DF88E2D7DF88E0D5DF8AE2D3DF0E
:1027400089E7D1DF85EDCFDF80E7CDDF88E7CBDF1D
:1027500089E0C9DF86E0C7DF82E7C5DF8AE0CBDF3B
:1027600089E7C1DF8AEDBFDF80E1BDDF8CEDBBDF34
:1027700080E0B9DF81E8B7DF8FE7B5DF89EDB3DF50
:1027800081EFB1DF8BEDAFDF80E4ADDF88E7ABDF5A
:1027900088E2A9DF81E0A7DF8FE39FE10197F1F7EE
:1027A00000C0000080E89FDF8CE09DDF9FEF24E306
:1027B0008CE0915020408040E1F700C00000089577
:1027C0000F931F93CF93DF938C01FB01FF27E85FEB
:1027D000FD4F808188DFE8010C5E1F4F89918BDF00
:1027E000C017D107D9F7DF91CF911F910F910895AD
:1027F000CF93DF93F901433009F454C028F44130FA
:1028000051F0423029F1B7C1443009F495C0453048
:1028100009F40AC1B0C1EC01C60FD11DADECBCEC8E
:102820000E941320969587959695879596958795FE
:102830009C01220F331F880F991F880F991F880F43
:10284000991F820F931FE81BF90BE05DE88393C18A
:10285000EC01C60FD11DADECBCEC0E941320969587
:10286000879596958795969587959C01220F331F9E
:10287000880F991F880F991F880F991F820F931F28
:102880009F01281B390BC901805D89839F010E942C
:102890001320969587959695879596958795805D53
:1028A000888369C1EC01C60FD11DADECBCEC0E9460
:1028B00013209695879596958795969587959C0173
:1028C000220F331F880F991F880F991F880F991F98
:1028D000820F931F9F01281B390BC901805D8A83DA
:1028E000AF0156954795569547959A01ABE7B4E1E8
:1028F0000E9413209695879564E6689F9001699FD2
:10290000300D1124CF01821B930B9C01ADECBCEC6C
:102910000E9413209695879596958795969587950D
:10292000805D89839A01ABE7B4E10E9413209695FC
:102930008795805D88831FC1EC01C60FD11DADEC6A
:10294000BCEC0E9413209695879596958795969551
:1029500087959C01220F331F880F991F880F991F9D
:10296000880F991F820F931F9F01281B390BC901E4
:10297000805D8B839F013695279536952795ABE72C
:10298000B4E10E9413209695879544E6489F9001F4
:10299000499F300D1124CF01821B930B9C01ADEC9C
:1029A000BCEC0E94132096958795969587959695F1
:1029B0008795805D8A83AF015695479556954795D3
:1029C000569547959A01A5ECB0E20E941320929586
:1029D00082958F7089279F70892768EE73E0869FA4
:1029E0009001879F300D969F300D1124CF01821BDF
:1029F000930B9C013695279536952795ABE7B4E167
:102A00000E94132096958795805D89839A01A5EC95
:102A1000B0E20E941320929582958F7089279F7053
:102A20008927805D8883A7C0EC01C60FD11DADEC5E
:102A3000BCEC0E9413209695879596958795969560
:102A400087959C01220F331F880F991F880F991FAC
:102A5000880F991F820F931F9F01281B390BC901F3
:102A6000805D8C839F013695279536952795ABE73A
:102A7000B4E10E9413209695879544E6489F900103
:102A8000499F300D1124CF01821B930B9C01ADECAB
:102A9000BCEC0E9413209695879596958795969500
:102AA0008795805D8B839F01369527953695279571
:102AB00036952795A5ECB0E20E9413209295829559
:102AC0008F7089279F70892748EE53E0849F90017B
:102AD000859F300D949F300D1124CF01821B930BE5
:102AE0009C013695279536952795ABE7B4E10E9472
:102AF000132096958795805D8A83AF015295429504
:102B00004F7045275F7045279A01A7E4B3E00E9404
:102B1000132096958795969587959695879560E16C
:102B200077E2869F9001879F300D969F300D11248C
:102B3000CF01821B930B9C013695279536952795DF
:102B400036952795A5ECB0E20E94132092958295C8
:102B50008F7089279F708927805D89839A01A7E4F8
:102B6000B3E00E9413209695879596958795969544
:102B70008795805D8883DF91CF9108959C01A62F72
:102B8000EBEA4E9FE12D1124E695E695E6959FE24E
:102B90009E0F8E2F880FE80FEE0FEE0F4E1B50E0AA
:102BA0004C30510558F5FA018827E851FF4F8F4FF7
:102BB0000C940B2080E243E423C083E243E420C072
:102BC00080E244E41DC083E244E41AC080E245E4AC
:102BD00017C080E246E414C083E246E411C080E2FC
:102BE00047E40EC083E247E40BC080E241E408C042
:102BF00083E241E405C080E242E402C080E040E0BC
:102C0000F901EA0FF11D4083818392830895AF9209
:102C1000BF92CF92DF92EF92FF920F931F93CF93C9
:102C2000DF93CDB7DEB7C757DE4FC880D980C9580C
:102C3000D140CA52DF4F28813981C65DD04040E083
:102C400050E060EF79E482E090E00E94EF1FF6012F
:102C5000E551FF4F808191818217930708F45AC094
:102C6000F6018385882309F44BC0E551FF4F11829B
:102C70001082F60114821382E0910604F0E0EE0F58
:102C8000FF1F8EE090E08C0F9D1FE80FF91FE550AD
:102C9000FF4FE080F18000E010E0AA24A394B12C63
:102CA000E0FE13C0402FB601CE010E967DD1F60195
:102CB00023813481C501002E02C0880F991F0A9418
:102CC000E2F7822B932B94838383F694E7940F5F30
:102CD0001F4F0031110521F7809106048F5F80930B
:102CE000060490E0C852DF4F2881C85DD04030E034
:102CF00021503109281739076CF4109206040AC0D4
:102D000010920604F601E551FF4F11821082F60180
:102D100014821382DF91CF911F910F91FF90EF905A
:102D2000DF90CF90BF90AF9008951F920F920FB693
:102D30000F9211240BB60F922F933F938F939F9373
:102D4000EF93FF938091090490910A042091070466
:102D50003091080482179307C1F0FC01E556F94F42
:102D600080818093C6008091090490910A040196A5
:102D7000803821E092072CF490930A048093090490
:102D800004C010920A0410920904FF91EF919F91E0
:102D90008F913F912F910F900BBE0F900FBE0F9010
:102DA0001F9018952091070430910804F901E55609
:102DB000F94F80832F5F3F4F203881E038072CF494
:102DC0003093080420930704089510920804109289
:102DD000070408950F931F93CF93DF93662369F041
:102DE000EC016150062F10E00F5F1F4F080F191FF5
:102DF0008991D8DFC017D107D9F78091C00085FD30
:102E00001092C600DF91CF911F910F9108951092FB
:102E1000C50080E18093C40088E48093C10086E00F
:102E20008093C2000895CF93DF93CDB7DEB72A9782
:102E30000FB6F894DEBF0FBECDBF90EF99839AEA2C
:102E40009A839AE09B8393E09C832D838E836F8388
:102E50004887198685E58A876AE0CE010196BADF40
:102E60002A960FB6F894DEBF0FBECDBFDF91CF918B
:102E70000895CF93DF93CDB7DEB728970FB6F894B8
:102E8000DEBF0FBECDBF90EF99839AEA9A8398E098
:102E90009B8395E09C834D838E836F8385E5888734
:102EA00068E0CE01019696DF28960FB6F894DEBF53
:102EB0000FBECDBFDF91CF910895CF93DF93CDB7F4
:102EC000DEB729970FB6F894DEBF0FBECDBF90EFE7
:102ED00099839AEA9A8399E09B8398E09C838D83F7
:102EE0006E834F83288785E5898769E0CE01019647
:102EF00071DF29960FB6F894DEBF0FBECDBFDF910C
:102F0000CF910895CF92EF920F93CF93DF93CDB7E8
:102F1000DEB72C970FB6F894DEBF0FBECDBF90EF93
:102F200099839AEA9A839CE09B839AE09C838D83A1
:102F30006E834F8328870987EA86CB8685E58C8751
:102F40006CE0CE01019646DF2C960FB6F894DEBFFA
:102F50000FBECDBFDF91CF910F91EF90CF9008952D
:102F6000CF93DF93CDB7DEB728970FB6F894DEBFC7
:102F70000FBECDBF90EF99839AEA9A8398E09B8326
:102F80009CE09C838D836E834F8385E5888768E012
:102F9000CE0101961FDF28960FB6F894DEBF0FBE54
:102FA000CDBFDF91CF9108952F923F924F925F92C4
:102FB0006F927F928F929F92AF92BF92CF92EF9239
:102FC0000F931F93CF93DF9300D01F92CDB7DEB73F
:102FD0004B01142FA42EB12CFC01EA0DFB1DE55171
:102FE000FF4F2081213009F48CC038F0223009F4E1
:102FF000DFC0233009F40CC11FC19C012A0D3B1D09
:103000003C832B83F901E857FF4F290138E9430E30
:10301000511C6B807C8088EA680E711C2081AB811A
:10302000BC8158964C91F2016081D3018C91FBDEFA
:103030002B803C80B8E42B0E311CEB81FC81E85ADC
:10304000FF4FFA83E983C12CD101EC900081EB8121
:10305000FC8120A540ADD2016C91F301808152DF4B
:10306000F401E755FF4F81E090E002C0880F991FFF
:103070001A95E2F720813181822B932B91838083F3
:10308000F501EE0FFF1FEE0FFF1FE80DF91DE555CF
:10309000FF4FAB81BC81A553BF4F2C9130E0322F45
:1030A00022278B819C8185529F4FDC018C91A90145
:1030B000482BD1018C91282F30E0322F2227A98173
:1030C000BA818C91282B240F351FC901880F991FB5
:1030D000220F331F220F331F220F331F280F391FD8
:1030E000D401AB55BF4F8D919D910D90BC91A02DFA
:1030F000820F931FA11DB11D80839183A283B3838F
:103100009BC03C016A0C7B1CC30188579F4FD301B5
:10311000A856BF4F2301E8EA4E0E511CFC01208146
:10312000F301408D6C91D2018C917DDEF401E75565
:10313000FF4F81E090E002C0880F991F1A95E2F7D7
:1031400020813181822B932B91838083F501EE0FB7
:10315000FF1FEE0FFF1FE80DF91DE555FF4FD301CF
:10316000A553BF4F2C9130E0322F2227C301855247
:103170009F4FDC018C91282BC901880F991F220FCA
:10318000331F220F331F220F331F280F391FD40183
:10319000AB55BF4F8D919D910D90BC91A02D820F8D
:1031A000931FA11DB11D80839183A283B38344C06B
:1031B000FC01EA0DFB1DFA83E983E857FF4F898084
:1031C0009A8028E9820E911CA980BA8038EAA30E61
:1031D000B11C2081A981BA8158964C91F40160817B
:1031E000D5018C9120DEA981BA81A85BBF4FE9810E
:1031F000FA81E85AFF4FC12CEC900081E981FA81F5
:1032000020A540ADD4016C91F50180817BDE14C016
:10321000A80EB91EC50188579F4FD501A856BF4FAC
:103220004501F8EA8F0E911CFC012081F501408DCB
:103230006C91D4018C91F7DD0F900F900F900F904F
:10324000DF91CF911F910F91EF90CF90BF90AF90F2
:103250009F908F907F906F905F904F903F902F90B6
:1032600008952F923F924F925F926F927F928F922A
:103270009F92AF92BF92CF92EF920F93CF93DF9333
:1032800000D01F92CDB7DEB7FB01E755FF4FA080FE
:10329000B1803B012BEA620E711C88599F4F4C0193
:1032A0001C821B822B0185EA480E511CFA83E9839C
:1032B00022242394312CA0FE2CC0F30140815181A3
:1032C00062817381F20180819181A281B38184172F
:1032D0009507A607B707E8F0CC24C394F401E08073
:1032E00000892FEF4AEB60A9E05CFF4F80810ADE86
:1032F000C1010B8002C0880F991F0A94E2F78095E4
:103300009095E981FA8120813181822393239183F1
:103310008083B694A7948B819C8101969C838B8338
:1033200094E0690E711CEFEF8E1A9E0A8B819C81CE
:10333000409709F0C0CF0F900F900F900F90DF9142
:10334000CF910F91EF90CF90BF90AF909F908F90C3
:103350007F906F905F904F903F902F9008951092C4
:10336000B90088E48093B800089594EA9093BC0073
:10337000ECEBF0E090819923ECF79091B900987F05
:10338000983011F09031A1F48093BB0084E88093D1
:10339000BC00ECEBF0E080818823ECF79091B90061
:1033A000987F983139F081E0903429F480E00895D5
:1033B00081E0089580E0089584E98093BC00ECEBFF
:1033C000F0E0808184FDFDCF08958093BB0084E808
:1033D0008093BC00ECEBF0E080818823ECF79091C7
:1033E000B900987F81E0983209F480E0089584EC78
:1033F0008093BC00ECEBF0E080818823ECF78091B7
:10340000BB00089584E88093BC00ECEBF0E0808181
:103410008823ECF78091BB0008954F925F926F92E2
:103420007F928F929F92AF92BF92CF92DF92EF9254
:10343000FF920F931F93CF93DF93CDB7DEB7C4599D
:10344000D1090FB6F894DEBF0FBECDBFCD5DDD4F05
:103450004881C352D240C059DE4F8881C057D14005
:10346000CF58DE4F9881C157D140242F30E04423FC
:103470008CF0215031093901660C771C620E731EE5
:103480007694762C6624779467940F2EF0EA5F2E5C
:10349000F02D11C0205831093901660C771C260D1A
:1034A000371D39017694762C6624779467940F2E15
:1034B000F8EA5F2EF02DBE0168557F4F8E010F5F39
:1034C0001F4FFE01E055FF4F9801DB014D91BD01FB
:1034D000D9014D939D016E177F07B9F7DE0119964B
:1034E0009E0128543F4F41914D93E217F307D9F7BE
:1034F0004E01B1E18B0E911C7E01E0ECEE0EF11C51
:10350000D401F90141919F014D93EE15FF05C9F7D3
:103510009E01275E3F4FBE0160537F4FD7014D9103
:103520007D01F90141939F01A617B707B9F79E01E5
:10353000275D3F4FDE01A052BF4FFB014191BF010C
:10354000F90141939F016A177B07B9F79E01275C38
:103550003F4FBE0160517F4F4D91F90141939F0153
:10356000A617B707C9F79E01275B3F4FDE01B3954A
:10357000FB014191BF01F90141939F016A177B074C
:10358000B9F79E01275A3F4FBE01605F7E4F4D91B4
:10359000F90141939F01A617B707C9F7DE01A759A3
:1035A000BF4F5E01F0EEAF1AFEEFBF0AFB012191A3
:1035B000BF012D93EA15FB05C9F7EB969FAFEB977B
:1035C000EC968FAFEC97CE58DE4F8881C257D14032
:1035D000ED968FAFED97852DC8DE813081F484E1C3
:1035E000ECE0F2E0DE01AF57BF4F01900D928A95FB
:1035F000E1F763E070E0CE018F579F4FE1D8872D50
:10360000E4DE462C862DE1DE6E01FDE7CF0ED11CF7
:103610007801D7018D917D01D8DECE14DF04C9F782
:10362000CBDEEFE1FEE43197F1F700C000009E0130
:10363000205D3E4FF801D5018D915D0181932A17E0
:103640003B07C9F7DE019196F90181919F01F401D1
:1036500081934F01AE17BF07B9F7CE01805C9E4F33
:10366000AE014F5C5F4FFC012191CF012D93A41758
:10367000B507C9F7CE01805B9E4FDE01AF5BBF4F40
:10368000FC012191CF01FA012193AF01EA17FB0759
:10369000B9F7FE01E05AFE4F9E0120593E4F81913D
:1036A0008D932E173F07D9F7AE014D585E4FCE01CF
:1036B0008F5A9F4FDE01AD57BE4FFA012191AF01E6
:1036C000FC012193CF01A417B507B9F7CE018F599B
:1036D0009F4FAE014D565E4F2D91FC012193CF01BE
:1036E000A417B507C9F7DE01AF58BF4F7E01FDE54E
:1036F000EF1AFEEFFF0AFA018191AF018D93EE16EA
:10370000FF06C9F7852D31DE813081F484E1E1E2E5
:10371000F2E0DE01AF57BF4F01900D928A95E1F7BD
:1037200063E070E0CE018F579F4F4AD8C3018058A5
:103730009F4F892F4ADE80E8840D47DE6E01F1E855
:10374000CF0ED11CD8018D918D013FDEC016D10660
:10375000C9F732DEEFE1FEE43197F1F700C0000077
:10376000852D03DE813081F484E1E6E3F2E0DE01C1
:10377000AF57BF4F01900D928A95E1F763E070E07B
:10378000CE018F579F4F1CD87394872D1EDE842D3A
:103790001CDE6E012DEDC21A2DEFD20AD7011C914D
:1037A00011968C91B2E0EB0EF11C0FDE812F0DDE35
:1037B000CE14DF0499F700DEEFE1FEE43197F1F774
:1037C00000C00000CC56DF4F0FB6F894DEBF0FBE2E
:1037D000CDBFDF91CF911F910F91FF90EF90DF90C0
:1037E000CF90BF90AF909F908F907F906F905F90A1
:1037F0004F9008958F929F92AF92BF92CF92DF9297
:10380000EF92FF920F931F93CF93DF93CDB7DEB765
:10381000C459D1400FB6F894DEBF0FBECDBF7C01B6
:10382000862F90E0662384F001979C01220F331FBE
:10383000820F931F9695982F882797958795082F25
:10384000D92E80EA11EA10C0805891099C01220FFC
:10385000331F820F931F9695982F882797958795EA
:10386000082FD92E88EA19EA80DD813031F463E02F
:1038700070E08CEC93E00E94E0138D2DA6DD802F8C
:10388000A4DD812F72DD813009F048C184E1EBE4D1
:10389000F2E0DE01AF57BE4F01900D928A95E1F73D
:1038A00063E070E0CE018F579E4F0E94E01336C157
:1038B0009EDDD8018D938D01AC15BD05C9F7A2DD44
:1038C000C058DE4F8883C058D14076DD87014E0155
:1038D000B9E08B0E911CF701D5018D915D018193AB
:1038E000A815B905C9F7D12CF40181914F01F80150
:1038F00080874D2D60810F5F1F4FBBDAD394F8E0B6
:10390000DF12F2CF5E0181E1A80EB11C670190E1E8
:10391000C90ED11C10E0D5014D915D01F601419316
:103920006F0160E0812F1CDB1F5F1830A1F7FE01E3
:103930007996C7014896AE01475D5F4F2191DC0142
:103940002D93CD01E417F507C9F75701B8E2AB0E87
:10395000B11CDE01D996C501FA012191AF01FC012C
:103960002193CF014A175B07B9F7C701C896AE018B
:10397000475B5F4F2D91FC012193CF01A417B50741
:10398000C9F7C701885B9F4FDE01A75ABF4FFA01F5
:103990002191AF01FC012193CF014A175B07B9F7D1
:1039A000C701885A9F4FAE0147595F4F2D91FC01C7
:1039B0002193CF01A417B507C9F7D701A859BF4F65
:1039C0009E0127583F4FFA018191AF018D93E21775
:1039D000F307C9F7F701E853FF4FEB968FADEB976D
:1039E00090E0982F8827EC962FADEC97822B91834F
:1039F0008083ED968FADED9732968083AE014F5761
:103A00005F4FC70188589F4FFE01EF56FF4FDA0105
:103A10002D91AD01DC012D93CD01E417F507B9F728
:103A2000C70188579F4FAE014F555F4F2191DC0171
:103A30002D93CD014E175F07C9F7870108561F4F19
:103A40004E01B1EB8B0E911CF801DA018D91AD01A5
:103A500081938A169B06C9F76E01B1ECCB0ED11C7F
:103A6000F40181914F01F801808BD5012D915D0109
:103A70001F964C9160810F5F1F4F1FDAC814D90445
:103A800079F7970128543F4FDE01AF52BF4FF6013F
:103A900081916F01F90181939F01CA16DB06B9F785
:103AA000C70185539F4FAE014F515F4F2D91FC01D0
:103AB0002193CF014A175B07C9F7C70185529F4F72
:103AC000BE016F507F4FDA012D91AD01FC012193B2
:103AD000CF01A617B707B9F7C70185519F4FFE0160
:103AE000EF5FFE4FDB012D91BD01DC012D93CD0178
:103AF000E617F707B9F7D701A550BF4FAE014F57EB
:103B00005E4F808190E0982F88272181822B8D93B2
:103B10009D9332964E175F07A1F70AC0FE013196BA
:103B20005F016E01F0E8CF1AFEEFDF0A8501C0CE1B
:103B3000CC56DE4F0FB6F894DEBF0FBECDBFDF917F
:103B4000CF911F910F91FF90EF90DF90CF90BF909A
:103B5000AF909F908F900895FF920F931F93CF93F4
:103B6000DF93CDB7DEB765970FB6F894DEBF0FBE13
:103B7000CDBF85E1E1EEF3E0DE01119601900D92FB
:103B80008A95E1F710E00F2EFFE4FF2EF02D0BEDEC
:103B90001F938DB79EB78B5791400FB6F8949EBF79
:103BA0000FBE8DBFADB7BEB711968BE791E0FE019A
:103BB0007E9601900D920197E1F72FDC8FE19EE454
:103BC0000197F1F700C000001F9D812D11248695FB
:103BD0008695E1E0F0E0EC0FFD1FE80FF11D00839A
:103BE0000FB6F894DEBF0FBECDBF63E070E0CE012C
:103BF00001960E94E0131F5F1F3F51F665960FB6B6
:103C0000F894DEBF0FBECDBFDF91CF911F910F9112
:103C1000FF900895CF93DF93EC01688980E090E0F6
:103C200046D240E150E061E070E0CE01419636D2EC
:103C3000DF91CF910895CF93DF9361110CC0EC0118
:103C400080E090E023D2888B40E150E061E070E0BA
:103C5000CE0141960BD2DF91CF9108955058BB27EA
:103C6000AA270ED04DC13ED130F043D120F031F41F
:103C70009F3F11F41EF433C10EF4E095E7FB29C118
:103C8000E92F4FD180F3BA176207730784079507AE
:103C900018F071F49EF567C10EF4E0950B2EBA2F63
:103CA000A02D0B01B90190010C01CA01A001112442
:103CB000FF27591B99F0593F50F4503E68F11A16EE
:103CC000F040A22F232F342F4427585FF3CF46957F
:103CD00037952795A795F0405395C9F77EF41F16A1
:103CE000BA0B620B730B840BBAF09150A1F0FF0F6B
:103CF000BB1F661F771F881FC2F70EC0BA0F621F57
:103D0000731F841F48F4879577956795B795F79546
:103D10009E3F08F0B3CF9395880F08F09927EE0FD8
:103D20009795879508950CD0EBC0E3D040F0DAD09A
:103D300030F021F45F3F19F0CCC0511115C1CFC054
:103D4000F0D098F39923C9F35523B1F3951B550B84
:103D5000BB27AA2762177307840738F09F5F5F4F5E
:103D6000220F331F441FAA1FA9F333D00E2E3AF09F
:103D7000E0E830D091505040E695001CCAF729D0B9
:103D8000FE2F27D0660F771F881FBB1F2617370708
:103D90004807AB07B0E809F0BB0B802DBF01FF2738
:103DA00093585F4F2AF09E3F510568F092C0DCC0E7
:103DB0005F3FECF3983EDCF3869577956795B79572
:103DC000F7959F5FC9F7880F911D9695879597F98D
:103DD0000895E1E0660F771F881FBB1F6217730706
:103DE0008407BA0720F0621B730B840BBA0BEE1F1B
:103DF00088F7E095089504D06894B111B5C008958E
:103E000098D088F09F5790F0B92F9927B751A0F01C
:103E1000D1F0660F771F881F991F1AF0BA95C9F75E
:103E200012C0B13081F09FD0B1E008959CC0672FDF
:103E3000782F8827B85F39F0B93FCCF3869577950E
:103E40006795B395D9F73EF49095809570956195F7
:103E50007F4F8F4F9F4F0895E89409C097FB3EF422
:103E600090958095709561957F4F8F4F9F4F9923C7
:103E7000A9F0F92F96E9BB279395F6958795779545
:103E80006795B795F111F8CFFAF4BB0F11F460FF05
:103E90001BC06F5F7F4F8F4F9F4F16C0882311F05D
:103EA00096E911C0772321F09EE8872F762F05C071
:103EB000662371F096E8862F70E060E02AF09A950C
:103EC000660F771F881FDAF7880F9695879597F901
:103ED000089597F99F6780E870E060E008959FEF8C
:103EE00080EC089500240A94161617061806090691
:103EF000089500240A941216130614060506089560
:103F0000092E0394000C11F4882352F0BB0F40F4E7
:103F1000BF2B11F460FF04C06F5F7F4F8F4F9F4F27
:103F2000089557FD9058440F551F59F05F3F71F0A9
:103F30004795880F97FB991F61F09F3F79F0879510
:103F40000895121613061406551FF2CF4695F1DF99
:103F500008C0161617061806991FF1CF8695710529
:103F6000610508940895E894BB2766277727CB015D
:103F700097F9089597FB072E16F4009406D077FD65
:103F800008D060D007FC05D03EF4909581959F4FF6
:103F90000895709561957F4F0895A1E21A2EAA1B8E
:103FA000BB1BFD010DC0AA1FBB1FEE1FFF1FA217E9
:103FB000B307E407F50720F0A21BB30BE40BF50BE6
:103FC000661F771F881F991F1A9469F7609570956F
:103FD000809590959B01AC01BD01CF010895052E00
:103FE00097FB16F400940FD057FD05D0D6DF07FCE1
:103FF00002D046F408C050954095309521953F4F2A
:104000004F4F5F4F089590958095709561957F4FC4
:104010008F4F9F4F0895EE0FFF1F881F8BBF079094
:10402000F691E02D1994A29FB001B39FC001A39F08
:10403000700D811D1124911DB29F700D811D1124E1
:10404000911D0895AA1BBB1B51E107C0AA1FBB1FEE
:10405000A617B70710F0A61BB70B881F991F5A9514
:10406000A9F780959095BC01CD010895DC01CB01A5
:10407000FC01F999FECF06C0F2BDE1BDF89A319678
:1040800000B40D9241505040B8F70895F999FECF11
:1040900092BD81BDF89A992780B50895DC01CB01C6
:1040A00002C02D9105D041505040D8F70895262FD9
:1040B000F999FECF1FBA92BD81BD20BD0FB6F8940D
:0E40C000FA9AF99A0FBE01960895F894FFCF70
:1040CE00D7A3484047FFFFFF80A0C0E04164647261
:1040DE00657373205772697465204572726F723101
:1040EE00004164647265737320577269746520456C
:1040FE0072726F723200416464726573732057720C
:10410E00697465204572726F723300416464726522
:10411E0073732052656164204572726F7232200093
:10412E000001010001000001010000010001010079
:10413E00466163746F727952657365743F202020F7
:10414E00202020200050726F67726573733A202012
:10415E00202020202020202020007965733F202061
:10416E002020202020206E6F3F2020202020005075
:10417E006572666F726D616E6365204D6F6465006A
:10418E005061747465726E3A0042504D3A00537429
:10419E006F700053657175656E6365204564697453
:1041AE000053746570733A0053746570206E756DAC
:1041BE006265723A00547261636B20536574746960
:1041CE006E677300547261636B3A00506C61794D87
:1041DE006F64653A004F7574526F7574653A004599
:1041EE006E76656C6F70654D6F64653A00537573CE
:1041FE007461696E54696D653A2020202020205329
:10420E00004D696469204368616E6E656C3A004DBD
:10421E0069646920747269672020203A00476C6FC8
:10422E0062616C2053657474696E6773004F7574A8
:10423E00566F6C756D652078203A207878786462B8
:10424E00005069746368203A20787878004174745D
:10425E0061636B54696D6520203A20202020202058
:10426E00530052656C6561736554696D6578783A73
:10427E0078782078787800547261636B566F6C751D
:10428E006D652078783A787878646200416464725B
:10429E006573732052656164204572726F723120AE
:1042AE000020202020202020202020202020202020
:0642BE002020202020005A
:00000001FF
