S01800005473756E616D694353314D61737465722E73726563F8
S1130000F3C0000011C100000FC100004FC2000086
S11300106DC200008BC20000A9C2000005C100002F
S113002003C1000001C10000FFC00000FDC00000CA
S1130030FBC00000F9C00000F7C00000F6C00000DB
S1130040F3C00000F1C00000EFC00000EDC00000EC
S1130050EBC000000C943715E7C00000E5C00000B9
S1130060E3C00000E1C00000DFC000000C94B41540
S1130070DBC00000D9C00000D7C00000D5C000001C
S11300800C94890AD1C00000CFC00000CDC000008C
S1130090CBC00000C9C00000C7C00000C5C000003C
S11300A0C3C00000C1C00000BFC00000BDC000004C
S11300B0BBC00000B9C00000B7C00000B5C000005C
S11300C0B3C00000B1C00000AFC00000ADC000006C
S11300D0ABC00000A9C000000C947811A5C00000BA
S11300E0A3C000000D03F704F704F704F704F704B2
S11300F0F704F704F704F704F704F704F704F70424
S1130100F704F704F704240341036803F704F7042E
S1130110F704F704F7042C0349037003F704F70406
S1130120F704F704F7048B03C003D403090475042C
S1130130F704F704F7049303C803DC0311047D04F4
S1130140F704F704F704B704D104F004F704F70440
S1130150F704F704F704BF04D904100CD90ED90E20
S1130160D90ED90ED90ED90ED90ED90ED90ED90E53
S1130170D90ED90ED90ED90ED90E260C400C660C08
S1130180950CD90ED90ED90ED90ED90E5D0C830C4F
S1130190B20CD90ED90ED90ED90EC30CDD0C160D26
S11301A0620D950DFF0DD90ED90ED90EFA0C330D33
S11301B07F0DB20D1C0ED90ED90E450E5F0E8E0E9C
S11301C0BD0ED90ED90ED90ED90ED90E7C0EAB0E9A
S11301D00115041507150A150D1510151315161517
S11301E019151C151F15221511241FBECFEFD1E2BE
S11301F0DEBFCDBF00E00CBF13E0A0E0B2E0E0E959
S1130200FEE300E00BBF02C007900D92A63EB107CB
S1130210D9F727E0A6EEB3E001C01D92AC3FB207C8
S1130220E1F799D70C94461FEBCE1F920F920FB6AD
S11302300F9211242F933F938F939F9383B1209117
S1130240E6038095382F3227909101029323892F5A
S113025080958093010290910002932398279093B4
S1130260000283238923922F98279093E6032091F9
S1130270F9038923822B8093F9039F918F913F91F6
S11302802F910F900FBE0F901F9018958FEF82B98A
S113029080930B018FE785B90895CF92DF92EF9297
S11302A0FF920F931F93CF936C0120910901209526
S11302B02093F70390B130E0322F22279095292B19
S11302C0DB012D933C934091E7035091E8032417FD
S11302D0350709F443C07B013093E8032093E70317
S11302E0FB0100811181C0E0902F91709093F8037D
S11302F0992379F1D70116969C9192959F7091302C
S113030051F018F0943028F51AC04C2FB701C601EB
S11303100E9402171EC0D7011496EC911497F0E0C6
S1130320EE0FFF1FEC0DFD1DE550FF4F20813181C5
S11303308D919C9182279327918380830AC0F70132
S1130340C5838285826082874C2FB701C6010E94D3
S1130350021716950795CF5FC03131F6CF911F91E3
S11303600F91FF90EF90DF90CF900895FF920F933D
S11303701F93CF93DF93CDB7DEB7CC57DE4F088101
S11303801981C458D14080E277D0882341F1F80123
S1130390868182958F70833021F4C8010E94EB1C02
S11303A01EC0F80183818F938DB79EB78B57914000
S11303B00FB6F8949EBF0FBE8DBFADB7BEB71196F2
S11303C08BE791E0FE01399601900D920197E1F7D8
S11303D00E94EE180FB6F894DEBF0FBECDBF80E4C6
S11303E04BD0882351F0F801868183FF03C0877FB7
S11303F0868303C08860F8018683F801F78080E172
S11304003BD0882371F0F0FE06C0F8011782828188
S11304108F7D828306C081E0F801878382818062B8
S11304208283F801F18481E027D0882371F0F0FE03
S113043006C0F801118682818D7F828306C081E027
S1130440F8018187828182608283F801F28082E0F0
S113045013D0882359F0F2FE05C0F80182818B7F06
S1130460828304C0F801828184608283DF91CF910A
S11304701F910F91FF9008952FB7F8949091F9036D
S113048089239091F90398279093F9032FBF089536
S1130490E9E6F0E08081806F8083EAE6F0E0808125
S11304A08F6080838DB38C638DBB08951F920F92F0
S11304B00FB60F9211248F938091E90381FF0BC033
S11304C08091EC0381508093EC038091E9038C705C
S11304D08093E90305C08091E90381608093E90377
S11304E08F910F900FBE0F901F9018951F920F922F
S11304F00FB60F9211248F938091E90380FF0BC0F4
S11305008091EC038F5F8093EC038091E9038C70FE
S11305108093E90305C08091E90382608093E90335
S11305208F910F900FBE0F901F9018951F920F92EE
S11305300FB60F9211248F938091E90383FF0BC0B0
S11305408091ED038F5F8093ED038091E9038370C5
S11305508093E90305C08091E90384608093E903F3
S11305608F910F900FBE0F901F9018951F920F92AE
S11305700FB60F9211248F938091E90382FF0BC071
S11305808091ED0381508093ED038091E9038370A2
S11305908093E90305C08091E90388608093E903AF
S11305A08F910F900FBE0F901F901895CF93DF93EC
S11305B09C01FB019091ED038091EB03981789F066
S11305C09091ED0393709295907F96831092EC0333
S11305D01092EA038285816082878091ED03809383
S11305E0EB039091EC038091EA03981709F403C29A
S11305F09091EC03A92FA81B928591609287468164
S113060050E04B33510508F0F2C1EF01FA0188279D
S1130610EE58FF4F8F4F0C94CA1EA13041F48B81CA
S11306208F5F11F08B830BC08FEF8B8308C0AF3FBC
S113063031F48B81815010F08B8301C01B826B815C
S1130640C9010E94DB1AD3C1A13019F483E18E835E
S1130650CEC182E18E83CBC1A13041F48B818F5F07
S113066011F08B8309C08FEF8B8306C08B8181507F
S113067010F08B8301C01B826B81C9010E94DB1ABD
S1130680B6C1A13019F481E18E83B1C183E18E83B7
S1130690AEC1A13079F4F901E653FF4F90819F5F19
S11306A0913410F49083A3C1F901E653FF4F80E421
S11306B080839DC1F901E653FF4F9081915011F061
S11306C0908395C1F901E653FF4F81E080838FC188
S11306D0A13019F482E18E838AC181E18E8387C1BE
S11306E0A13069F49C819F5F9C83F901E653FF4F1D
S11306F08081981708F47BC181508C8378C19C81D8
S113070091509C83F901E653FF4F8081891708F0CB
S11307106EC11C826CC1A13019F485E28E8367C15D
S113072082E28E8364C18D8190E0B901680F791FE4
S1130730FB01E856FF4F408150E0542F4427709648
S11307406081462BA13049F44F5F5F4F413060E137
S1130750560740F040E050E105C04150510911F402
S113076041E050E0820F931FFC01E855FF4F4083A6
S11307708D81280F311DF901E856FF4F508337C191
S1130780A13019F481E28E8332C183E28E832FC1BA
S11307908D81280F311DF901E857FF4F81E09081C9
S11307A0911180E0808323C1A13019F482E28E8309
S11307B01EC184E28E831BC1A130B1F48D81F90185
S11307C0E80FF11D808D8F5F808F8D8190E0F9019E
S11307D0E80FF91F408D483008F409C1F901E80F0A
S11307E0F91F87E0808F03C18D81F901E80FF11DA6
S11307F0808D8150808F8D8190E0F901E80FF91F81
S1130800408D483008F4F3C0F901E80FF91F108E49
S1130810EEC0A13019F483E28E83E9C085E28E83B1
S1130820E6C0A130D9F48D81F901E80FF11DE5513D
S1130830FF4F80818F5F80838D8190E0F901E80F05
S1130840F91FE551FF4F4081443008F1820F931F97
S1130850FC01E551FF4F83E0808319C08D81F901CC
S1130860E80FF11DE551FF4F8081815080838D8118
S113087090E0F901E80FF91FE551FF4F4081443042
S113088030F0820F931FFC01E551FF4F10828D81E0
S113089090E0F901E80FF91FE551FF4F40814D7FCA
S11308A089F4280F391FF901E856FF4F608170E081
S11308B0709680812AEB30E04FEF50E090E00E9488
S11308C08B1695C0F901E80FF91F20A530E040AD63
S11308D050E0DF01A856BF4F6C9170E0E855FF4F20
S11308E0808190E00E948B1682C0A13019F484E2CA
S11308F08E837DC081E28E837AC04D8150E0B90140
S1130900640F751FFB01E553FF4F808190E0982F22
S1130910882770966081862BA13071F46A8162FF0A
S113092002C0019602C084519F4F8136EAEE9E07B1
S113093080F080E69AEE0DC06A8162FF02C00197E2
S113094002C08C5E91098136FAEE9F0710F080E0B8
S113095090E0420F531FFA01E553FF4F90839D81AE
S1130960290F311DF901E552FF4F808340C0A130AA
S113097019F481E38E833BC082E38E8338C0A130B7
S113098049F48C858F5F803110F48C8730C08FE000
S11309908C872DC08C85815010F08C8728C01C86D4
S11309A026C0A13019F481E38E8321C082E38E83B3
S11309B01EC0ED812E2F30E0CE01820F931FFC016B
S11309C08585A13021F48F5F32F48FE704C0815014
S11309D0813808F080E0F901EC0FFD1F858707C01E
S11309E0A13019F482E38E8302C081E38E83809167
S11309F0EC038093EA03DF91CF9108959091ED0386
S1130A008091EB03981721F08091ED038170089594
S1130A1082E008950F931F93CF93DF93EC01FA01C3
S1130A2001900020E9F731978F01041B150B902FDB
S1130A3084E1801B0023A9F0FA0125E1269FD0015F
S1130A40279FB00D1124AC0FBD1F2FEF200F30E0F6
S1130A502F5F3F4F420F531F21912D93E417F5074A
S1130A60D9F7882389F045E1469F9001479F300DCF
S1130A701124C20FD31F080F80E2FE01E90FF11DFC
S1130A8080839F5F9013F9CFDF91CF911F910F91D6
S1130A900895CF93DF93AC01FC01E855FF4FEC01BF
S1130AA0C857DF4FDC01A551BF4F90E031E023E090
S1130AB09F5F919339932D9312AA12A29031C1F79B
S1130AC0FA01E550FF4F9A0125583E4F11921192B9
S1130AD0E217F307D9F7FA01E853FF4F88E790E0EC
S1130AE091838083329680E18083DF91CF91089552
S1130AF0FC011182108212821382148215821682E2
S1130B0017821086118612861386613009F51486C1
S1130B1084E2858785E2868786E2878787E2808B01
S1130B2088E2818B89E2828B8AE2838B8BE2848BDD
S1130B308CE2858B8DE2868B8EE2878B8FE2808FB1
S1130B4080E3818F81E3828F82E3838F83E3848FC9
S1130B500895EAE7F0E0808180648083808186FDE7
S1130B60FDCF80917900089580B3876080BB80E2D7
S1130B7080937C0087E880937A0088E080937B00F0
S1130B808FEF80937E0080937D001092FA03E1CF73
S1130B900895CF93982F969596952FE2929F912D35
S1130BA0112496952CE2929F80191124982F883253
S1130BB070F488E080937B00C92FC7709695969552
S1130BC09695906290937C00C4DFC1BB20C08932AB
S1130BD071F018F4883231F01AC08A3269F08B321D
S1130BE081F015C085E280937C00B3DF10C086E2FB
S1130BF080937C00AEDF0BC087E280937C00A9DF8A
S1130C0006C080E280937C0010927B00A2DFCF912B
S1130C1008950F931F93CF93DF938B01C82FD0E0D8
S1130C2098DFF801EC0FFD1F858FE75BFF4F4081D4
S1130C3090E0841B91099C0112F42F5F3F4F35957E
S1130C402795240F2083DF91CF911F910F91089551
S1130C50FC01E75BFF4F9C012B583F4F919193A7F9
S1130C60E217F307D9F708954F925F926F927F923C
S1130C708F929F92AF92BF92CF92DF92EF92FF92A8
S1130C800F931F93CF93DF93EA01982F9695969530
S1130C902FE2929F912D112496952CE2929F801918
S1130CA01124982F883208F0B4C1182F1770869534
S1130CB086958695298520FF05C06894AA24A3F803
S1130CC0A10E01C0A12E823009F49FC07E016B01E8
S1130CD0833030F4882359F0813009F46DC0B6C1F3
S1130CE0833009F4DBC0843009F41FC1AFC1C92FBC
S1130CF0D0E0C7018C0F9D1FFC01EB58FF4F2081F2
S1130D00BC976081261720F4862F821B282F01C0F0
S1130D10261B233008F49AC170E080E090E00E9422
S1130D200F1E20910202309103024091040250915F
S1130D3005020E94741D2B013C016091060270E0C3
S1130D4080E090E00E940F1E9B01AC01C301B20140
S1130D500E940F1D0E94DC1D862F262F372FD701DE
S1130D601A969C911A9794601A969C931A971B96BC
S1130D701C93612F70E0F601E60FF71F8087332381
S1130D802CF0F601E60FF71F108205C09FEFF60165
S1130D90E60FF71F9083F601E60FF71F412F6081DE
S1130DA00E946716CE0DDF1DFE01EB58FF4FC75B97
S1130DB0DF4F888180834AC1892F90E09E01280FEC
S1130DC0391FF901E75BFF4F4081BC96208124174E
S1130DD009F43CC12A8524602A87212F20612B87AE
S1130DE0FB01E10FF11D4058408B8C0F9D1FDC016E
S1130DF0AB58BF4FEC01C75BDF4F88818C934089B0
S1130E0060E0812F0E94DE1621C1E92FF0E0CE01BF
S1130E108E0F9F1FDC01AB58BF4F0C91875B9F4F18
S1130E20DC018C91081709F411C1CA2CD12CAB0137
S1130E304C0D5D1D9A01285A3F4FD9012C91485BF6
S1130E405F4FDA014C919A8594609A87912F906252
S1130E509B879A8192FF08C030E0342B90E0801B7E
S1130E609109280F391F08C090E001974EEE489F62
S1130E709001499F300D11246C0D7D1DDB01A85B91
S1130E80BF4F3C9350962C93EC0FFD1FDF01AB58E2
S1130E90BF4FE75BFF4F80818C93D8C0292F30E090
S1130EA0CE01820F931FFC01EB58FF4FA081BC972A
S1130EB08081A81709F4CAC06A2D70E0F601E60F14
S1130EC0F71FEF01C858DF4F4881E859FF4FE08111
S1130ED0E7019A8594609A87912F90639B879A8102
S1130EE092FF08C050E05E2B90E08A1B9109480FE6
S1130EF0591F08C090E00197EEEEE89FA001E99F1A
S1130F00500D1124C60ED71EF601E859FF4F508329
S1130F10709640832E0D3F1DF901EB58FF4FD90108
S1130F20A75BBF4F8C91808391C0892E912CCE01F9
S1130F30880D991DFC01EB58FF4F2081BC976081FF
S1130F40261720F4D62FD21B2D2F01C0261B2330A9
S1130F5008F47CC070E080E090E00E940F1E2091B5
S1130F6002023091030240910402509105020E9452
S1130F70741D2B013C016091060270E080E090E05A
S1130F800E940F1E9B01AC01C301B2010E940F1D00
S1130F900E94DC1D862F972F9C01F70182858460B7
S1130FA08287812F80648387B12CF601EA0DFB1DB3
S1130FB060AF33232CF0F601EA0DFB1D10A605C02B
S1130FC08FEFF601EA0DFB1D80A7F601EA0DFB1D6C
S1130FD0E551FF4F80818D7F813079F4E601CA0DA0
S1130FE0DB1DDE01A856BF4FFE01E855FF4F28A5C3
S1130FF0462F6C9180810E948B168701080D191D64
S1131000F801EB58FF4FD801A75BBF4F8C91808349
S11310101DC08A32D9F4FA01ED58FF4F8081BC9685
S11310209081981799F09A8594609A8790E59B87A8
S1131030FB01E853FF4F90E091838083DA01A156CE
S1131040BF4FFA01ED58FF4F80818C93DF91CF9110
S11310501F910F91FF90EF90DF90CF90BF90AF90D2
S11310609F908F907F906F905F904F900895EF9234
S1131070FF920F931F93CF937C018B01C0E08C2FC1
S113108088DDB8018C2FC5DDA801B7018C2FECDDFC
S1131090CF5FCC32A1F7CF911F910F91FF90EF90CA
S11310A0089587E083BB0895A29827E0A09A662359
S11310B014F4A19A01C0A198A098660F2150B1F729
S11310C021E1A09A992314F4A19A01C0A198A098AF
S11310D0880F991F2150A9F7A29A0895CF93DF93FF
S11310E0CDB7DEB7CF57DE4F28813981C158D14003
S11310F0CD57DE4F6881C358D140C957DE4F988120
S1131100C758D14092959F70913049F028F09230A1
S1131110D1F09330D9F01CC0C901C6DF19C0CB5738
S1131120DE4FE881C558D140F0E0EE0FFF1F86E0A6
S113113090E08C0F9D1FE80FF91FE550FF4F808151
S11311409181B2DF05C0C901AFDF02C0C901ACDFC4
S1131150DF91CF910895CF93DF93CDB7DEB7C65C0F
S1131160D3400FB6F894DEBF0FBECDBF0E94AA12C3
S11311708DD88ED98BEF93E08CDC0E9490187894F4
S1131180009981C08091090180FD7FC060E070E01A
S113119080E692E00E9407132FEF8FE493EC215036
S11311A080409040E1F700C00000009970C0809139
S11311B0090180FD6EC085E1EAE8F2E0DE01AE548B
S11311C0BC4F01900D928A95E1F708E010E261E0CE
S11311D070E0CE018E549C4F0E9407130FDC8111E6
S11311E00DC0CA54DC4F0883C65BD340CF53DC4FD9
S11311F01883C15CD3401D9B14C0E9CF813069F4CE
S1131200CA54DC4F1883C65BD340CF53DC4F0883EA
S1131210C15CD3401D9B33C0DACF1D99D8CF823037
S1131220B1F281112EC062E070E085E792E00E9485
S1131230071361E086E795E05BDC8DB79EB78B57BB
S113124091400FB6F8949EBF0FBE8DBFADB7BEB729
S113125011968BE791E0EBEFF3E001900D9201978B
S1131260E1F70E948D1C0FB6F894DEBF0FBECDBF10
S113127086E795E00E94EB1CCC24C3940BC0C12CE0
S113128009C0C12C07C0C12C05C0C12C03C0C12C8E
S113129001C0C12C6C2D86E795E02ADC02DF64DCFA
S11312A00E9426160E9403120E9432160E942E15D6
S11312B0609179058BEF93E00E94DB1A00E010E067
S11312C00F2EFCE2DF2EF02D9801AFE2BAEB0E9464
S11312D0D21E96958795929582958F7089279F70D7
S11312E08927D89E9001D99E300D11247801E21AE5
S11312F0F30A8E2D4EDC66E775E08E2D8ADC0F5FD7
S11313001F4F083B91E01907F9F686E795E0A0DC4A
S11313106C2D86E795E00E94FC1C8DB79EB7875E16
S113132091090FB6F8949EBF0FBE8DBFADB7BEB77F
S1131330119687EEE6E7F5E001900D928A95E1F7C4
S11313408DB79EB78B5791400FB6F8949EBF0FBED2
S11313508DBFADB7BEB711968BE791E0EBEFF3E02D
S113136001900D920197E1F7CE010196F9D084E046
S11313708093B10081E0809370000FB6F894DEBFD3
S11313800FBECDBF66E775E08BEF93E00E944D0181
S113139086E795E09F938F938DB79EB78B579140C7
S11313A00FB6F8949EBF0FBE8DBFADB7BEB71196F2
S11313B08BE791E0EBEFF3E001900D920197E1F7F9
S11313C00E94B6018DB79EB783589E4F0FB6F8940E
S11313D0DEBF0FBECDBF875E91090FB6F8949EBFE6
S11313E00FBE8DBFADB7BEB7119687EEE6E7F5E049
S11313F001900D928A95E1F78DB79EB78B57914076
S11314000FB6F8949EBF0FBE8DBFADB7BEB7119691
S11314108BE791E0EBEFF3E001900D920197E1F798
S11314205DDE0FB6F894DEBF0FBECDBF66E775E094
S11314308BEF93E0BBD866E775E08BEF93E017DEA4
S11314408DB79EB7875E91090FB6F8949EBF0FBE05
S11314508DBFADB7BEB7119687EEE6E7F5E0019014
S11314600D928A95E1F78DB79EB78B5791400FB6D1
S1131470F8949EBF0FBE8DBFADB7BEB711968BE774
S113148091E0EBEFF3E001900D920197E1F70E94F8
S11314904E150FB6F894DEBF0FBECDBF46E755E03C
S11314A06BEF73E0CE0101969BD18DB79EB7875E3B
S11314B091090FB6F8949EBF0FBE8DBFADB7BEB7EE
S11314C0119687EEE6E7F5E001900D928A95E1F733
S11314D08DB79EB78B5791400FB6F8949EBF0FBE41
S11314E08DBFADB7BEB711968BE791E0EBEFF3E09C
S11314F001900D920197E1F796D70FB6F894DEBFED
S11315000FBECDBF66E775E08BEF93E00E943B18FA
S113151039CF1F920F920FB60F9211240BB60F9270
S11315208F939F93AF93BF93EF93FF93E7E1F6E01D
S113153080819181A281B3810196A11DB11D808317
S11315409183A283B383FF91EF91BF91AF919F9158
S11315508F910F900BBE0F900FBE0F901F90189598
S1131560CF92DF92EF92FF920F931F93CF93DF936B
S1131570CDB7DEB78C01C657DE4FE880CA58D140DC
S11315804FE952E060E070E045DA40EB52E061E0A0
S113159070E0C8013FDA49EB52E062E070E0C80154
S11315A039DA4EEB52E063E070E0C80133DA6801E7
S11315B08DEBC80ED11C43EC52E060E070E0C60134
S11315C029DA40EB52E061E070E0C60123DA41ED34
S11315D052E062E070E0C6011DDA48ED52E063E0DB
S11315E070E0C60117DA680186E8C81A8EEFD80AD7
S11315F045EE52E060E070E0C6010CDA44EF52E0E0
S113160061E070E0C60106DA4BEF52E062E070E0A0
S1131610C60100DA45E053E063E070E0C601FAD9A0
S11316204FE053E064E070E0C601F4D94DE153E0CB
S113163065E070E0C601EED9680189ECC81A8DEF47
S1131640D80A41E353E061E070E0C601E3D94FE317
S113165053E062E070E0C601DDD944EE53E063E09C
S113166070E0C601D7D94DE453E060E070E0C601F4
S1131670D1D968018CE0C81A8DEFD80A4DE553E042
S113168060E070E0C601C6D941E753E061E070E074
S1131690C601C0D94DE753E062E070E0C601BAD993
S11316A042E953E063E070E0C601B4D947EA53E08D
S11316B064E070E0C601AED9CC52DF4F2881398195
S11316C0C45DD04043E065E0C8018A96B8D7CD56E2
S11316D0DE4F2881C359D14030E02F5F3F4F42E0B5
S11316E06EE0C801845B9D4FAAD7F12C8FEFE81AF6
S11316F0F80A970143E069E0C8014596A0D797012D
S113170043E069E0C8018E529F4F99D7CA52DF4F18
S11317102881C65DD04030E042E067E0C8018951CD
S11317209F4F8DD7C557DE4F2881CB58D14030E02D
S11317302F5F3F4F42E06DE0C80184509F4F7FD739
S1131740E12CF12CB701C80162D78FEFE81AF80A2F
S11317500B5E1F4F84E0E816F104A1F7DF91CF91EF
S11317601F910F91FF90EF90DF90CF900895EF922B
S1131770FF920F931F93CF93DF93EC018B017A01B8
S1131780FB01E853FF4F2081318143E065E08A96F5
S113179056D7F801E653FF4F208130E042E067E07E
S11317A0CE0189519F4F4BD7F701238130E02F5F42
S11317B03F4F43E069E0CE018E529F4F40D7F7017F
S11317C0238130E02F5F3F4F43E069E0CE0145962F
S11317D036D7DF91CF911F910F91FF90EF9008952D
S11317E08F929F92AF92BF92CF92DF92EF92FF922D
S11317F00F931F93CF93DF938C017B01EA018A85BA
S113180080FFDAC21A868E8190E08B33910508F04E
S1131810D0C2FC018827E355FF4F8F4F0C94CA1E9A
S1131820C801A5DF60E070E0C801F1D661E070E0B6
S1131830C8014596ECD662E070E0C8018A96E7D606
S113184063E070E0C801CF96E2D6B3C260E070E016
S1131850C80183549F4FDBD661E070E0C8018E520B
S11318609F4FD5D662E070E0C80189519F4FCFD613
S113187063E070E0C80184509F4FC9D681E18E8334
S113188088E0F801EB51FF4F808380E275968083F6
S11318907596808361E070E0C8018E529F4FB7D681
S11318A062E070E0C80189519F4FB1D663E070E0F7
S11318B0C80184509F4FABD67CC2C80158DF61E099
S11318C070E0C8018E529F4FA2D673C280E2F80125
S11318D0EB51FF4F808398E07596908375968083D3
S11318E061E070E0C8018E529F4F91D662E070E0D3
S11318F0C80189519F4F8BD663E070E0C8018450C2
S11319009F4F85D656C2FB01E653FF4F208130E03E
S113191042E067E0680187EEC80ED11CC6018FD68D
S113192062E070E0C60173D644C280E2F801EB5174
S1131930FF4F80837596808388E07596808361E08D
S113194070E0C8018E529F4F62D662E070E0C80119
S113195089519F4F5CD663E070E0C80184509F4F6B
S113196056D627C22C8130E02F5F3F4F42E06EE015
S113197068019CEFC90ED11CC60161D663E070E01A
S1131980C60145D616C260E070E0C80186589E4F75
S11319903ED661E070E0C80181579E4F38D662E0C0
S11319A070E0C8018C559E4F32D663E070E0C801E8
S11319B087549E4F2CD681E28E8388E0F801EE5541
S11319C0FE4F808380E2759680837596808361E004
S11319D070E0C80181579E4F1AD662E070E0C801DA
S11319E08C559E4F14D663E070E0C80187549E4F17
S11319F00ED6DFC18D81DB01A80FB11DFD01E856B4
S1131A00FF4F208130E0322F222770968081282BCF
S1131A1044E06AE06801B1E7CB1ABEEFDB0AC60115
S1131A200ED661E070E0C601F2D5C3C180E2F801D0
S1131A30EE55FE4F808398E075969083759680836B
S1131A4061E070E0C80181579E4FE1D562E070E02B
S1131A50C8018C559E4FDBD563E070E0C801875404
S1131A609E4FD5D5A6C18D81FB01E80FF11DE85726
S1131A70FF4F8081882319F0813079F01CC083E501
S1131A80F801E255FE4F80838FE6319680839CE611
S1131A9031969083319680830EC080E5F801E2553B
S1131AA0FE4F80838FE6319680838CE63196808367
S1131AB089E73196808362E070E0C8018C559E4FBF
S1131AC0A6D577C180E2F801EE55FE4F8083759666
S1131AD0808388E07596808361E070E0C801815757
S1131AE09E4F95D562E070E0C8018C559E4F8FD50E
S1131AF063E070E0C80187549E4F89D55AC18D8137
S1131B00FB01E80FF11D208D30E02F5F3F4F42E0D5
S1131B106AE06801E7E4CE1AEEEFDE0AC6018FD56B
S1131B2063E070E0C60173D544C180E2F801E95472
S1131B30FE4F80837596808388E07596808361E08C
S1131B4070E0C8018C559E4F62D562E070E0C80118
S1131B5087549E4F5CD563E070E0C80182539E4F6A
S1131B6056D527C18D81FB01E80FF11DE551FF4FCB
S1131B7080818130A9F028F08230F9F0833051F16E
S1131B8037C081E4F801E452FE4F80838DE2319640
S1131B90808382E53196808380E23196808328C0F9
S1131BA082E5F801E452FE4F808380E2319680831F
S1131BB031968083319680831BC081E4F801E4521E
S1131BC0FE4F808380E23196808331968083319604
S1131BD080830EC08EE4F801E452FE4F80838FE6CA
S1131BE0319680838EE63196808385E631968083B4
S1131BF063E070E0C80182539E4F09D5DAC080E2E9
S1131C00F801E453FE4F80837596808388E07596CF
S1131C10808361E070E0C80187549E4FF8D462E08D
S1131C2070E0C80182539E4FF2D463E070E0C801B3
S1131C308D519E4FECD4BDC08D819B01280F311D69
S1131C40F901E553FF4F208130E0322F22277096AF
S1131C508081282B45E06DE068018DE1C81A8EEF84
S1131C60D80AC601ECD4D801A051BE4F8C91F8011A
S1131C70E151FE4F8083329680818C938EE2808383
S1131C8063E070E0C601C3D494C060E070E0C801B2
S1131C90895C9D4FBCD461E070E0C801845B9D4FBA
S1131CA0B6D462E070E0C8018F599D4FB0D463E0B0
S1131CB070E0C8018A589D4FAAD481E38E8388E0DE
S1131CC0F801E15AFD4F808380E275968083759612
S1131CD0808361E070E0C801845B9D4F98D462E02A
S1131CE070E0C8018F599D4F92D463E070E0C80141
S1131CF08A589D4F8CD45DC02C8530E02F5F3F4FB8
S1131D0042E06EE0680194EBC91A9DEFD90AC6015E
S1131D1096D461E070E0C6017AD44BC080E2F80149
S1131D20E15AFD4F808398E0759690837596808381
S1131D3061E070E0C801845B9D4F69D462E070E0AB
S1131D40C8018F599D4F63D463E070E0C8018A587D
S1131D509D4F5DD42EC08D81FA01E80FF11D45859C
S1131D606EE06801AFE9CA1AADEFDA0AC6012DD6F2
S1131D7062E070E0C6014BD41CC080E2F801E15A75
S1131D80FD4F80837596808388E07596808361E03B
S1131D9070E0C801845B9D4F3AD462E070E0C801F2
S1131DA08F599D4F34D463E070E0C8018A589D4F29
S1131DB02ED48E8180935D068A8581FF19C11A868F
S1131DC08E8182958F70823021F0833009F4F7C0C0
S1131DD00FC12D8130E0C701820F931FFC01E8562B
S1131DE0FF4FC080D12CDC2CCC2470968081C82A73
S1131DF02F5F3F4F42E067E05801B1E7AB1ABEEFF7
S1131E00BB0AC5011CD4960144E06AE0C50117D49D
S1131E108D81F701E80FF11DE857FF4F808188237A
S1131E2019F0813079F01CC083E5F801E255FE4FCA
S1131E3080838FE6319680839CE631969083319639
S1131E4080830EC080E5F801E255FE4F80838FE663
S1131E50319680838CE63196808389E7319680833E
S1131E608D81F701E80FF11D208D30E02F5F3F4F8A
S1131E7042E06AE0C80187549E4FE1D38D81F701A7
S1131E80E80FF11DE551FF4F80818130A9F028F062
S1131E908230F9F0833051F137C081E4F801E45223
S1131EA0FE4F80838DE23196808382E53196808374
S1131EB080E23196808328C082E5F801E452FE4F27
S1131EC0808380E23196808331968083319680834B
S1131ED01BC081E4F801E452FE4F808380E2319616
S1131EE0808331968083319680830EC08EE4F8011E
S1131EF0E452FE4F80838FE6319680838EE63196DE
S1131F00808385E6319680838D81F701E80FF11D8A
S1131F10E553FF4F208130E0322F222770968081D5
S1131F20282B45E06DE0C8018D519E4F88D3D80120
S1131F30A051BE4F8C91F801E151FE4F808332963F
S1131F4080818C938EE280838E81877F282F30E07E
S1131F502432310514F0825201C081E0C82ED12C04
S1131F600F2EF5E1BF2EF02DBC9CC001BD9C900D41
S1131F70112486589E4F61E070E0800F911F47D373
S1131F8096012F5F3F4FB29EC001B39E900D112466
S1131F9086589E4F62E070E0800F911F38D3F2E0C4
S1131FA0CF0ED11CBC9CC001BD9C900D1124865841
S1131FB09E4F63E070E0800F911F29D319C02D81DB
S1131FC030E02F5F3F4F42E06AE068018FE9C81AB2
S1131FD08DEFD80AC60133D38D81FE01E80FF11DC0
S1131FE045856EE0C601F1D462E070E0C6010FD30E
S1131FF08A8582FF70C18B85982F9F70892E998561
S113200090FF02C028E001C020E082958F708230EA
S113201009F494C030F4882369F0813009F458C07D
S113202059C1843009F4F6C008F4BEC0853009F4FF
S11320303FC150C1E82DF0E0D701AE0FBF1F8C9116
S1132040811110C080E2D801AE5FBC4F8C93EE0DBD
S1132050FF1D208530E042E06FE0C8018C509D4FA9
S1132060EED229C08DE2D801AE5FBC4F8C936801DB
S1132070A3E0CA0EDA1EEE0DFF1D8085809590E068
S1132080019664E670E00E949B1E2AE030E0B901EC
S11320900E949B1E605DD6016C937801BCEFEB1A25
S11320A0FB0A8085809590E00196B9010E949B1EF1
S11320B0805DF7018083F801E250FD4F81E3880DD4
S11320C0808363E070E0C8018C509D4FA0D202C1B0
S11320D0F801E25FFC4F81E3880D8083912CF701C6
S11320E0E80DF91D8089882394F48DE2F801E05FFE
S11320F0FC4F8083F701E80DF91D2089209530E01D
S113210043E068E0C801875F9C4F99D210C08BE21E
S1132110F801E05FFC4F8083F701E80DF91D208989
S113212030E043E068E0C801875F9C4F88D263E0F9
S113213070E0C801875F9C4F6AD2CCC0912CC22E3C
S1132140D12CC4018C0D9D1D5801F2EEAF1AFCEF89
S1132150BF0AE80EF91EF701E85BFF4F208130E06B
S1132160322F222770968081282B45E06EE0C5012E
S113217066D2F801E55DFC4FD801A45DBC4F8C919B
S11321808083329680818C938EE2808394012F5FCA
S11321903F4F2C0D3D1D42E06AE0C50150D263E083
S11321A070E0C50134D296C0912CC22ED12CC4014A
S11321B08C0D9D1D58012DECA21A2CEFB20AE80ECD
S11321C0F91EF701E859FF4F208130E0322F222712
S11321D070968081282B45E06FE0C50130D2F8016C
S11321E0EF5BFC4FD801AE5BBC4F8C918083329681
S11321F080818C938EE2808394012F5F3F4F2C0D5E
S11322003D1D42E06BE0C5011AD263E070E0C501F8
S1132210FED160C0C22ED12CC80CD11CF701EC0D2C
S1132220FD1D80A5811111C080E2F801E95AFC4F1F
S11322308083F701EC0DFD1D20AD30E042E060E14C
S1132240C801885B9C4FFBD125C08DE2F801E95A97
S1132250FC4F80833196EC0CFD1CD701D8968C91F1
S1132260809590E0019664E670E00E949B1E2AE04F
S113227030E0B9010E949B1E605D60833196D701F6
S1132280D8968C91809590E00196B9010E949B1E8E
S1132290805D8083085B1C4F96012F5F3F4F42E0B7
S11322A06CE0C801CCD163E070E0C801B0D112C0C9
S11322B0065D1F4FF701E853FF4F2081318143E052
S11322C065E0C801BCD18E81811104C062E070E078
S11322D0C8019DD11A86DF91CF911F910F91FF9074
S11322E0EF90DF90CF90BF90AF909F908F90089524
S11322F01F920F920FB60F9211240BB60F922F93C9
S11323003F935F936F937F938F939F93AF93BF9309
S1132310EF93FF9320913601822F82958F7088501E
S1132320823078F48091EF0390E0FC01EE0FFF1F00
S11323308E0F9F1FFC01E25AF94F2083109207026F
S113234050C080910702811115C08091EF0390E085
S113235030910702FC01EE0FFF1FE80FF91FE25A4C
S1132360F94FE30FF11D2183809107028F5F809362
S1132370070237C0809107028F3F99F18091EF03E4
S113238090E030910702FC01EE0FFF1FE80FF91FE8
S1132390E25AF94FE30FF11D21838091EF0390E09E
S11323A0FC01EE0FFF1F8E0F9F1FFC01E25AF94F35
S11323B020818091EF0390E001966AE070E00E9432
S11323C09B1E8093EF038091EF0390E0FC01EE0FDE
S11323D0FF1F8E0F9F1FFC01E25AF94F20831092BA
S11323E00702FF91EF91BF91AF919F918F917F91E0
S11323F06F915F913F912F910F900BBE0F900FBE85
S11324000F901F901895109235018FE1809334013D
S1132410E1E3F1E0808188698083E2E3F1E0808197
S1132420866080830895AF92BF92CF92DF92EF923D
S1132430FF920F931F93CF93DF93CDB7DEB7E09155
S1132440EE038091EF03E81709F45CC07E0186EA8D
S1132450E80EF11C0AE010E0F0E0CF01880F991FAC
S1132460E80FF91FE25AF94F808122819081829509
S11324708F708930C9F52223B9F19F70CB56DE4F96
S11324808881C559D14098132FC00F2EF9E8AF2E7B
S1132490BB24B394F02DAC0EBD1EEDE0AE0EB11C0A
S11324A06E01F6E9CF0ED11C8091EE0390E0FC01A1
S11324B0EE0FFF1F8E0F9F1FFC01E25AF94F91810F
S11324C0F50181915F01981309C0F6012081E0575D
S11324D0F1094081F601608980A1D3D3FFEFCF1ABF
S11324E0DF0ACE14DF0401F78091EE0390E0019639
S11324F0B8010E949B1EE82F8093EE038091EF03A6
S11325008E13AACFDF91CF911F910F91FF90EF907F
S1132510DF90CF90BF90AF900895E2E0F1E080812A
S11325208062808385E08A95F1F7000080818F7D49
S113253080830895E2E0F1E090819F7B908388B9E5
S1132540ECCF0895E2E0F1E090819064908388B943
S1132550E4CF089580E6809301018FEF87B9E2E02C
S1132560F1E080818F79808318B88FE193E001973F
S1132570F1F700C000008AE2DDDF81E7DBDF8CE5F4
S1132580E1DF88E2D7DF88E0D5DF8AE2D3DF89E7BD
S1132590D1DF85EDCFDF80E7CDDF88E7CBDF89E0D2
S11325A0C9DF86E0C7DF82E7C5DF8AE0CBDF89E7E2
S11325B0C1DF8AEDBFDF80E1BDDF8CEDBBDF80E0F2
S11325C0B9DF81E8B7DF8FE7B5DF89EDB3DF81EFEE
S11325D0B1DF8BEDAFDF80E4ADDF88E7ABDF88E20E
S11325E0A9DF81E0A7DF8FE39FE10197F1F700C046
S11325F0000080E89FDF8CE09DDF9FEF24E38CE008
S1132600915020408040E1F700C0000008950F93EE
S11326101F93CF93DF938C01FB01FF27E85FFD4FEE
S1132620808188DFE8010C5E1F4F89918BDFC01722
S1132630D107D9F7DF91CF911F910F910895CF93CF
S1132640DF93F901433009F454C028F4413051F0C8
S1132650423029F1B7C1443009F495C0453009F43A
S11326600AC1B0C1EC01C60FD11DADECBCEC0E9497
S1132670D21E9695879596958795969587959C01F4
S1132680220F331F880F991F880F991F880F991FD6
S1132690820F931FE81BF90BE05DE88393C1EC0103
S11326A0C60FD11DADECBCEC0E94D21E9695879549
S11326B096958795969587959C01220F331F880FD1
S11326C0991F880F991F880F991F820F931F9F01CD
S11326D0281B390BC901805D89839F010E94D21E8A
S11326E0969587959695879596958795805D888329
S11326F069C1EC01C60FD11DADECBCEC0E94D21E29
S11327009695879596958795969587959C01220F22
S1132710331F880F991F880F991F880F991F820FE5
S1132720931F9F01281B390BC901805D8A83AF0168
S113273056954795569547959A01ABE7B4E10E94A3
S1132740D21E9695879564E6689F9001699F300D27
S11327501124CF01821B930B9C01ADECBCEC0E94B5
S1132760D21E969587959695879596958795805DC3
S113277089839A01ABE7B4E10E94D21E96958795AE
S1132780805D88831FC1EC01C60FD11DADECBCEC8C
S11327900E94D21E969587959695879596958795CE
S11327A09C01220F331F880F991F880F991F880FD0
S11327B0991F820F931F9F01281B390BC901805D4C
S11327C08B839F013695279536952795ABE7B4E122
S11327D00E94D21E9695879544E6489F9001499F92
S11327E0300D1124CF01821B930B9C01ADECBCEC8A
S11327F00E94D21E9695879596958795969587956E
S1132800805D8A83AF0156954795569547955695B1
S113281047959A01A5ECB0E20E94D21E929582954A
S11328208F7089279F70892768EE73E0869F9001D7
S1132830879F300D969F300D1124CF01821B930B7F
S11328409C013695279536952795ABE7B4E10E9410
S1132850D21E96958795805D89839A01A5ECB0E296
S11328600E94D21E929582958F7089279F70892726
S1132870805D8883A7C0EC01C60FD11DADECBCEC14
S11328800E94D21E969587959695879596958795DD
S11328909C01220F331F880F991F880F991F880FDF
S11328A0991F820F931F9F01281B390BC901805D5B
S11328B08C839F013695279536952795ABE7B4E130
S11328C00E94D21E9695879544E6489F9001499FA1
S11328D0300D1124CF01821B930B9C01ADECBCEC99
S11328E00E94D21E9695879596958795969587957D
S11328F0805D8B839F013695279536952795369570
S11329002795A5ECB0E20E94D21E929582958F7015
S113291089279F70892748EE53E0849F9001859F03
S1132920300D949F300D1124CF01821B930B9C0119
S11329303695279536952795ABE7B4E10E94D21ECC
S113294096958795805D8A83AF01529542954F7025
S113295045275F7045279A01A7E4B3E00E94D21E81
S113296096958795969587959695879560E177E2F4
S1132970869F9001879F300D969F300D1124CF01C3
S1132980821B930B9C013695279536952795369592
S11329902795A5ECB0E20E94D21E929582958F7085
S11329A089279F708927805D89839A01A7E4B3E012
S11329B00E94D21E969587959695879596958795AC
S11329C0805D8883DF91CF9108959C01A62FEBEA67
S11329D04E9FE12D1124E695E695E6959FE29E0F24
S11329E08E2F880FE80FEE0FEE0F4E1B50E04C3089
S11329F0510558F5FA018827E851FF4F8F4F0C9481
S1132A00CA1E80E243E423C083E243E420C080E2A0
S1132A1044E41DC083E244E41AC080E245E417C0E4
S1132A2080E246E414C083E246E411C080E247E455
S1132A300EC083E247E40BC080E241E408C083E2B5
S1132A4041E405C080E242E402C080E040E0F901D4
S1132A50EA0FF11D408381839283089582E084BD4F
S1132A6093E095BD99E197BD80936E0008951F9200
S1132A700F920FB60F9211248F939F938091F103BD
S1132A809091F20301969093F2038093F1039F9146
S1132A908F910F900FBE0F901F901895EF92FF9299
S1132AA01F93CF93DF93CDB7DEB7CF52DF4F28818B
S1132AB03981C15DD04040E050E060EF79E482E0CC
S1132AC090E00E94AE1E8091F1039091F203821770
S1132AD0930708F443C0C557DE4F8881CB58D140D3
S1132AE08823B1F11092F2031092F103E091F00304
S1132AF0F0E0EE0FFF1F89E090E08C0F9D1FE80FC0
S1132B00F91FE550FF4FE080F18010E0E0FE07C0C0
S1132B10412FBE016C577E4FCE01099673D1F694B6
S1132B20E7941F5F103191F78091F0038F5F8093DA
S1132B30F00390E0CD52DF4F2881C35DD04030E0F8
S1132B4021503109281739074CF41092F00306C0BC
S1132B501092F0031092F2031092F103DF91CF91DF
S1132B601F91FF90EF9008951F920F920FB60F924E
S1132B7011240BB60F922F933F938F939F93EF9350
S1132B80FF938091F5039091F6032091F303309124
S1132B90F40382179307C1F0FC01E458F94F8081D4
S1132BA08093C6008091F5039091F60301968038D6
S1132BB021E092072CF49093F6038093F50304C06C
S1132BC01092F6031092F503FF91EF919F918F916C
S1132BD03F912F910F900BBE0F900FBE0F901F903F
S1132BE018952091F3033091F403F901E458F94F57
S1132BF080832F5F3F4F203881E038072CF43093D7
S1132C00F4032093F30308951092F4031092F30352
S1132C1008950F931F93CF93DF93662369F0EC011C
S1132C206150062F10E00F5F1F4F080F191F899185
S1132C30D8DFC017D107D9F78091C00085FD109265
S1132C40C600DF91CF911F910F9108951092C50096
S1132C5080E18093C40088E48093C10086E080937F
S1132C60C200089588E08093900083E080939100EF
S1132C70109299008AEF8093980082E0809371000B
S1132C800895CF93DF93CDB7DEB72A970FB6F894A4
S1132C90DEBF0FBECDBF90EF99839AEA9A839AE084
S1132CA09B8393E09C832D838E836F83488719864F
S1132CB085E58A876AE0CE010196ABDF2A960FB6D6
S1132CC0F894DEBF0FBECDBFDF91CF910895CF93AF
S1132CD0DF93CDB7DEB728970FB6F894DEBF0FBEEB
S1132CE0CDBF90EF99839AEA9A8398E09B8395E00D
S1132CF09C834D838E836F8385E5888768E0CE014E
S1132D00019687DF28960FB6F894DEBF0FBECDBFBD
S1132D10DF91CF910895CF93DF93CDB7DEB7299795
S1132D200FB6F894DEBF0FBECDBF90EF99839AEA39
S1132D309A8399E09B8398E09C838D836E834F8371
S1132D40288785E5898769E0CE01019662DF2996A7
S1132D500FB6F894DEBF0FBECDBFDF91CF910895BB
S1132D60CF92EF920F93CF93DF93CDB7DEB72C972B
S1132D700FB6F894DEBF0FBECDBF90EF99839AEAE9
S1132D809A839CE09B839AE09C838D836E834F831C
S1132D9028870987EA86CB8685E58C876CE0CE0197
S1132DA0019637DF2C960FB6F894DEBF0FBECDBF69
S1132DB0DF91CF910F91EF90CF900895CF93DF9350
S1132DC0CDB7DEB728970FB6F894DEBF0FBECDBFE0
S1132DD090EF99839AEA9A8398E09B839CE09C8382
S1132DE08D836E834F8385E5888768E0CE010196E5
S1132DF010DF28960FB6F894DEBF0FBECDBFDF916B
S1132E00CF9108952F923F924F925F926F927F924B
S1132E108F929F92AF92BF92CF92DF92EF92FF92E6
S1132E200F931F93CF93DF9300D01F92CDB7DEB7DC
S1132E302B01D42EA42EB12C9C012A0D3B1DF9018B
S1132E40E553FF4F2080312C322C22247096408190
S1132E50242A70962081213009F478C038F0223079
S1132E6009F4B0C0233009F4DCC0EEC09C012A0D83
S1132E703B1D3C832B838901085A1F4FF801F081C5
S1132E80F983790128E4E20EF11CF701F081FA8359
S1132E90EB81FC81E857FF4F6B807C8028E9620E50
S1132EA0711C8B809C8038EA830E911C2081EB81FD
S1132EB0FC81408DF3016081F4018081E2DEC12C4C
S1132EC0F701E080F8010081EB81FC8120A540AD91
S1132ED0F3016081F401808143DFF201EB55FF4F80
S1132EE081E090E002C0880F991FDA94E2F7208114
S1132EF03181822B932B918380839501220F331F81
S1132F00220F331F240D351D29553F4F3C832B833E
S1132F103981832F90E0EA819E2BA10160E070E06B
S1132F20480F591F611D711DF201EF55FF4F80813C
S1132F309181A281B381840F951FA61FB71FEB81D6
S1132F40FC8180839183A283B3837EC0AC014A0D4C
S1132F505B1DCA0188579F4FDA01A856BF4F8A01EB
S1132F6008551F4FFC012081FA01408D6C91F80136
S1132F70808187DEF201EB55FF4F81E090E002C0D3
S1132F80880F991FDA94E2F720813181822B932BE9
S1132F90918380839501220F331F220F331F240D49
S1132FA0351D29553F4F349780819181A281B3818A
S1132FB0820D931DA11DB11DF90180839183A2830C
S1132FC0B38342C09C012A0D3B1D3C832B83F90132
S1132FD0E857FF4F490138E9830E911CAB80BC8050
S1132FE088EAA80EB11C2081EB81FC81408DF4019C
S1132FF06081F501808145DEAB81BC81A85BBF4F58
S1133000EB81FC81E85AFF4FC12CEC900081EB81ED
S1133010FC8120A540ADF4016081F5018081A0DE32
S113302013C0A80EB91EC50188579F4FD501A856D5
S1133030BF4F850108551F4FFC012081F501408DCC
S11330406C91F80180811DDE0F900F900F900F900E
S1133050DF91CF911F910F91FF90EF90DF90CF9070
S1133060BF90AF909F908F907F906F905F904F90A4
S11330703F902F9008954F925F926F927F928F921C
S11330809F92AF92BF92CF92EF920F93CF93DF9321
S1133090FB01EB55FF4F80809180EB01C955DF4F59
S11330A088589F4F5C013B0187EE680E711CE1E07C
S11330B08E2299242B01F1EA4F0E511C81149104A4
S11330C0D1F0488159816A817B81F20180819181AB
S11330D0A281B381481759076A077B0760F0CC24A3
S11330E0C394F5017097E080F50100812AEB4FEF5E
S11330F060A180A935DE2496FFEFAF1ABF0AC6157A
S1133100D705E1F6DF91CF910F91EF90CF90BF906B
S1133110AF909F908F907F906F905F904F900895A5
S11331201092B90088E48093B800089594EA9093CB
S1133130BC00ECEBF0E090819923ECF79091B9009E
S1133140987F983011F09031A1F48093BB0084E80B
S11331508093BC00ECEBF0E080818823ECF7909145
S1133160B900987F983139F081E0903429F480E0F7
S1133170089581E0089580E0089584E98093BC0077
S1133180ECEBF0E0808184FDFDCF08958093BB00DB
S113319084E88093BC00ECEBF0E080818823ECF7BA
S11331A09091B900987F81E0983209F480E0089505
S11331B084EC8093BC00ECEBF0E080818823ECF796
S11331C08091BB00089584E88093BC00ECEBF0E0B0
S11331D080818823ECF78091BB0008954F925F9221
S11331E06F927F928F929F92AF92BF92CF92DF9213
S11331F0EF92FF920F931F93CF93DF93CDB7DEB778
S1133200C459D1090FB6F894DEBF0FBECDBFCD5D52
S1133210DD4F4881C352D240C059DE4F8881C05728
S1133220D140CF58DE4F9881C157D140242F30E090
S113323044238CF0215031093901660C771C620E4D
S1133240731E7694762C6624779467940F2EF0EA96
S11332505F2EF02D11C0205831093901660C771CFE
S1133260260D371D39017694762C6624779467945D
S11332700F2EF8EA5F2EF02DBE0168557F4F8E01A8
S11332800F5F1F4FFE01E055FF4F9801DB014D9189
S1133290BD01D9014D939D016E177F07B9F7DE017A
S11332A019969E0128543F4F41914D93E217F3071D
S11332B0D9F74E01B1E18B0E911C7E01E0ECEE0ECC
S11332C0F11CD401F90141919F014D93EE15FF05C5
S11332D0C9F79E01275E3F4FBE0160537F4FD70160
S11332E04D917D01F90141939F01A617B707B9F7E5
S11332F09E01275D3F4FDE01A052BF4FFB0141916C
S1133300BF01F90141939F016A177B07B9F79E0139
S1133310275C3F4FBE0160517F4F4D91F9014193AE
S11333209F01A617B707C9F79E01275B3F4FDE0130
S1133330B395FB014191BF01F90141939F016A17C4
S11333407B07B9F79E01275A3F4FBE01605F7E4F4E
S11333504D91F90141939F01A617B707C9F7DE0103
S1133360A759BF4F5E01F0EEAF1AFEEFBF0AFB0193
S11333702191BF012D93EA15FB05C9F7EB969FAF89
S1133380EB97EC968FAFEC97CE58DE4F8881C257FF
S1133390D140ED968FAFED97852DC8DE813081F455
S11333A084E1ECE0F2E0DE01AF57BF4F01900D92F3
S11333B08A95E1F763E070E0CE018F579F4F27D9DC
S11333C0872DE4DE462C862DE1DE6E01FDE7CF0E6F
S11333D0D11C7801D7018D917D01D8DECE14DF0494
S11333E0C9F7CBDEEFE1FEE43197F1F700C000004E
S11333F09E01205D3E4FF801D5018D915D018193C1
S11334002A173B07C9F7DE019196F90181919F01C3
S1133410F40181934F01AE17BF07B9F7CE01805C69
S11334209E4FAE014F5C5F4FFC012191CF012D9364
S1133430A417B507C9F7CE01805B9E4FDE01AF5BD1
S1133440BF4FFC012191CF01FA012193AF01EA178B
S1133450FB07B9F7FE01E05AFE4F9E0120593E4F8B
S113346081918D932E173F07D9F7AE014D585E4FCA
S1133470CE018F5A9F4FDE01AD57BE4FFA01219105
S1133480AF01FC012193CF01A417B507B9F7CE0111
S11334908F599F4FAE014D565E4F2D91FC012193E4
S11334A0CF01A417B507C9F7DE01AF58BF4F7E019E
S11334B0FDE5EF1AFEEFFF0AFA018191AF018D934A
S11334C0EE16FF06C9F7852D31DE813081F484E1E3
S11334D0E1E2F2E0DE01AF57BF4F01900D928A9511
S11334E0E1F763E070E0CE018F579F4F90D8C3019E
S11334F080589F4F892F4ADE80E8840D47DE6E0195
S1133500F1E8CF0ED11CD8018D918D013FDEC0169C
S1133510D106C9F732DEEFE1FEE43197F1F700C0DE
S11335200000852D03DE813081F484E1E6E3F2E0DE
S1133530DE01AF57BF4F01900D928A95E1F763E02A
S113354070E0CE018F579F4F62D87394872D1EDE93
S1133550842D1CDE6E012DEDC21A2DEFD20AD70187
S11335601C9111968C91B2E0EB0EF11C0FDE812FB1
S11335700DDECE14DF0499F700DEEFE1FEE43197AF
S1133580F1F700C00000CC56DF4F0FB6F894DEBF51
S11335900FBECDBFDF91CF911F910F91FF90EF90A0
S11335A0DF90CF90BF90AF909F908F907F906F905F
S11335B05F904F9008958F929F92AF92BF92CF9257
S11335C0DF92EF92FF920F931F93CF93DF93CDB7C8
S11335D0DEB7C459D1400FB6F894DEBF0FBECDBFDD
S11335E07C01862F90E0662384F001979C01220FD2
S11335F0331F820F931F9695982F88279795879549
S1133600082FD92E80EA11EA10C0805891099C0134
S1133610220F331F820F931F9695982F8827979513
S11336208795082FD92E88EA19EA80DD813031F494
S113363063E070E08CEB93E00E9407138D2DA6DD10
S1133640802FA4DD812F72DD813009F048C184E12F
S1133650EBE4F2E0DE01AF57BE4F01900D928A9584
S1133660E1F763E070E0CE018F579E4F0E9407138D
S113367036C19EDDD8018D938D01AC15BD05C9F70A
S1133680A2DDC058DE4F8883C058D14076DD870163
S11336904E01B9E08B0E911CF701D5018D915D01AE
S11336A08193A815B905C9F7D12CF40181914F0173
S11336B0F80180874D2D60810F5F1F4F08DBD39485
S11336C0F8E0DF12F2CF5E0181E1A80EB11C6701C0
S11336D090E1C90ED11C10E0D5014D915D01F601B8
S11336E041936F0160E0812F69DB1F5F1830A1F700
S11336F0FE017996C7014896AE01475D5F4F21915F
S1133700DC012D93CD01E417F507C9F75701B8E2A1
S1133710AB0EB11CDE01D996C501FA012191AF01AE
S1133720FC012193CF014A175B07B9F7C701C8967B
S1133730AE01475B5F4F2D91FC012193CF01A4178C
S1133740B507C9F7C701885B9F4FDE01A75ABF4F72
S1133750FA012191AF01FC012193CF014A175B07C4
S1133760B9F7C701885A9F4FAE0147595F4F2D9152
S1133770FC012193CF01A417B507C9F7D701A859B4
S1133780BF4F9E0127583F4FFA018191AF018D939E
S1133790E217F307C9F7F701E853FF4FEB968FAD34
S11337A0EB9790E0982F8827EC962FADEC97822B1F
S11337B091838083ED968FADED9732968083AE0131
S11337C04F575F4FC70188589F4FFE01EF56FF4F79
S11337D0DA012D91AD01DC012D93CD01E417F5073C
S11337E0B9F7C70188579F4FAE014F555F4F2191DD
S11337F0DC012D93CD014E175F07C9F787010856E9
S11338001F4F4E01B1EB8B0E911CF801DA018D9123
S1133810AD0181938A169B06C9F76E01B1ECCB0EFC
S1133820D11CF40181914F01F801808BD5012D91B8
S11338305D011F964C9160810F5F1F4F6CDAC814B5
S1133840D90479F7970128543F4FDE01AF52BF4F97
S1133850F60181916F01F90181939F01CA16DB067C
S1133860B9F7C70185539F4FAE014F515F4F2D915B
S1133870FC012193CF014A175B07C9F7C7018552A1
S11338809F4FBE016F507F4FDA012D91AD01FC01B6
S11338902193CF01A617B707B9F7C70185519F4FE9
S11338A0FE01EF5FFE4FDB012D91BD01DC012D9385
S11338B0CD01E617F707B9F7D701A550BF4FAE0101
S11338C04F575E4F808190E0982F88272181822B6B
S11338D08D939D9332964E175F07A1F70AC0FE01A0
S11338E031965F016E01F0E8CF1AFEEFDF0A850121
S11338F0C0CECC56DE4F0FB6F894DEBF0FBECDBFA0
S1133900DF91CF911F910F91FF90EF90DF90CF90B7
S1133910BF90AF909F908F900895FF920F931F9345
S1133920CF93DF93CDB7DEB765970FB6F894DEBFBC
S11339300FBECDBF85E1E1EDF3E0DE01119601900C
S11339400D928A95E1F710E00F2EFFE4FF2EF02D83
S11339500BED1F938DB79EB78B5791400FB6F8941C
S11339609EBF0FBE8DBFADB7BEB711968BE791E07A
S1133970FE017E9601900D920197E1F72FDC8FE115
S11339809EE40197F1F700C000001F9D812D1124D2
S113399086958695E1E0F0E0EC0FFD1FE80FF11D40
S11339A000830FB6F894DEBF0FBECDBF63E070E0B6
S11339B0CE0101960E9407131F5F1F3F51F66596C3
S11339C00FB6F894DEBF0FBECDBFDF91CF911F912C
S11339D00F91FF900895CF93DF93EC016C8580E005
S11339E090E046D240E150E061E070E0CE010D96F7
S11339F036D2DF91CF910895CF93DF9361110CC03C
S1133A00EC0180E090E023D28C8740E150E061E05B
S1133A1070E0CE010D960BD2DF91CF9108955058EE
S1133A20BB27AA270ED04DC13ED130F043D120F0A0
S1133A3031F49F3F11F41EF433C10EF4E095E7FB1B
S1133A4029C1E92F4FD180F3BA176207730784079E
S1133A50950718F071F49EF567C10EF4E0950B2EEE
S1133A60BA2FA02D0B01B90190010C01CA01A001CC
S1133A701124FF27591B99F0593F50F4503E68F127
S1133A801A16F040A22F232F342F4427585FF3CF68
S1133A90469537952795A795F0405395C9F77EF439
S1133AA01F16BA0B620B730B840BBAF09150A1F082
S1133AB0FF0FBB1F661F771F881FC2F70EC0BA0F08
S1133AC0621F731F841F48F4879577956795B79590
S1133AD0F7959E3F08F0B3CF9395880F08F0992788
S1133AE0EE0F9795879508950CD0EBC0E3D040F086
S1133AF0DAD030F021F45F3F19F0CCC0511115C178
S1133B00CFC0F0D098F39923C9F35523B1F3951B93
S1133B10550BBB27AA2762177307840738F09F5FEA
S1133B205F4F220F331F441FAA1FA9F333D00E2E59
S1133B303AF0E0E830D091505040E695001CCAF7C6
S1133B4029D0FE2F27D0660F771F881FBB1F26178B
S1133B5037074807AB07B0E809F0BB0B802DBF015E
S1133B60FF2793585F4F2AF09E3F510568F092C09B
S1133B70DCC05F3FECF3983EDCF386957795679560
S1133B80B795F7959F5FC9F7880F911D969587950F
S1133B9097F90895E1E0660F771F881FBB1F62172E
S1133BA073078407BA0720F0621B730B840BBA0BEC
S1133BB0EE1F88F7E095089504D06894B111B5C05C
S1133BC0089598D088F09F5790F0B92F9927B7514E
S1133BD0A0F0D1F0660F771F881F991F1AF0BA95CD
S1133BE0C9F712C0B13081F09FD0B1E008959CC0F4
S1133BF0672F782F8827B85F39F0B93FCCF38695C3
S1133C0077956795B395D9F73EF49095809570951F
S1133C1061957F4F8F4F9F4F0895E89409C097FB9C
S1133C203EF490958095709561957F4F8F4F9F4F8F
S1133C309923A9F0F92F96E9BB279395F6958795D3
S1133C4077956795B795F111F8CFFAF4BB0F11F496
S1133C5060FF1BC06F5F7F4F8F4F9F4F16C088233D
S1133C6011F096E911C0772321F09EE8872F762F73
S1133C7005C0662371F096E8862F70E060E02AF0B4
S1133C809A95660F771F881FDAF7880F96958795A0
S1133C9097F9089597F99F6780E870E060E00895C8
S1133CA09FEF80EC089500240A9416161706180650
S1133CB00906089500240A9412161306140605062C
S1133CC00895092E0394000C11F4882352F0BB0FBD
S1133CD040F4BF2B11F460FF04C06F5F7F4F8F4F20
S1133CE09F4F089557FD9058440F551F59F05F3F5B
S1133CF071F04795880F97FB991F61F09F3F79F00A
S1133D0087950895121613061406551FF2CF46958B
S1133D10F1DF08C0161617061806991FF1CF86950D
S1133D207105610508940895E894BB2766277727F1
S1133D30CB0197F9089597FB072E16F4009406D04B
S1133D4077FD08D03ED007FC05D03EF490958195D0
S1133D509F4F0895709561957F4F0895052E97FBA9
S1133D6016F400940FD057FD05D03FD007FC02D0C5
S1133D7046F408C050954095309521953F4F4F4FDC
S1133D805F4F089590958095709561957F4F8F4F03
S1133D909F4F0895EE0FFF1F881F8BBF0790F6916A
S1133DA0E02D1994A29FB001B39FC001A39F700D91
S1133DB0811D1124911DB29F700D811D1124911D2F
S1133DC00895AA1BBB1B51E107C0AA1FBB1FA6175E
S1133DD0B70710F0A61BB70B881F991F5A95A9F7B0
S1133DE080959095BC01CD010895A1E21A2EAA1BDD
S1133DF0BB1BFD010DC0AA1FBB1FEE1FFF1FA21797
S1133E00B307E407F50720F0A21BB30BE40BF50B93
S1133E10661F771F881F991F1A9469F7609570951C
S1133E20809590959B01AC01BD01CF010895DC0103
S1133E30CB01FC01F999FECF06C0F2BDE1BDF89AB1
S1133E40319600B40D9241505040B8F70895F99955
S1133E50FECF92BD81BDF89A992780B50895DC0103
S1133E60CB0102C02D9105D041505040D8F70895A0
S1133E70262FF999FECF1FBA92BD81BD20BD0FB682
S1133E80F894FA9AF99A0FBE01960895F894FFCF20
S1133E90FFFFD7A3484047FF80A0C0E0416464729D
S1133EA0657373205772697465204572726F72313D
S1133EB000416464726573732057726974652045A8
S1133EC072726F7232004164647265737320577248
S1133ED0697465204572726F72330041646472655F
S1133EE073732052656164204572726F72322000D0
S1133EF0466163746F727952657365743F20202044
S1133F00202020200050726F67726573733A20205E
S1133F10202020202020202020007965733F2020AD
S1133F202020202020206E6F3F20202020200050C1
S1133F306572666F726D616E6365204D6F646500B6
S1133F405061747465726E3A0042504D3A00537475
S1133F506F700053657175656E636520456469749F
S1133F600053746570733A0053746570206E756DF8
S1133F706265723A00547261636B205365747469AC
S1133F806E677300547261636B3A00506C61794DD3
S1133F906F64653A004F7574526F7574653A0045E5
S1133FA06E76656C6F70654D6F64653A005375731A
S1133FB07461696E54696D653A2020202020205375
S1133FC0004D696469204368616E6E656C3A004D0A
S1133FD069646920747269672020203A00476C6F15
S1133FE062616C2053657474696E6773004F7574F5
S1133FF0566F6C756D652078203A20787878646205
S1134000005069746368203A2078787800417474A9
S113401061636B54696D6520203A202020202020A4
S1134020530052656C6561736554696D6578783ABF
S113403078782078787800547261636B566F6C7569
S11340406D652078783A78787864620041646472A7
S11340506573732052656164204572726F723120FA
S1134060002020202020202020202020202020206C
S1094070202020202000A6
S9030000FC
