S01800005473756E616D694353314D61737465722E73726563F8
S113000071C000008FC000008DC000008BC00000D4
S113001089C0000087C0000085C0000083C00000C4
S113002081C000007FC000007DC000007BC00000D4
S113003079C0000077C0000075C0000073C00000E4
S113004071C000006FC000006DC000006BC00000F4
S113005069C0000067C0000065C0000063C0000004
S113006061C000005FC000005DC000006FC70000F9
S113007059C0000057C0000055C0000053C0000024
S113008051C000004FC000004DC000004BC0000034
S113009099C7000047C0000045C0000043C00000ED
S11300A041C000003FC000003DC000003BC0000054
S11300B039C0000037C0000035C0000033C0000064
S11300C031C000002FC000002DC000002BC0000074
S11300D029C0000027C0000025C0000023C0000084
S11300E021C0000011241FBECFEFD1E2DEBFCDBF7F
S11300F000E00CBF14E0A0E0B2E0E8E6F5E100E0C7
S11301000BBF02C007900D92A830B107D9F726E0C3
S1130110A8E0B4E001C01D92A23DB207E1F7B5D357
S11301200C94B20A6DCF8FEF82B980930B018FE1EB
S113013085B90895CF92DF92EF92FF920F931F93A8
S1130140CF93DF93C0910901C095C093700580B12E
S1130150D0E0DC2FCC278095C82BD0939F05C0938B
S11301609E058091080490910904C817D90709F4E1
S11301703DC0D0930904C093080400EA14E00F2E94
S1130180F0EBEF2EF4E0FF2EF02D88E79FEF9C01BB
S11301902851344069018C2F81708093A2058823F3
S11301A0F1F08091170481111AC0F801208130E028
S11301B0E057F109408150E0F801608970E080A1C6
S11301C090E07FD79601200F311F42E069E080E084
S11301D092E00BD562E070E080E092E0EED4D69538
S11301E0C7950F5F1F4F0E151F05A9F6DF91CF911D
S11301F01F910F91FF90EF90DF90CF900895089595
S113020088E78093020108952091000126FD12C021
S11302102091000125FD05C0FC0120812F5F208372
S113022004C0FC01208121502083E0E0F1E08081C2
S113023086FFFDCF08952091000123FD12C0209177
S1130240000124FD05C0FC0120812150208304C04D
S1130250FC0120812F5F2083E0E0F1E0808183FFB7
S1130260FDCF089587E194E0CFDF81ED95E0E3CF02
S11302700895E0ECF4E080E08F5F81938031E1F752
S113028080E38093600581E38093610582E380933A
S1130290620583E38093630584E38093640585E3C7
S11302A08093650586E38093660587E380936705FD
S11302B088E38093680589E3809369058AE38093E2
S11302C06A058BE380936B058CE380936C058DE367
S11302D080936D058EE380936E058FE380936F05A5
S11302E00895EAE7F0E0808180648083808186FD60
S11302F0FDCF80917900089588E38DB980E28093E1
S11303007C0087E880937A0088E080937B008FEFFD
S113031080937E0080937D001092A305E2CF089520
S1130320CF93982F969596952FE2929F912D112415
S113033096952CE2929F80191124982F883218F5F3
S113034088E080937B00C92FC77096959695969503
S1130350906290937C00C5DFC33059F018F4C1302B
S113036031F00CC0C43039F0C63039F007C0C4E0F5
S113037005C0C6E003C0C1E001C0C3E0CC0FCC0F90
S1130380CC0FCEB920C0893271F018F4883231F024
S11303901AC08A3269F08B3281F015C085E28093ED
S11303A07C009FDF10C086E280937C009ADF0BC044
S11303B087E280937C0095DF06C080E280937C0016
S11303C010927B008EDFCF910895CF93C82F89DFE1
S11303D0EC2FF0E0EE58FA4F8083CF910895EF921E
S11303E0FF920F931F93CF93982F969596952FE294
S11303F0929F912D112496952CE2929F801911249D
S1130400982FA82FB0E0FD01EC55FA4F6081FD0153
S1130410EE58FA4FE081F0E0E61BF109AF0112F467
S11304204F5F5F4F55954795460FAC55BA4F4C9368
S1130430983208F001C2C92FC77096959695969583
S1130440923009F4D1C030F4992359F0913009F471
S11304508EC0F2C1933009F445C1943009F45FC1F0
S1130460EBC10C2F10E0642F70E080E090E0B8D76F
S113047020E030E04CE450E418D720E030E04CE8D1
S113048052E4AED67AD7862F972F9C01F801E85E06
S1130490FB4F808190E0982F88274085842B82171A
S11304A0930709F4C9C1F801E85EFB4F6087332361
S11304B064F1F801E85EFB4F1082E0E5F2E080E3CE
S11304C086872DEC629F812D1124869586958695CD
S11304D0880F982F990F990F890F962F981B892FA2
S11304E0805D808B89E2689F812D112482958F70B5
S11304F094E6899F60191124629F612D11246695E9
S113050066956695605D678720C08FEFF801E85EA9
S1130510FB4F8083E0E5F2E08DE286876095262F2D
S113052030E02F5F3F4FC90164E670E0E5D70F2E3E
S1130530FAE0EF2EF12CF02DB701DED7605D67876E
S1130540C901B701D9D7805D808BCF5CC0935A02B3
S113055063E070E080E592E030D3F801E85EFB4FA1
S1130560608170E08085A80190E0D0D565C10C2F32
S113057010E060E8640FF801E85EFB4F808986179D
S113058009F45AC1F801E85EFB4F608B80911704AF
S1130590811120C0CF5CC0936902662364F48DE2AC
S11305A080936B02262F209530E043E068E084E6D8
S11305B092E01BD30AC08BE280936B02262F30E0BB
S11305C043E068E084E692E010D363E070E084E600
S11305D092E0F3D2F801E85EFB4F408950E060E01E
S11305E070E0C801DAD528C10C2F10E0642F70E048
S11305F080E090E0F5D620E030E04CE450E455D6BD
S113060020E030E04CE852E4EBD5B7D6862F972FA4
S11306109C01A801485E5B4FFA01E85BFF4F8081B3
S113062090E0982F882770964081842B8217930737
S113063009F402C1F801E059FB4F6083332364F1EC
S1130640F801E05AFB4F1082E8E2F2E080E387878A
S11306502DEC629F812D1124869586958695880FB1
S1130660982F990F990F890F962F981B892F805DCA
S1130670818B89E2689F812D112482958F7094E685
S1130680899F60191124629F612D112466956695D6
S11306906695605D608B1DC0F801E05AFB4F8FEFDB
S11306A08083E8E2F2E08DE287876095262F30E0D0
S11306B02F5F3F4FC90164E670E01ED70AE010E0E7
S11306C0B8011AD7605D608BC901B80115D7805D88
S11306D0818BCF5CC093350263E070E088E292E0E6
S11306E06CD2AAC08C2F90E0FC01E058FB4F208113
S11306F0421709F4A1C0FC01E058FB4F4083242FAA
S113070030E044E06EE084E192E06FD2CF5CC093CD
S1130710200263E070E084E192E04FD28DC00C2FA0
S113072010E0642F70E080E090E05AD620E030E0E2
S11307304CE450E4BAD520E030E04CE852E450D523
S11307401CD6862F972F9C01F801E85EFB4F80A5ED
S113075090E0982F882740AD842B8217930709F4E3
S11307606BC0F801E85EFB4F60AF332364F1F8011E
S1130770E85EFB4F10A6ECE3F2E080E387872DEC04
S1130780629F812D1124869586958695880F982FD2
S1130790990F990F890F962F981B892F805D818B54
S11307A089E2689F812D112482958F7094E6899F38
S11307B060191124629F612D1124669566956695D2
S11307C0605D608B20C08FEFF801E85EFB4F80A76F
S11307D0ECE3F2E08DE287876095262F30E02F5F0F
S11307E03F4FC90164E670E087D60F2EFAE0EF2E82
S11307F0F12CF02DB70180D6605D608BC901B70183
S11308007BD6805D818BCF5CC093470263E070E050
S11308108CE392E0D2D1F801E85EFB4F20A530E0F2
S113082040AD50E0DF01A856BF4F6C9170E0E85531
S1130830FF4F808190E08DD4CF911F910F91FF9055
S1130840EF900895CF93C0E08C2F6ADD8C2FBDDD2F
S11308508C2FC5DDCF5FCC32B9F7CF91089585E2F7
S113086083BB089520919E0530919F05A29881E154
S1130870A09A332314F4A59A01C0A598A098220F36
S1130880331F8150A9F7A29A08951092A00538D178
S11308904ADCE5DFB5DC11D02FDDE8D37894E9DC60
S11308A049DC8BD0ACDC89D0DDDF87D0DBDC85D0C4
S11308B0C9DF83D017D081D0F3CF60E070E083EB41
S11308C093E07BD161E070E08EE993E076D162E061
S11308D070E089E893E071D163E070E084E793E02D
S11308E06CC108958091170490917105981709F4CB
S11308F063C08370809317048130E1F030F082305C
S113090071F1833009F440C053C060E070E083EBC0
S113091093E053D161E070E08EE993E04ED162E060
S113092070E089E893E049D163E070E084E793E004
S113093044D13EC060E070E08FE593E03ED161E0D9
S113094070E08AE493E039D162E070E085E393E0FB
S113095034D163E070E080E293E02FD129C060E0FD
S113096070E08BE093E029D161E070E086EF92E0E3
S113097024D162E070E081EE92E01FD163E070E088
S11309808CEC92E01AD114C060E070E087EB92E046
S113099014D161E070E082EA92E00FD162E070E08D
S11309A08DE892E00AD163E070E088E792E005D137
S11309B080911704809371050895CF92DF92EF928E
S11309C0FF920F931F93CF93DF938091A005982FED
S11309D0906990930D04982F906B90930C04982F2A
S11309E0906C90930B04806880930A0455D3809391
S11309F00E0490910D0489132DC04ED3CEE0D4E0A3
S1130A0089834AD38A8300E615E0C0EAD4E00F2E36
S1130A10F0EBCF2EF4E0DF2EF02D0F2EFEE0EF2EC4
S1130A20F4E0FF2EF02DF80191918F01F7018181FF
S1130A3098130CC0288130E0FE01E057F109408191
S1130A4050E0688970E088A190E03BD32196CC15F2
S1130A50DD0549F790910E0480910C0498130BC0A6
S1130A601BD3CEE0D4E0898317D38A8363E070E09C
S1130A7080EF93E0A2D090910E0480910B04981320
S1130A8008C00AD380930F0463E070E08CED93E018
S1130A9094D090910E0480910A0498130BC0FCD258
S1130AA0CEE0D4E08983F8D28A8363E070E088ECF6
S1130AB093E083D0DF91CF911F910F91FF90EF903E
S1130AC0DF90CF900895E5E0F1E08081826080833B
S1130AD085E08A95F1F7000080818D7F80830895F9
S1130AE0E5E0F1E090819E7F908388B9ECCF089592
S1130AF0E5E0F1E090819160908388B9E4CF0895B6
S1130B0083E0809304018FEF87B9E5E0F1E0808111
S1130B108C7F808318B88FE193E00197F1F700C0D0
S1130B2000008AE2DDDF81E7DBDF8CE5E1DF88E2DC
S1130B30D7DF88E0D5DF8AE2D3DF89E7D1DF85ED2F
S1130B40CFDF80E7CDDF88E7CBDF89E0C9DF86E050
S1130B50C7DF82E7C5DF8AE0CBDF89E7C1DF8AED43
S1130B60BFDF80E1BDDF8CEDBBDF80E0B9DF81E872
S1130B70B7DF8FE7B5DF89EDB3DF81EFB1DF8BED51
S1130B80AFDF80E4ADDF88E7ABDF88E2A9DF81E097
S1130B90A7DF8FE39FE10197F1F700C0000080E831
S1130BA09FDF8CE09DDF9FEF24E38CE09150204099
S1130BB08040E1F700C0000008950F931F93CF9386
S1130BC0DF938C01FB01FF27EC5FFB4F808188DF03
S1130BD0E8010C5E1F4F89918BDFC017D107D9F74D
S1130BE0DF91CF911F910F910895CF93DF93F90176
S1130BF0433009F451C028F4413051F0423021F11E
S1130C00A2C1443009F48EC0453009F4FDC09BC133
S1130C10EC01C60FD11DADECBCEC81D49695879543
S1130C2096958795969587959C01220F331F880F7B
S1130C30991F880F991F880F991F820F931FE81B14
S1130C40F90BE05DE8837FC1EC01C60FD11DADEC6B
S1130C50BCEC65D4969587959695879596958795DA
S1130C609C01220F331F880F991F880F991F880F2B
S1130C70991F820F931F9F01281B390BC901805DA7
S1130C8089839F014CD496958795969587959695DB
S1130C908795805D888357C1EC01C60FD11DADECEB
S1130CA0BCEC3DD4969587959695879596958795B2
S1130CB09C01220F331F880F991F880F991F880FDB
S1130CC0991F820F931F9F01281B390BC901805D57
S1130CD08A83AF0156954795569547959A01ABE798
S1130CE0B4E11DD49695879564E6689F9001699F49
S1130CF0300D1124CF01821B930B9C01ADECBCEC95
S1130D000ED4969587959695879596958795805D4B
S1130D1089839A01ABE7B4E102D496958795805D07
S1130D20888311C1EC01C60FD11DADECBCECF7D327
S1130D309695879596958795969587959C01220F0C
S1130D40331F880F991F880F991F880F991F820FCF
S1130D50931F9F01281B390BC901805D8B839F0161
S1130D603695279536952795ABE7B4E1D8D3969574
S1130D70879544E6489F9001499F300D1124CF0187
S1130D80821B930B9C01ADECBCECC9D39695879563
S1130D909695879596958795805D8A83AF0156953C
S1130DA0479556954795569547959A01A5ECB0E217
S1130DB0B6D3929582958F7089279F70892768EEA4
S1130DC073E0869F9001879F300D969F300D11240C
S1130DD0CF01821B930B9C01369527953695279559
S1130DE0ABE7B4E19CD396958795805D89839A019E
S1130DF0A5ECB0E294D3929582958F7089279F7069
S1130E008927805D88839FC0EC01C60FD11DADEC9E
S1130E10BCEC85D3969587959695879596958795F9
S1130E209C01220F331F880F991F880F991F880F69
S1130E30991F820F931F9F01281B390BC901805DE5
S1130E408C839F013695279536952795ABE7B4E1BA
S1130E5066D39695879544E6489F9001499F300D47
S1130E601124CF01821B930B9C01ADECBCEC57D336
S1130E70969587959695879596958795805D8B83AE
S1130E809F01369527953695279536952795A5EC98
S1130E90B0E245D3929582958F7089279F708927F8
S1130EA048EE53E0849F9001859F300D949F300D50
S1130EB01124CF01821B930B9C01369527953695FF
S1130EC02795ABE7B4E12BD396958795805D8A830C
S1130ED0AF01529542954F7045275F7045279A019F
S1130EE0A7E4B3E01CD39695879596958795969538
S1130EF0879560E177E2869F9001879F300D969FEA
S1130F00300D1124CF01821B930B9C01369527953C
S1130F103695279536952795A5ECB0E200D39295A2
S1130F2082958F7089279F708927805D89839A01B4
S1130F30A7E4B3E0F4D29695879596958795969510
S1130F408795805D8883DF91CF9108951F920F92DA
S1130F500FB60F9211240BB60F922F933F938F93DA
S1130F609F93EF93FF938091150490911604209121
S1130F7013043091140482179307B9F0FC01EE5264
S1130F80FA4F80818093C6008091150490911604D5
S1130F900196803891052CF49093160480931504DF
S1130FA004C01092160410921504FF91EF919F91C2
S1130FB08F913F912F910F900BBE0F900FBE0F900A
S1130FC01F9018951F920F920FB60F9211240BB613
S1130FD00F928F939F93EF93FF93809111049091BD
S1130FE0CE00E82FF0E0EE5AF94F90838F5F1AF0AD
S1130FF08093110402C010921104FF91EF919F910C
S11310008F910F900BBE0F900FBE0F901F901895ED
S11310102091130430911404F901EE52FA4F8083A5
S11310202F5F3F4F203831052CF430931404209364
S113103013040895109214041092130408950F9346
S11310401F93CF93DF93EC018C01065F1F4F8991AF
S1131050DFDFC017D107D9F78091C00085FD10925A
S1131060C600DF91CF911F910F9108951092C50092
S113107080E18093C4001092CD008FE18093CC0076
S113108088E48093C10086E08093C20090E9909345
S1131090C9008093CA0008959091120480911104AC
S11310A0981769F0E92FF0E0EE5AF94F80819F5FBD
S11310B01AF090931204089510921204089580E097
S11310C00895CF93DF93CDB7DEB72A970FB6F89480
S11310D0DEBF0FBECDBF90EF99839AEA9A839AE060
S11310E09B8393E09C832D838E836F83488719862B
S11310F085E58A87CE010196A2DF2A960FB6F89479
S1131100DEBF0FBECDBFDF91CF910895CF93DF93A4
S1131110CDB7DEB728970FB6F894DEBF0FBECDBFAC
S113112090EF99839AEA9A8398E09B8395E09C8355
S11311304D838E836F8385E58887CE0101967FDF9B
S113114028960FB6F894DEBF0FBECDBFDF91CF91C6
S11311500895CF93DF93CDB7DEB729970FB6F894F0
S1131160DEBF0FBECDBF90EF99839AEA9A8399E0D0
S11311709B8398E09C838D836E834F83288785E5CA
S11311808987CE0101965BDF29960FB6F894DEBFFE
S11311900FBECDBFDF91CF910895CF93DF93CDB72D
S11311A0DEB728970FB6F894DEBF0FBECDBF90EF21
S11311B099839AEA9A8398E09B839CE09C838D832D
S11311C06E834F8385E58887CE01019638DF2896A4
S11311D00FB6F894DEBF0FBECDBFDF91CF91089557
S11311E05058BB27AA270ED04DC13ED130F043D171
S11311F020F031F49F3F11F41EF433C10EF4E09556
S1131200E7FB29C1E92F4FD180F3BA1762077307AF
S11312108407950718F071F49EF567C10EF4E09504
S11312200B2EBA2FA02D0B01B90190010C01CA019C
S1131230A0011124FF27591B99F0593F50F4503E47
S113124068F11A16F040A22F232F342F4427585F39
S1131250F3CF469537952795A795F0405395C9F751
S11312607EF41F16BA0B620B730B840BBAF0915009
S1131270A1F0FF0FBB1F661F771F881FC2F70EC0A8
S1131280BA0F621F731F841F48F48795779567957B
S1131290B795F7959E3F08F0B3CF9395880F08F064
S11312A09927EE0F9795879508950CD0EBC0E3D05E
S11312B040F0DAD030F021F45F3F19F0CCC0511186
S11312C015C1CFC0F0D098F39923C9F35523B1F3D6
S11312D0951B550BBB27AA2762177307840738F0A1
S11312E09F5F5F4F220F331F441FAA1FA9F333D000
S11312F00E2E3AF0E0E830D091505040E695001CB4
S1131300CAF729D0FE2F27D0660F771F881FBB1F6F
S1131310261737074807AB07B0E809F0BB0B802D49
S1131320BF01FF2793585F4F2AF09E3F510568F095
S113133092C0DCC05F3FECF3983EDCF38695779572
S11313406795B795F7959F5FC9F7880F911D969597
S1131350879597F90895E1E0660F771F881FBB1FF3
S1131360621773078407BA0720F0621B730B840BA0
S1131370BA0BEE1F88F7E095089504D06894B11174
S1131380B5C0089598D088F09F5790F0B92F992749
S1131390B751A0F0D1F0660F771F881F991F1AF07C
S11313A0BA95C9F712C0B13081F09FD0B1E0089569
S11313B09CC0672F782F8827B85F39F0B93FCCF3EA
S11313C0869577956795B395D9F73EF49095809572
S11313D0709561957F4F8F4F9F4F0895E89409C092
S11313E097FB3EF490958095709561957F4F8F4F54
S11313F09F4F9923A9F0F92F96E9BB279395F6956A
S1131400879577956795B795F111F8CFFAF4BB0FE7
S113141011F460FF1BC06F5F7F4F8F4F9F4F16C04B
S1131420882311F096E911C0772321F09EE8872FD5
S1131430762F05C0662371F096E8862F70E060E091
S11314402AF09A95660F771F881FDAF7880F96950A
S1131450879597F9089597F99F6780E870E060E0B1
S113146008959FEF80EC089500240A941616170639
S113147018060906089500240A9412161306140681
S113148005060895092E0394000C11F4882352F0E4
S1131490BB0F40F4BF2B11F460FF04C06F5F7F4F9C
S11314A08F4F9F4F089557FD9058440F551F59F083
S11314B05F3F71F04795880F97FB991F61F09F3F3D
S11314C079F087950895121613061406551FF2CF66
S11314D04695F1DF08C0161617061806991FF1CFB6
S11314E086957105610508940895E894BB276627DD
S11314F07727CB0197F9089597FB072E16F40094EC
S113150006D077FD08D01AD007FC05D03EF490959C
S113151081959F4F0895709561957F4F0895A29F7F
S1131520B001B39FC001A39F700D811D1124911DB3
S1131530B29F700D811D1124911D0895AA1BBB1B20
S113154051E107C0AA1FBB1FA617B70710F0A61BBF
S1131550B70B881F991F5A95A9F780959095BC01E0
S10B1560CD010895F894FFCFBA
S1131568507265737365643A2078782020202020AF
S113157820200000456E76656C6F706554696D6552
S1131588783A787878784D53456E76656C6F7065DF
S11315984761696E78783A787878646254726163DE
S11315A86B566F6C756D6578203D20787878646229
S11315B84F7574566F6C756D652078203D2078786A
S11315C8786462205069746368203D2078787820B4
S11315D8202020202020202028707574207472690F
S11315E8676765726564206E6F746529004D696468
S11315F8692074726967676572204E6F7465732019
S113160820004D696469204368616E6E656C3A20F8
S113161878782020202000476C6F62616C20536525
S11316287474696E677320202020200020202020F5
S1131638202020202020202020202020202020209E
S1131648004E6577204E616D653F202020202020C4
S11316582020202020004E616D6520676F6573206F
S1131668686572652020202020200053616D706C0D
S1131678652053656C656374202020202020200099
S113168863757272656E742076616C756520636823
S1131698616E67650053746570206E756D6265725E
S11316A83A202020202020202000537465707320C5
S11316B8203A2020202020202020202020200053F1
S11316C8657175656E636520202020202020202008
S11316D82020200063757272656E742076616C75C3
S11316E865206368616E67650042504D3A2020208A
S11316F8202020202020202020202020200050618D
S1131708747465726E3A2020202020202020202026
S1131718202000506572666F726D616E6365204D9E
S11317286F646520202020002D2D2D2D2D2D2D2D8D
S11317382D2D2D2D2D2D2D2D2D2D2D2D50726F67E9
S113174872616D4368616E67654D65737361676542
S1131758436F6E74726F6C4368616E67654D657331
S10B17687361676580A0C0E015
S9030000FC
