S01800005473756E616D694353314D61737465722E73726563F8
S113000071C000008FC000008DC000008BC00000D4
S113001089C0000087C0000085C0000083C00000C4
S113002081C000007FC000007DC000007BC00000D4
S113003079C0000077C0000075C0000073C00000E4
S113004071C000006FC000006DC000006BC00000F4
S113005069C0000067C0000065C0000063C0000004
S113006061C000005FC000005DC000000C940D0B77
S113007059C0000057C0000055C0000053C0000024
S113008051C000004FC000004DC000004BC0000034
S11300900C94490B47C0000045C0000043C0000059
S11300A041C000003FC000003DC000003BC0000054
S11300B039C0000037C0000035C0000033C0000064
S11300C031C000002FC000002DC000002BC0000074
S11300D029C0000027C0000025C0000023C0000084
S11300E021C0000011241FBECFEFD1E2DEBFCDBF7F
S11300F000E00CBF13E0A0E0B2E0E6E3FCE100E0C6
S11301000BBF02C007900D92AA35B107D9F727E0BB
S1130110AAE5B3E001C01D92A037B207E1F73DD5CF
S11301200C94190E6DCF8FEF82B980930B018FE77A
S113013085B908952F923F924F925F926F927F926A
S11301408F929F92AF92BF92CF92DF92EF92FF92E3
S11301500F931F93CF93DF93C0910901C095C09370
S1130160C50480B1D0E0DC2FCC278095C82BD09378
S11301709405C093930580915A0390915B03C8172B
S1130180D90709F49FC0D0935B03C0935A030F2E81
S1130190F2E8EF2EF3E0FF2EF02D02EF13E0512CE6
S11301A089EE9FEF9C012A56334049010F2EF7E94F
S11301B0AF2EF5E0BF2EF02D0F2EF0E52F2EF02DF3
S11301C00F2EFFE64F2EF02D0F2EFCE63F2EF02DC6
S11301D08C2F81708093EB05882309F468C080918B
S11301E06903882319F0823069F061C0F701408106
S11301F050E0F801608970E080A19A0190E00E94CB
S1130200C80B55C03801F801C088D12CDC2CCC2493
S113021080A1C82A50921A0694012E0D3F1D42E077
S113022067E08BEA95E00E945C09960144E06AE08D
S11302308BEA95E00E945C0961E070E08BEA95E04E
S11302400E944409F8018081882319F0813041F02B
S11302500DC0F50122AA43AA34AA29E725AB06C09A
S113026023E5F50122AB43AA34AA45AA62E070E073
S11302708FEB95E00E944409F701208130E02F5F65
S11302803F4F42E06AE083ED95E00E945C0963E041
S113029070E083ED95E0F8D7F701408150E0F30179
S11302A0608970E080A19A0190E00E94C80BD69505
S11302B0C7955394FFEFEF1AFF0A0F5F1F4F20E11A
S11302C0521286CFDF91CF911F910F91FF90EF9043
S11302D0DF90CF90BF90AF909F908F907F906F9062
S11302E05F904F903F902F90089583B180936C0658
S11302F0809585FF05C09091E70590959093E7055B
S113030086FF05C08091E80580958093E8050895EF
S113031088E78093020108952091000126FD12C010
S11303202091000125FD05C0FC0120812F5F208361
S113033004C0FC01208121502083E0E0F1E08081B1
S113034086FFFDCF08952091000123FD12C0209166
S1130350000124FD05C0FC0120812150208304C03C
S1130360FC0120812F5F2083E0E0F1E0808183FFA6
S1130370FDCF089589E693E0CFDF8EE696E0E3CFE4
S11303800895EF92FF920F931F93CF93DF938C0105
S11303907A0194E1592F561B6623A1F0F90184E1F7
S11303A08E9DD0018F9DB00D1124A00FB11FCFEFF2
S11303B0C60FD0E021962C0F3D1F91919D93E2171B
S11303C0F307D9F7552391F024E12E9DC0012F9D09
S11303D0900D1124080F191F952F960F80E2F80134
S11303E0E60FF11D80836F5F6913F9CFDF91CF9121
S11303F01F910F91FF90EF900895E2E1F4E080E007
S11304008F5F81938031E1F780E38093B20481E3CD
S11304108093B30482E38093B40483E38093B504AC
S113042084E38093B60485E38093B70486E38093E2
S1130430B80487E38093B90488E38093BA0489E31A
S11304408093BB048AE38093BC048BE38093BD0454
S11304508CE38093BE048DE38093BF048EE380938A
S1130460C0048FE38093C10488E790E09093C304B1
S11304708093C20481E08093190610926F0680E194
S11304808093C40424EA32E041E050E068E083E46D
S113049095E077DF2DEA32E042E050E064E083E467
S11304A095E06FDF22EB32E043E050E064E083E468
S11304B095E067DF27EB32E040E050E060E183E461
S11304C095E05FDF24EA32E041E050E068E087EC49
S11304D094E057DF28EC32E042E050E066E087EC3D
S11304E094E04FDF2FEC32E043E050E06CE087EC27
S11304F094E047DF2CED32E040E050E06DE087EC23
S113050094E03FDF2AEE32E041E050E066E087E924
S113051095E037DF21EF32E042E050E069E087E91F
S113052095E02FDF2BEF32E043E050E069E087E90C
S113053095E027DF25E033E040E050E06EE087E916
S113054095E01FDF24E133E041E050E06DE08BE112
S113055096E017DF22E233E042E050E062E18BE113
S113056096E00FDF25E333E043E050E064E18BE104
S113057096E007DF2AE433E040E050E06FE08BE1EF
S113058096E0FFCE0895EAE7F0E0808180648083FE
S1130590808186FDFDCF80917900089588E38DB92F
S11305A080E280937C0087E880937A0088E08093DF
S11305B07B008FEF80937E0080937D001092EC058A
S11305C0E2CF0895CF93982F969596952FE2929F18
S11305D0912D112496952CE2929F80191124982F25
S11305E0883218F588E080937B00C92FC7709695F0
S11305F096959695906290937C00C5DFC33059F030
S113060018F4C13031F00CC0C43039F0C63039F0C0
S113061007C0C4E005C0C6E003C0C1E001C0C3E038
S1130620CC0FCC0FCC0FCEB920C0893271F018F4A6
S1130630883231F01AC08A3269F08B3281F015C0E9
S113064085E280937C009FDF10C086E280937C006B
S11306509ADF0BC087E280937C0095DF06C080E2BE
S113066080937C0010927B008EDFCF910895CF930E
S1130670C82F89DFEC2FF0E0E95EFA4F8083CF9139
S11306800895EF92FF920F931F93CF93982F96950F
S113069096952FE2929F912D112496952CE2929F8C
S11306A080191124982FA82FB0E0FD01E351FA4FCF
S11306B06081FD01E95EFA4FE081F0E0E61BF1099B
S11306C0AF0112F44F5F5F4F55954795460FA35105
S11306D0BA4F4C93983208F014C2C92FC77096953C
S11306E096959695923009F4D8C030F4992359F030
S11306F0913009F495C024C2933009F452C1943066
S113070009F46CC11DC20C2F10E0642F70E080E06E
S113071090E00E94570D20E030E04CE450E40E9449
S1130720BC0C20E030E04CE852E40E94570C0E94DC
S1130730240D862F972F9C01F801E659FC4F8081E8
S113074090E0982F88274085842B8217930709F41B
S1130750F7C1F801E659FC4F6087332364F1F801CF
S1130760E659FC4F1082ECE3F2E080E386872DEC3F
S1130770629F812D1124869586958695880F982FE2
S1130780990F990F890F962F981B892F805D808B65
S113079089E2689F812D112482958F7094E6899F48
S11307A060191124629F612D1124669566956695E2
S11307B0605D678723C08FEFF801E659FC4F8083A3
S11307C0ECE3F2E08DE286876095262F30E02F5F20
S11307D03F4FC90164E670E00E94E30D0F2EFAE07A
S11307E0EF2EF12CF02DB7010E94E30D605D6787B9
S11307F0C901B7010E94E30D805D808BCF5CC0937B
S1130800460263E070E08CE392E03ED5F801E659DD
S1130810FC4F608170E08085A80190E0DED790C134
S11308200C2F10E060E8640FF801E659FC4F808952
S1130830861709F485C1F801E659FC4F608B809155
S11308406903811120C0CF5CC0935502662364F410
S11308508DE280935702262F209530E043E068E034
S113086080E592E029D50AC08BE280935702262FB7
S113087030E043E068E080E592E01ED563E070E09C
S113088080E592E001D5F801E659FC4F408950E03B
S113089060E070E0C801E8D753C10C2F10E0642F6A
S11308A070E080E090E00E94570D20E030E04CE4DE
S11308B050E40E94BC0C20E030E04CE852E4F7D74E
S11308C00E94240D862F972F9C01A80146595C4F46
S11308D0FA01E85BFF4F808190E0982F882770969B
S11308E04081842B8217930709F42AC1F801EE533F
S11308F0FC4F6083332364F1F801EE54FC4F108203
S1130900E4E1F2E080E387872DEC629F812D1124DE
S1130910869586958695880F982F990F990F890F3C
S1130920962F981B892F805D818B89E2689F812D8A
S1130930112482958F7094E6899F60191124629F17
S1130940612D1124669566956695605D608B20C067
S1130950F801EE54FC4F8FEF8083E4E1F2E08DE286
S113096087876095262F30E02F5F3F4FC90164E6EB
S113097070E00E94E30D0AE010E0B8010E94E30D6C
S1130980605D608BC901B8010E94E30D805D818BBD
S1130990CF5CC093210263E070E084E192E074D400
S11309A0CFC08C2F90E0FC01EE52FC4F2081421707
S11309B009F4C6C0FC01EE52FC4F4083242F30E002
S11309C044E06EE080E092E077D4CF5CC0930C0208
S11309D063E070E080E092E057D4B2C00C2F10E0E6
S11309E0642F70E080E090E00E94570D20E030E03A
S11309F04CE450E4C1D720E030E04CE852E457D74F
S1130A000E94240D862F972F9C01F801E659FC4F74
S1130A1080A590E0982F882740AD842B82179307F8
S1130A2009F48EC0F801E659FC4F60AF332364F13A
S1130A30F801E659FC4F10A6E8E2F2E080E387876C
S1130A402DEC629F812D1124869586958695880FBD
S1130A50982F990F990F890F962F981B892F805DD6
S1130A60818B89E2689F812D112482958F7094E691
S1130A70899F60191124629F612D112466956695E2
S1130A806695605D608B23C08FEFF801E659FC4FDB
S1130A9080A7E8E2F2E08DE287876095262F30E0B8
S1130AA02F5F3F4FC90164E670E00E94E30D0F2EF3
S1130AB0FAE0EF2EF12CF02DB7010E94E30D605DFA
S1130AC0608BC901B7010E94E30D805D818BCF5C0F
S1130AD0C093330263E070E088E292E0D5D3F8017A
S1130AE0E659FC4F20A530E040AD50E0DF01A856A8
S1130AF0BF4F6C9170E0E855FF4F808190E090D635
S1130B001FC09A32E9F4242F30E0225E3F4F8091D7
S1130B10C2049091C3048217930791F03093C304E5
S1130B202093C2048091690381110AC043E065E007
S1130B308BE695E0C1D362E070E08BE695E0A4D348
S1130B40CF911F910F91FF90EF900895CF93C0E044
S1130B508C2F38DD8C2F8BDD8C2F93DDCF5FCC3247
S1130B60B9F7CF91089585E283BB08958091690315
S1130B70811112C02091930530919405A29881E1CE
S1130B80A09A332314F4A59A01C0A598A098220F23
S1130B90331F8150A9F7A29A0895109295052DDC70
S1130BA016D3C1DAE0DFB4DB10D0F8DCC6D5789414
S1130BB0C1DA6AD29ADB68D2D9DF66D2DBDB64D2CF
S1130BC0C5DF62D242D060D2F3CF0F931F93CF938D
S1130BD0DF93C2ECD4E02881398143E065E08BE601
S1130BE095E06AD32091950530E02F5F3F4F42E0B6
S1130BF06EE08FE296E060D32091190630E043E086
S1130C0069E087E595E058D32091190630E043E088
S1130C1069E08BED94E050D32881398143E065E0AD
S1130C208BE695E049D303E415E0C0E0D0E0BE01D3
S1130C30C8012AD321960C5E1F4FC430D105B9F7E1
S1130C40DF91CF911F910F9108950F931F93CF932D
S1130C50DF939091E90580916E06981709F49DC180
S1130C60837080936E06891B90916903923009F416
S1130C7072C0933009F4DBC0913009F08AC181302D
S1130C80A1F5809196058F5F843018F480939605C2
S1130C9003C083E0809396056091960570E0C4E1FB
S1130CA0C69FC001C79F900D112489539B4F2CE30D
S1130CB0FC01238B9B0121503109C29FF001C39F8A
S1130CC0F00D1124E953FB4F20E2238BDDD2609118
S1130CD0960570E061507109C69FC001C79F900DD1
S1130CE0112489539B4FD0D254C1809196059EEF15
S1130CF0980F9A3F20F481508093960503C081E0B9
S1130D00809396056091960570E0C4E1C69FC0018A
S1130D10C79F900D112489539B4F2CE3FC01238B17
S1130D209B012F5F3F4FC29FF001C39FF00D112421
S1130D30E953FB4F20E2238BA7D26091960570E024
S1130D406F5F7F4FC69FC001C79F900D11248953C9
S1130D509B4F9AD21EC18130A1F58091EA058F5F25
S1130D60843018F48093EA0503C083E08093EA0595
S1130D706091EA0570E0C4E1C69FC001C79F900D71
S1130D80112489569A4F2CE3FC01238B9B0121509B
S1130D903109C29FF001C39FF00D1124E956FA4FA7
S1130DA020E2238B71D26091EA0570E061507109F1
S1130DB0C69FC001C79F900D112489569A4F64D2D3
S1130DC0E8C08091EA059EEF980F9A3F20F4815085
S1130DD08093EA0503C081E08093EA056091EA0507
S1130DE070E0C4E1C69FC001C79F900D11248956CD
S1130DF09A4F2CE3FC01238B9B012F5F3F4FC29F33
S1130E00F001C39FF00D1124E956FA4F20E2238B21
S1130E103BD26091EA0570E06F5F7F4FC69FC001CF
S1130E20C79F900D112489569A4F2ED2B2C081309B
S1130E3009F058C08091E805882301F180916B0680
S1130E40813009F0A6C0809195058F5F803118F438
S1130E508093950503C08FE08093950520919505B7
S1130E6030E02F5F3F4F42E06EE08FE296E024D205
S1130E7061E070E08FE296E007D28BC080916B0650
S1130E808F5F843018F480936B0603C083E08093F3
S1130E906B0660916B0670E0C4E1C69FC001C79FFA
S1130EA0900D1124855E994F2CE3FC01238B9B014B
S1130EB021503109C29FF001C39FF00D1124E55E5A
S1130EC0F94F20E2238BE0D160916B0670E0615012
S1130ED07109C69FC001C79F900D1124855E994F6B
S1130EE0D3D157C08091E8058823F1F080916B0637
S1130EF0813009F04EC080919505815018F080939F
S1130F00950502C0109295052091950530E02F5F5C
S1130F103F4F42E06EE08FE296E0CED161E070E0B8
S1130F208FE296E0B1D135C080916B069EEF980FA9
S1130F309A3F20F4815080936B0603C081E0809334
S1130F406B0660916B0670E0C4E1C69FC001C79F49
S1130F50900D1124855E994F2CE3FC01238B9B019A
S1130F602F5F3F4FC29FF001C39FF00D1124E55E38
S1130F70F94F20E2238B88D160916B0670E06F5F9C
S1130F807F4FC69FC001C79F900D1124855E994F66
S1130F907BD180916E068093E905809169039091DD
S1130FA0C604981709F46BC0837080936903813079
S1130FB009F138F0823009F43FC0833009F44CC0A1
S1130FC05AC02091C2043091C30443E065E08BE62B
S1130FD095E072D103E415E0C0E0D0E0BE01C801A1
S1130FE053D121960C5E1F4FC430D105B9F710922E
S1130FF06D0641C02091C40430E042E066E08FEE0B
S113100094E05AD120916F0630E02F5F3F4F42E0C9
S11310106DE083E095E050D107EC14E0C0E0D0E04F
S1131020BE01C80131D121960C5E1F4FC430D105D9
S1131030B9F7109296051FC007E915E0C0E0D0E0AB
S1131040BE01C80121D121960C5E1F4FC430D105C9
S1131050B9F71092EA050FC00BE116E0C0E0D0E04A
S1131060BE01C80111D121960C5E1F4FC430D105B9
S1131070B9F710926B06809169038093C604DF91DF
S1131080CF911F910F910895CF92DF92EF92FF922B
S11310900F931F93CF93DF9380919505982F9069B9
S11310A090935F03982F906B90935E03982F906CAE
S11310B090935D03806880935C0355D380936003B1
S11310C090915F0389132DC04ED3C0E6D3E089838A
S11310D04AD38A8302EB14E0C2EFD3E00F2EF2E08E
S11310E0CF2EF4E0DF2EF02D0F2EF0E6EF2EF3E0FE
S11310F0FF2EF02DF80191918F01F7018181981352
S11311000CC0288130E0FE01E057F109408150E035
S1131110688970E088A190E03BD32196CC15DD0569
S113112049F79091600380915E0398130BC01BD321
S1131130C0E6D3E0898317D38A8363E070E08CE848
S113114092E0A2D09091600380915D03981308C04F
S11311500AD38093610363E070E088E792E094D05F
S11311609091600380915C0398130BC0FCD2C0E69D
S1131170D3E08983F8D28A8363E070E084E692E066
S113118083D0DF91CF911F910F91FF90EF90DF906B
S1131190CF900895E5E0F1E080818260808385E06E
S11311A08A95F1F7000080818D7F80830895E5E0C2
S11311B0F1E090819E7F908388B9ECCF0895E5E0BB
S11311C0F1E090819160908388B9E4CF089583E041
S11311D0809304018FEF87B9E5E0F1E080818C7F93
S11311E0808318B88FE193E00197F1F700C0000005
S11311F08AE2DDDF81E7DBDF8CE5E1DF88E2D7DF50
S113120088E0D5DF8AE2D3DF89E7D1DF85EDCFDF60
S113121080E7CDDF88E7CBDF89E0C9DF86E0C7DF81
S113122082E7C5DF8AE0CBDF89E7C1DF8AEDBFDF74
S113123080E1BDDF8CEDBBDF80E0B9DF81E8B7DFA3
S11312408FE7B5DF89EDB3DF81EFB1DF8BEDAFDF82
S113125080E4ADDF88E7ABDF88E2A9DF81E0A7DFC8
S11312608FE39FE10197F1F700C0000080E89FDF62
S11312708CE09DDF9FEF24E38CE091502040804080
S1131280E1F700C0000008950F931F93CF93DF93FD
S11312908C01FB01FF27E056FD4F808188DFE801C8
S11312A00C5E1F4F89918BDFC017D107D9F7DF91EF
S11312B0CF911F910F910895CF93DF93F90143309C
S11312C009F451C028F4413051F0423021F1A2C157
S11312D0443009F48EC0453009F4FDC09BC1EC01D3
S11312E0C60FD11DADECBCEC81D49695879596952F
S11312F08795969587959C01220F331F880F991F18
S1131300880F991F880F991F820F931FE81BF90BF1
S1131310E05DE8837FC1EC01C60FD11DADECBCECF0
S113132065D49695879596958795969587959C010E
S1131330220F331F880F991F880F991F880F991F39
S1131340820F931F9F01281B390BC901805D89837C
S11313509F014CD4969587959695879596958795F4
S1131360805D888357C1EC01C60FD11DADECBCEC88
S11313703DD49695879596958795969587959C01E6
S1131380220F331F880F991F880F991F880F991FE9
S1131390820F931F9F01281B390BC901805D8A832B
S11313A0AF0156954795569547959A01ABE7B4E139
S11313B01DD49695879564E6689F9001699F300DCA
S11313C01124CF01821B930B9C01ADECBCEC0ED419
S11313D0969587959695879596958795805D89834B
S11313E09A01ABE7B4E102D496958795805D888332
S11313F011C1EC01C60FD11DADECBCECF7D3969531
S1131400879596958795969587959C01220F331F0E
S1131410880F991F880F991F880F991F820F931F98
S11314209F01281B390BC901805D8B839F01369571
S1131430279536952795ABE7B4E1D8D3969587954C
S113144044E6489F9001499F300D1124CF01821B2F
S1131450930B9C01ADECBCECC9D3969587959695FE
S1131460879596958795805D8A83AF0156954795B4
S113147056954795569547959A01A5ECB0E2B6D393
S1131480929582958F7089279F70892768EE73E003
S1131490869F9001879F300D969F300D1124CF01B8
S11314A0821B930B9C013695279536952795ABE7C0
S11314B0B4E19CD396958795805D89839A01A5ECC8
S11314C0B0E294D3929582958F7089279F70892773
S11314D0805D88839FC0EC01C60FD11DADECBCECD0
S11314E085D39695879596958795969587959C012E
S11314F0220F331F880F991F880F991F880F991F78
S1131500820F931F9F01281B390BC901805D8C83B7
S11315109F013695279536952795ABE7B4E166D3B9
S11315209695879544E6489F9001499F300D112474
S1131530CF01821B930B9C01ADECBCEC57D3969569
S113154087959695879596958795805D8B839F0162
S1131550369527953695279536952795A5ECB0E2CF
S113156045D3929582958F7089279F70892748EE7D
S113157053E0849F9001859F300D949F300D11247A
S1131580CF01821B930B9C013695279536952795A1
S1131590ABE7B4E12BD396958795805D8A83AF0141
S11315A0529542954F7045275F7045279A01A7E4ED
S11315B0B3E01CD3969587959695879596958795D0
S11315C060E177E2869F9001879F300D969F300DF2
S11315D01124CF01821B930B9C01369527953695D8
S11315E0279536952795A5ECB0E200D39295829580
S11315F08F7089279F708927805D89839A01A7E46A
S1131600B3E0F4D2969587959695879596958795A8
S1131610805D8883DF91CF9108951F920F920FB65A
S11316200F9211240BB60F922F933F938F939F9396
S1131630EF93FF9380916703909168032091650372
S11316403091660382179307B9F0FC01E059F94F12
S113165080818093C600809167039091680301960E
S1131660803891052CF4909368038093670304C039
S11316701092680310926703FF91EF919F918F91ED
S11316803F912F910F900BBE0F900FBE0F901F90A4
S113169018951F920F920FB60F9211240BB60F924A
S11316A08F939F93EF93FF93809163039091CE0068
S11316B0E82FF0E0E051F94F90838F5F1AF08093A8
S11316C0630302C010926303FF91EF919F918F9186
S11316D00F900BBE0F900FBE0F901F901895209186
S11316E0650330916603F901E059F94F80832F5F58
S11316F03F4F203831052CF4309366032093650363
S11317000895109266031092650308950F931F9332
S1131710CF93DF93EC018C01065F1F4F8991DFDFCC
S1131720C017D107D9F78091C00085FD1092C6007B
S1131730DF91CF911F910F9108951092C50080E120
S11317408093C4001092CD008FE18093CC0088E494
S11317508093C10086E08093C20090E99093C90011
S11317608093CA000895909164038091630398174D
S113177069F0E92FF0E0E051F94F80819F5F1AF0A2
S113178090936403089510926403089580E008958B
S1131790CF93DF93CDB7DEB72A970FB6F894DEBFA9
S11317A00FBECDBF90EF99839AEA9A839AE09B8308
S11317B093E09C832D838E836F834887198685E508
S11317C08A87CE010196A2DF2A960FB6F894DEBF6F
S11317D00FBECDBFDF91CF910895CF93DF93CDB7E7
S11317E0DEB728970FB6F894DEBF0FBECDBF90EFDB
S11317F099839AEA9A8398E09B8395E09C834D832E
S11318008E836F8385E58887CE0101967FDF2896D6
S11318100FB6F894DEBF0FBECDBFDF91CF91089510
S1131820CF93DF93CDB7DEB729970FB6F894DEBF19
S11318300FBECDBF90EF99839AEA9A8399E09B8378
S113184098E09C838D836E834F83288785E5898701
S1131850CE0101965BDF29960FB6F894DEBF0FBE6A
S1131860CDBFDF91CF910895CF93DF93CDB7DEB78E
S113187028970FB6F894DEBF0FBECDBF90EF9983C3
S11318809AEA9A8398E09B839CE09C838D836E8381
S11318904F8385E58887CE01019638DF28960FB6F9
S11318A0F894DEBF0FBECDBFDF91CF91089550589D
S11318B0BB27AA270ED04DC13ED130F043D120F032
S11318C031F49F3F11F41EF433C10EF4E095E7FBAD
S11318D029C1E92F4FD180F3BA1762077307840730
S11318E0950718F071F49EF567C10EF4E0950B2E80
S11318F0BA2FA02D0B01B90190010C01CA01A0015E
S11319001124FF27591B99F0593F50F4503E68F1B8
S11319101A16F040A22F232F342F4427585FF3CFF9
S1131920469537952795A795F0405395C9F77EF4CA
S11319301F16BA0B620B730B840BBAF09150A1F013
S1131940FF0FBB1F661F771F881FC2F70EC0BA0F99
S1131950621F731F841F48F4879577956795B79521
S1131960F7959E3F08F0B3CF9395880F08F0992719
S1131970EE0F9795879508950CD0EBC0E3D040F017
S1131980DAD030F021F45F3F19F0CCC0511115C109
S1131990CFC0F0D098F39923C9F35523B1F3951B25
S11319A0550BBB27AA2762177307840738F09F5F7C
S11319B05F4F220F331F441FAA1FA9F333D00E2EEB
S11319C03AF0E0E830D091505040E695001CCAF758
S11319D029D0FE2F27D0660F771F881FBB1F26171D
S11319E037074807AB07B0E809F0BB0B802DBF01F0
S11319F0FF2793585F4F2AF09E3F510568F092C02D
S1131A00DCC05F3FECF3983EDCF3869577956795F1
S1131A10B795F7959F5FC9F7880F911D96958795A0
S1131A2097F90895E1E0660F771F881FBB1F6217BF
S1131A3073078407BA0720F0621B730B840BBA0B7D
S1131A40EE1F88F7E095089504D06894B111B5C0ED
S1131A50089598D088F09F5790F0B92F9927B751DF
S1131A60A0F0D1F0660F771F881F991F1AF0BA955E
S1131A70C9F712C0B13081F09FD0B1E008959CC085
S1131A80672F782F8827B85F39F0B93FCCF3869554
S1131A9077956795B395D9F73EF4909580957095B1
S1131AA061957F4F8F4F9F4F0895E89409C097FB2E
S1131AB03EF490958095709561957F4F8F4F9F4F21
S1131AC09923A9F0F92F96E9BB279395F695879565
S1131AD077956795B795F111F8CFFAF4BB0F11F428
S1131AE060FF1BC06F5F7F4F8F4F9F4F16C08823CF
S1131AF011F096E911C0772321F09EE8872F762F05
S1131B0005C0662371F096E8862F70E060E02AF045
S1131B109A95660F771F881FDAF7880F9695879531
S1131B2097F9089597F99F6780E870E060E0089559
S1131B309FEF80EC089500240A94161617061806E1
S1131B400906089500240A941216130614060506BD
S1131B500895092E0394000C11F4882352F0BB0F4E
S1131B6040F4BF2B11F460FF04C06F5F7F4F8F4FB1
S1131B709F4F089557FD9058440F551F59F05F3FEC
S1131B8071F04795880F97FB991F61F09F3F79F09B
S1131B9087950895121613061406551FF2CF46951D
S1131BA0F1DF08C0161617061806991FF1CF86959F
S1131BB07105610508940895E894BB276627772783
S1131BC0CB0197F9089597FB072E16F4009406D0DD
S1131BD077FD08D01AD007FC05D03EF49095819586
S1131BE09F4F0895709561957F4F0895A29FB0010E
S1131BF0B39FC001A39F700D811D1124911DB29F3D
S1131C00700D811D1124911D0895AA1BBB1B51E168
S1131C1007C0AA1FBB1FA617B70710F0A61BB70B58
S1131C20881F991F5A95A9F780959095BC01CD01FD
S1091C300895F894FFCFB3
S1131C36456E76656C6F706554696D65783A78782B
S1131C4678784D53456E76656C6F70654761696E3D
S1131C5678783A7878786462547261636B566F6CFC
S1131C66756D6578203D2078787864624F75745672
S1131C766F6C756D652078203D20787878646220D5
S1131C865069746368203D207878782020202020CD
S1131C96202020202D2D2D2D2D2D2D2D2D2D2D2D9E
S1131CA62D2D2D2D2D2D2D2D50726F6772616D43A7
S1131CB668616E67654D657373616765436F6E74BE
S1131CC6726F6C4368616E67654D657373616765B2
S1131CD680A0C0E05061747465726E3A0042504D43
S1131CE63A0053746F7000506572666F726D616E60
S1131CF66365204D6F64650053746570733A0053D1
S1131D06746570206E756D6265723A0053657175FF
S1131D16656E6365204564697400547261636B3A49
S1131D2600506C61794D6F64653A004F7574526F5B
S1131D367574653A00547261636B205365747469F3
S1131D466E6773004D696469204368616E6E656CE5
S1131D563A004D6964692054726967676572204E5A
S1131D666F746573002874726967676572204E6FB5
S1131D7674657320686572652900476C6F62616CCF
S10D1D862053657474696E677300DE
S9030000FC
