S01800005473756E616D694353314D61737465722E73726563F8
S1130000F3C0000011C100000FC100004FC2000086
S11300106BC2000087C20000A3C2000005C100003B
S113002003C1000001C10000FFC00000FDC00000CA
S1130030FBC00000F9C00000F7C00000F6C00000DB
S1130040F3C00000F1C00000EFC00000EDC00000EC
S1130050EBC000000C942215E7C00000E5C00000CE
S1130060E3C00000E1C00000DFC000000C94B01544
S1130070DBC00000D9C00000D7C00000D5C000001C
S11300800C94810AD1C00000CFC00000CDC0000094
S1130090CBC00000C9C00000C7C00000C5C000003C
S11300A0C3C00000C1C00000BFC00000BDC000004C
S11300B0BBC00000B9C00000B7C00000B5C000005C
S11300C0B3C00000B1C00000AFC00000ADC000006C
S11300D0ABC00000A9C000000C946311A5C00000CF
S11300E0A3C000000A0356055605560556055605D5
S11300F05605560556055605560556055605560524
S11301005605560556052E035A0383035605560510
S1130110560556055605380364038D0356055605E2
S1130120560556055605B203ED0304044104B8040C
S1130130560556055605BC03F7030E044B04C204CA
S113014056055605560508052C054D055605560554
S113015056055605560512053605080CD10ED10E66
S1130160D10ED10ED10ED10ED10ED10ED10ED10E93
S1130170D10ED10ED10ED10ED10E1E0C380C5E0C48
S11301808D0CD10ED10ED10ED10ED10E550C7B0C8F
S1130190AA0CD10ED10ED10ED10EBB0CD50C0E0D66
S11301A05A0D8D0DF70DD10ED10ED10EF20C2B0D73
S11301B0770DAA0D140ED10ED10E3D0E570E860EDC
S11301C0B50ED10ED10ED10ED10ED10E740EA30EDA
S11301D0EC14EF14F214F514F814FB14FE140115C6
S11301E0041507150A150D1511241FBECFEFD1E212
S11301F0DEBFCDBF00E00CBF13E0A0E0B2E0E4EB53
S1130200FDE300E00BBF02C007900D92A239B107D5
S1130210D9F72BE0A2E9B3E001C01D92AA35B207D9
S1130220E1F7EED70C94D81EEBCE1F920F920FB6C7
S11302300F9211242F933F938F939F9383B1209117
S113024092038095382F3227909101029323892FAE
S113025080958093010290910002932398279093B4
S1130260000283238923922F98279093920320914D
S1130270A6038923822B8093A6039F918F913F919C
S11302802F910F900FBE0F901F9018958FEF82B98A
S113029080930B018FE785B90895CF92DF92EF9297
S11302A0FF920F931F93CF936C0120910901209526
S11302B02093A40390B130E0322F22279095292B6C
S11302C0DB012D933C9340919303509194032417A5
S11302D0350709F443C07B013093940320939303BF
S11302E0FB0100811181C0E0902F91709093A503D0
S11302F0992379F1D70116969C9192959F7091302C
S113030051F018F0943028F51AC04C2FB701C601EB
S11303100E94FE161EC0D7011496EC911497F0E0CB
S1130320EE0FFF1FEC0DFD1DE550FF4F20813181C5
S11303308D919C9182279327918380830AC0F70132
S1130340C5838285826082874C2FB701C6010E94D3
S1130350FE1616950795CF5FC03131F6CF911F91E8
S11303600F91FF90EF90DF90CF900895FF920F933D
S11303701F93CF93DF93CDB7DEB7CC57DE4F088101
S11303801981C458D14080E277D0882341F1F80123
S1130390868182958F70833021F4C8010E947D1C70
S11303A01EC0F80183818F938DB79EB78B57914000
S11303B00FB6F8949EBF0FBE8DBFADB7BEB71196F2
S11303C08BE791E0FE01399601900D920197E1F7D8
S11303D00E94B1180FB6F894DEBF0FBECDBF80E403
S11303E04BD0882351F0F801868183FF03C0877FB7
S11303F0868303C08860F8018683F801F78080E172
S11304003BD0882371F0F0FE06C0F8011782828188
S11304108F7D828306C081E0F801878382818062B8
S11304208283F801F18481E027D0882371F0F0FE03
S113043006C0F801118682818D7F828306C081E027
S1130440F8018187828182608283F801F28082E0F0
S113045013D0882359F0F2FE05C0F80182818B7F06
S1130460828304C0F801828184608283DF91CF910A
S11304701F910F91FF9008952FB7F8949091A603C0
S113048089239091A60398279093A6032FBF0895DC
S1130490E9E6F0E08081806F8083EAE6F0E0808125
S11304A08F6080838DB38C638DBB08951F920F92F0
S11304B00FB60F9211248F939F938091950381FF20
S11304C009C0909198039150909398038C708093F5
S11304D0950303C08D60809395039F918F910F9036
S11304E00FBE0F901F9018951F920F920FB60F9288
S11304F011248F939F938091950380FF09C090915D
S113050098039F5F909398038C708093950303C026
S11305108E60809395039F918F910F900FBE0F90E3
S11305201F9018951F920F920FB60F9211248F935C
S11305309F938091950383FF09C0909199039F5FD6
S11305409093990383708093950303C0876080938D
S113055095039F918F910F900FBE0F901F90189548
S11305601F920F920FB60F9211248F939F93809135
S1130570950382FF09C09091990391509093990338
S113058083708093950303C08B60809395039F9140
S11305908F910F900FBE0F901F9018950F931F937C
S11305A0CF93DF93AC01DB019091990320919703E2
S11305B0921791F0892F83708295807F16968C9381
S11305C01697109298031A968C911A9781601A962E
S11305D08C93909397036EC29091980380919603A5
S11305E0981709F467C2981B1A968C911A97816020
S11305F01A968C931A9716960C91169710E00B3353
S1130600110508F053C2F8018827EE58FF4F8F4FA9
S11306100C945C1E913071F413968C9113978F5F38
S113062021F013968C93139713C08FEF13968C932A
S113063013970EC09F3F61F413968C9113978150CA
S113064020F013968C93139703C013961C92139760
S113065013966C91CA010E949E1A28C2913021F40B
S113066083E116968C9322C282E116968C931EC265
S1130670913071F413968C9113978F5F21F0139638
S11306808C93139711C08FEF13968C9313970CC010
S113069013968C911397815020F013968C93139793
S11306A003C013961C92139713966C91CA010E946F
S11306B09E1AFCC1913021F481E116968C93F6C107
S11306C083E116968C93F2C1913079F4FA01E653E2
S11306D0FF4F80818F5F813410F48083E7C1FA017A
S11306E0E653FF4F80E48083E1C1FA01E653FF4FF4
S11306F09081915011F09083D9C1FA01E653FF4FD4
S113070081E08083D3C1913021F482E116968C93E9
S1130710CDC181E116968C93C9C1913091F41496A0
S11307209C9114979F5F14969C931497FA01E65337
S1130730FF4F8081981708F4B9C1815014968C93A7
S1130740B5C114969C911497915014969C93149748
S1130750FA01E653FF4F8081891708F0A7C1149668
S11307601C92A4C1913021F485E216968C939EC10B
S113077082E216968C939AC115966C91159770E047
S1130780FA01E60FF71FEF01C856DF4F288130E06A
S1130790322F2227E855FF4F8081282B913049F4CE
S11307A02F5F3F4F213080E1380740F020E030E1F7
S11307B005C02150310911F421E030E0640F751FA8
S11307C0FB01E855FF4F208315968C91480F511D6E
S11307D0FA01E856FF4F308369C1913021F481E278
S11307E016968C9363C183E216968C935FC115961B
S11307F08C91480F511DFA01E857FF4F81E0908119
S1130800911180E0808352C1913021F482E21696E6
S11308108C934CC184E216968C9348C19130C9F4F0
S113082015968C911597FA01E80FF11D808D8F5F55
S1130830808F15968C9190E0FA01E80FF91F208DB6
S1130840283008F433C1FA01E80FF91F87E0808FDC
S11308502DC115968C911597FA01E80FF11D808D25
S11308608150808F15968C9190E0FA01E80FF91F62
S1130870208D283008F41AC1FA01E80FF91F108EF0
S113088015C1913021F483E216968C930FC185E251
S113089016968C930BC19130F9F415968C9115979B
S11308A0FA01E80FF11DE551FF4F80818F5F8083CE
S11308B015968C91159790E0FA01E80FF91FE55110
S11308C0FF4F2081243028F1840F951FFC01E5514E
S11308D0FF4F83E080831DC015968C911597FA0114
S11308E0E80FF11DE551FF4F8081815080831596FB
S11308F08C91159790E0FA01E80FF91FE551FF4F2D
S11309002081243030F0840F951FFC01E551FF4F06
S1130910108215968C9190E0FA01E80FF91FE551C9
S1130920FF4F20812D7F89F4480F591FFA01E856A3
S1130930FF4F608170E0709680812AEB30E04FEFCA
S113094050E090E00E948716B1C0FA01E80FF91F49
S113095020A530E040AD50E0DF01A856BF4F6C91B8
S113096070E0E855FF4F808190E00E9487169EC09A
S1130970913021F484E216968C9398C081E2169605
S11309808C9394C015966C91159770E0FA01E60F5C
S1130990F71FEF01C553DF4F288130E0322F2227A4
S11309A0E552FF4F8081282B913091F412968C915F
S11309B0129782FF03C0C901019603C0C901845183
S11309C09F4F81362AEE9207A0F080E69AEE11C07E
S11309D012968C91129782FF03C0C901019703C03C
S11309E0C9018C5E910981362AEE920710F080E0ED
S11309F090E0640F751FFB01E553FF4F908315963C
S1130A009C91490F511DFA01E552FF4F80834EC05E
S1130A10913021F481E316968C9348C082E31696B4
S1130A208C9344C0913069F41C968C911C978F5F11
S1130A30803118F41C968C9339C08FE01C968C93EB
S1130A4035C01C968C911C97815018F01C968C9381
S1130A502DC01C961C922AC0913021F481E3169675
S1130A608C9324C082E316968C9320C015962C9107
S1130A70159730E0FB01E20FF31F8585913021F4D7
S1130A808F5F32F48FE704C08150813808F080E032
S1130A90A20FB31F1D968C9309C0913021F482E3F9
S1130AA016968C9303C081E316968C9380919803D9
S1130AB080939603DF91CF911F910F9108950F9327
S1130AC01F93CF93DF93EC01FA0101900020E9F723
S1130AD031978F01041B150B902F84E1801B002399
S1130AE0A9F0FA0125E1269FD001279FB00D11241A
S1130AF0AC0FBD1F2FEF200F30E02F5F3F4F420F91
S1130B00531F21912D93E417F507D9F7882389F012
S1130B1045E1469F9001479F300D1124C20FD31F1A
S1130B20080F80E2FE01E90FF11D80839F5F90139F
S1130B30F9CFDF91CF911F910F910895CF93DF9358
S1130B40AC01FC01E855FF4FEC01C857DF4FDC0155
S1130B50A551BF4F90E031E023E09F5F919339931B
S1130B602D9312AA12A29031C1F7FA01E550FF4F5A
S1130B709A0125583E4F11921192E217F307D9F7C3
S1130B80FA01E853FF4F88E790E09183808332961F
S1130B9080E18083DF91CF910895FC01118210825E
S1130BA0128213821482158216821782108611868D
S1130BB012861386613009F5148684E2858785E2FE
S1130BC0868786E2878787E2808B88E2818B89E249
S1130BD0828B8AE2838B8BE2848B8CE2858B8DE221
S1130BE0868B8EE2878B8FE2808F80E3818F81E317
S1130BF0828F82E3838F83E3848F0895EAE7F0E0B2
S1130C00808180648083808186FDFDCF809179001E
S1130C10089580B3876080BB80E280937C0087E87E
S1130C2080937A0088E080937B008FEF80937E002E
S1130C3080937D001092A703E1CF0895CF93982F5E
S1130C40969596952FE2929F912D112496952CE2DC
S1130C50929F80191124982F883270F488E0809331
S1130C607B00C92FC7709695969596959062909340
S1130C707C00C4DFC1BB20C0893271F018F4883213
S1130C8031F01AC08A3269F08B3281F015C085E2E6
S1130C9080937C00B3DF10C086E280937C00AEDFDB
S1130CA00BC087E280937C00A9DF06C080E28093BA
S1130CB07C0010927B00A2DFCF9108950F931F93C5
S1130CC0CF93DF938B01C82FD0E098DFF801EC0FAE
S1130CD0FD1F858FE75BFF4F408190E0841B9109E6
S1130CE09C0112F42F5F3F4F35952795240F2083E5
S1130CF0DF91CF911F910F910895FC01E75BFF4FA6
S1130D009C012B583F4F919193A7E217F307D9F712
S1130D1008954F925F926F927F928F929F92AF92BB
S1130D20BF92CF92DF92EF92FF920F931F93CF93D4
S1130D30DF93EA01982F969596952FE2929F912D35
S1130D40112496952CE2929F80191124982F8832B1
S1130D5008F0B4C1182F1770869586958695298555
S1130D6020FF05C06894AA24A3F8A10E01C0A12EF7
S1130D70823009F49FC07E016B01833030F48823F4
S1130D8059F0813009F46DC0B6C1833009F4DBC079
S1130D90843009F41FC1AFC1C92FD0E0C7018C0F43
S1130DA09D1FFC01EB58FF4F2081BC9760812617E3
S1130DB020F4862F821B282F01C0261B233008F421
S1130DC09AC170E080E090E00E94A11D209102028F
S1130DD03091030240910402509105020E94061DC5
S1130DE02B013C016091060270E080E090E00E94DB
S1130DF0A11D9B01AC01C301B2010E94A11C0E9470
S1130E006E1D862F262F372FD7011A969C911A977D
S1130E1094601A969C931A971B961C93612F70E00A
S1130E20F601E60FF71F808733232CF0F601E60F57
S1130E30F71F108205C09FEFF601E60FF71F90839E
S1130E40F601E60FF71F412F60810E946316CE0D55
S1130E50DF1DFE01EB58FF4FC75BDF4F88818083A6
S1130E604AC1892F90E09E01280F391FF901E75BE1
S1130E70FF4F4081BC962081241709F43CC12A8588
S1130E8024602A87212F20612B87FB01E10FF11DAC
S1130E904058408B8C0F9D1FDC01AB58BF4FEC01B9
S1130EA0C75BDF4F88818C93408960E0812F0E946B
S1130EB0DA1621C1E92FF0E0CE018E0F9F1FDC016D
S1130EC0AB58BF4F0C91875B9F4FDC018C91081787
S1130ED009F411C1CA2CD12CAB014C0D5D1D9A0132
S1130EE0285A3F4FD9012C91485B5F4FDA014C914E
S1130EF09A8594609A87912F90629B879A8192FF3A
S1130F0008C030E0342B90E0801B9109280F391F72
S1130F1008C090E001974EEE489F9001499F300D24
S1130F2011246C0D7D1DDB01A85BBF4F3C935096D3
S1130F302C93EC0FFD1FDF01AB58BF4FE75BFF4F56
S1130F4080818C93D8C0292F30E0CE01820F931F6B
S1130F50FC01EB58FF4FA081BC978081A81709F4CE
S1130F60CAC06A2D70E0F601E60FF71FEF01C858FA
S1130F70DF4F4881E859FF4FE081E7019A8594608B
S1130F809A87912F90639B879A8192FF08C050E0C3
S1130F905E2B90E08A1B9109480F591F08C090E00E
S1130FA00197EEEEE89FA001E99F500D1124C60EB3
S1130FB0D71EF601E859FF4F5083709640832E0DDB
S1130FC03F1DF901EB58FF4FD901A75BBF4F8C912F
S1130FD0808391C0892E912CCE01880D991DFC012E
S1130FE0EB58FF4F2081BC976081261720F4D62F41
S1130FF0D21B2D2F01C0261B233008F47CC070E0C7
S113100080E090E00E94A11D209102023091030231
S113101040910402509105020E94061D2B013C01DF
S11310206091060270E080E090E00E94A11D9B01A7
S1131030AC01C301B2010E94A11C0E946E1D862F47
S1131040972F9C01F701828584608287812F8064B9
S11310508387B12CF601EA0DFB1D60AF33232CF01E
S1131060F601EA0DFB1D10A605C08FEFF601EA0D8F
S1131070FB1D80A7F601EA0DFB1DE551FF4F8081A2
S11310808D7F813079F4E601CA0DDB1DDE01A8569F
S1131090BF4FFE01E855FF4F28A5462F6C91808174
S11310A00E9487168701080D191DF801EB58FF4FA0
S11310B0D801A75BBF4F8C9180831DC08A32D9F4BD
S11310C0FA01ED58FF4F8081BC969081981799F0F2
S11310D09A8594609A8790E59B87FB01E853FF4FBC
S11310E090E091838083DA01A156BF4FFA01ED5855
S11310F0FF4F80818C93DF91CF911F910F91FF90CF
S1131100EF90DF90CF90BF90AF909F908F907F90A3
S11311106F905F904F900895EF92FF920F931F93FB
S1131120CF937C018B01C0E08C2F88DDB8018C2F1C
S1131130C5DDA801B7018C2FECDDCF5FCC32A1F760
S1131140CF911F910F91FF90EF90089587E083BB9B
S11311500895A29827E0A09A662314F4A19A01C0E6
S1131160A198A098660F2150B1F721E1A09A992384
S113117014F4A19A01C0A198A098880F991F215036
S1131180A9F7A29A0895CF93DF93CDB7DEB7CF57CF
S1131190DE4F28813981C158D140CD57DE4F688157
S11311A0C358D140C957DE4F9881C758D140929552
S11311B09F70913049F028F09230D1F09330D9F0FB
S11311C01CC0C901C6DF19C0CB57DE4FE881C55822
S11311D0D140F0E0EE0FFF1F86E090E08C0F9D1FE2
S11311E0E80FF91FE550FF4F80819181B2DF05C000
S11311F0C901AFDF02C0C901ACDFDF91CF9108950F
S11312000E94951260919A0383E295E0C6DC3ED871
S11312109DDF3ED9FEDC0E9422160E94EE110E9440
S11312202E160E9419150E94531888EA93E086DC52
S113123080919A03813019F58DB79EB78B579140F1
S11312400FB6F8949EBF0FBE8DBFADB7BEB7119653
S11312508BE791E0E8EAF3E001900D920197E1F762
S11312600E944F1C8DB79EB785589E4F0FB6F894B9
S11312709EBF0FBE8DBF83E295E00E947D1C6091EE
S1131280260588EA93E00E949E1AC0E0D0E00F2E63
S1131290FCE2FF2EF02D9E01AFE2BAEB0E94641E29
S11312A096958795929582958F7089279F70892747
S11312B0F89E9001F99E300D11248E01021B130B30
S11312C0802FBCDC63E275E0802FF8DC2196C83BFC
S11312D091E0D90701F783E295E00FDD60919A036D
S11312E083E295E00E948E1C8DB79EB7875E9109BC
S11312F00FB6F8949EBF0FBE8DBFADB7BEB71196A3
S113130087EEE3E2F5E001900D928A95E1F78DB75F
S11313109EB78B5791400FB6F8949EBF0FBE8DBFFA
S1131320ADB7BEB711968BE791E0E8EAF3E0019020
S11313300D920197E1F78AE096E00AD184E0809368
S1131340B10081E08093700078948DB79EB78E5978
S11313509D4F0FB6F8949EBF0FBE8DBF63E275E03C
S113136088EA93E00E944D0183E295E09F938F9376
S11313708DB79EB78B5791400FB6F8949EBF0FBEA2
S11313808DBFADB7BEB711968BE791E0E8EAF3E005
S113139001900D920197E1F70E94B6018DB79EB7B7
S11313A083589E4F0FB6F8949EBF0FBE8DBF875EC5
S11313B091090FB6F8949EBF0FBE8DBFADB7BEB7EF
S11313C0119687EEE3E2F5E001900D928A95E1F73C
S11313D08DB79EB78B5791400FB6F8949EBF0FBE42
S11313E08DBFADB7BEB711968BE791E0E8EAF3E0A5
S11313F001900D920197E1F7C6DE8DB79EB78E5925
S11314009D4F0FB6F8949EBF0FBE8DBF63E275E08B
S113141088EA93E0C3D863E275E088EA93E07CDE6F
S11314208DB79EB7875E91090FB6F8949EBF0FBE25
S11314308DBFADB7BEB7119687EEE3E2F5E001903C
S11314400D928A95E1F78DB79EB78B5791400FB6F1
S1131450F8949EBF0FBE8DBFADB7BEB711968BE794
S113146091E0E8EAF3E001900D920197E1F70E9420
S113147039158DB79EB78E599D4F0FB6F8949EBF00
S11314800FBE8DBF43E255E068EA73E08AE096E060
S11314909FD18DB79EB7875E91090FB6F8949EBF12
S11314A00FBE8DBFADB7BEB7119687EEE3E2F5E090
S11314B001900D928A95E1F78DB79EB78B579140B5
S11314C00FB6F8949EBF0FBE8DBFADB7BEB71196D1
S11314D08BE791E0E8EAF3E001900D920197E1F7E0
S11314E08DD78DB79EB78E599D4F0FB6F8949EBF7A
S11314F00FBE8DBF63E275E088EA93E00E94FE1799
S11315002DCF1F920F920FB60F9211240BB60F928C
S11315108F939F93AF93BF93EF93FF93E4ECF5E026
S113152080819181A281B3810196A11DB11D808327
S11315309183A283B383FF91EF91BF91AF919F9168
S11315408F910F900BBE0F900FBE0F901F901895A8
S1131550CF92DF92EF92FF920F931F93CF93DF937B
S1131560CDB7DEB78C01C657DE4FE880CA58D140EC
S113157040E652E060E070E0A2DA41E752E061E068
S113158070E0C8019CDA4AE752E062E070E0C8010A
S113159096DA4FE752E063E070E0C80190DA680140
S11315A08DEBC80ED11C44E852E060E070E0C60147
S11315B086DA41E752E061E070E0C60180DA42E990
S11315C052E062E070E0C6017ADA49E952E063E091
S11315D070E0C60174DA680186E8C81A8EEFD80A8A
S11315E046EA52E060E070E0C60169DA45EB52E099
S11315F061E070E0C60163DA4CEB52E062E070E057
S1131600C6015DDA46EC52E063E070E0C60157DAE9
S113161040ED52E064E070E0C60151DA4EED52E074
S113162065E070E0C6014BDA680189ECC81A8DEFF9
S1131630D80A42EF52E061E070E0C60140DA40E0CF
S113164053E062E070E0C6013ADA40E953E063E057
S113165070E0C60134DA4EE053E060E070E0C601A9
S11316602EDA68018CE0C81A8DEFD80A4EE153E0F7
S113167060E070E0C60123DA42E353E061E070E029
S1131680C6011DDA4EE353E062E070E0C60117DAEA
S113169043E553E063E070E0C60111DA48E653E045
S11316A064E070E0C6010BDACC52DF4F2881398147
S11316B0C45DD04043E065E0C8018A96ABD7CD56FF
S11316C0DE4F2881C359D14030E02F5F3F4F42E0C5
S11316D06EE0C801845B9D4F9DD7F12C8FEFE81A13
S11316E0F80A970143E069E0C801459693D797014A
S11316F043E069E0C8018E529F4F8CD7CA52DF4F36
S11317002881C65DD04030E042E067E0C8018951DD
S11317109F4F80D7C557DE4F2881CB58D14030E04A
S11317202F5F3F4F42E06DE0C80184509F4F72D756
S1131730E12CF12CB701C80155D78FEFE81AF80A4C
S11317400B5E1F4F84E0E816F104A1F7DF91CF91FF
S11317501F910F91FF90EF90DF90CF900895EF923B
S1131760FF920F931F93CF93DF93EC018B017A01C8
S1131770FB01E853FF4F2081318143E065E08A9605
S113178049D7F801E653FF4F208130E042E067E09B
S1131790CE0189519F4F3ED7F701238130E02F5F5F
S11317A03F4F43E069E0CE018E529F4F33D7F7019C
S11317B0238130E02F5F3F4F43E069E0CE0145963F
S11317C029D7DF91CF911F910F91FF90EF9008954A
S11317D08F929F92AF92BF92CF92DF92EF92FF923D
S11317E00F931F93CF93DF938C017B01EA018A85CA
S11317F080FFDAC21A868E8190E08B33910508F05F
S1131800D0C2FC018827E355FF4F8F4F0C945C1E18
S1131810C801A5DF60E070E0C801E4D661E070E0D3
S1131820C8014596DFD662E070E0C8018A96DAD630
S113183063E070E0C801CF96D5D6B3C260E070E033
S1131840C80183549F4FCED661E070E0C8018E5228
S11318509F4FC8D662E070E0C80189519F4FC2D63D
S113186063E070E0C80184509F4FBCD681E18E8351
S113187088E0F801EB51FF4F808380E27596808306
S11318807596808361E070E0C8018E529F4FAAD69E
S113189062E070E0C80189519F4FA4D663E070E014
S11318A0C80184509F4F9ED67CC2C80158DF61E0B6
S11318B070E0C8018E529F4F95D673C280E2F80142
S11318C0EB51FF4F808398E07596908375968083E3
S11318D061E070E0C8018E529F4F84D662E070E0F0
S11318E0C80189519F4F7ED663E070E0C8018450DF
S11318F09F4F78D656C2FB01E653FF4F208130E05C
S113190042E067E0680187EEC80ED11CC60182D6AA
S113191062E070E0C60166D644C280E2F801EB5191
S1131920FF4F80837596808388E07596808361E09D
S113193070E0C8018E529F4F55D662E070E0C80136
S113194089519F4F4FD663E070E0C80184509F4F88
S113195049D627C22C8130E02F5F3F4F42E06EE032
S113196068019CEFC90ED11CC60154D663E070E037
S1131970C60138D616C260E070E0C80186589E4F92
S113198031D661E070E0C80181579E4F2BD662E0EA
S113199070E0C8018C559E4F25D663E070E0C80105
S11319A087549E4F1FD681E28E8388E0F801EE555E
S11319B0FE4F808380E2759680837596808361E014
S11319C070E0C80181579E4F0DD662E070E0C801F7
S11319D08C559E4F07D663E070E0C80187549E4F34
S11319E001D6DFC18D81DB01A80FB11DFD01E856D1
S11319F0FF4F208130E0322F222770968081282BE0
S1131A0044E06AE06801B1E7CB1ABEEFDB0AC60125
S1131A1001D661E070E0C601E5D5C3C180E2F801FA
S1131A20EE55FE4F808398E075969083759680837B
S1131A3061E070E0C80181579E4FD4D562E070E048
S1131A40C8018C559E4FCED563E070E0C801875421
S1131A509E4FC8D5A6C18D81FB01E80FF11DE85743
S1131A60FF4F8081882319F0813079F01CC083E511
S1131A70F801E255FE4F80838FE6319680839CE621
S1131A8031969083319680830EC080E5F801E2554B
S1131A90FE4F80838FE6319680838CE63196808377
S1131AA089E73196808362E070E0C8018C559E4FCF
S1131AB099D577C180E2F801EE55FE4F8083759683
S1131AC0808388E07596808361E070E0C801815767
S1131AD09E4F88D562E070E0C8018C559E4F82D538
S1131AE063E070E0C80187549E4F7CD55AC18D8154
S1131AF0FB01E80FF11D208D30E02F5F3F4F42E0E6
S1131B006AE06801E7E4CE1AEEEFDE0AC60182D588
S1131B1063E070E0C60166D544C180E2F801E9548F
S1131B20FE4F80837596808388E07596808361E09C
S1131B3070E0C8018C559E4F55D562E070E0C80135
S1131B4087549E4F4FD563E070E0C80182539E4F87
S1131B5049D527C18D81FB01E80FF11DE551FF4FE8
S1131B6080818130A9F028F08230F9F0833051F17E
S1131B7037C081E4F801E452FE4F80838DE2319650
S1131B80808382E53196808380E23196808328C009
S1131B9082E5F801E452FE4F808380E2319680832F
S1131BA031968083319680831BC081E4F801E4522E
S1131BB0FE4F808380E23196808331968083319614
S1131BC080830EC08EE4F801E452FE4F80838FE6DA
S1131BD0319680838EE63196808385E631968083C4
S1131BE063E070E0C80182539E4FFCD4DAC080E207
S1131BF0F801E453FE4F80837596808388E07596E0
S1131C00808361E070E0C80187549E4FEBD462E0AA
S1131C1070E0C80182539E4FE5D463E070E0C801D0
S1131C208D519E4FDFD4BDC08D819B01280F311D86
S1131C30F901E553FF4F208130E0322F22277096BF
S1131C408081282B45E06DE068018DE1C81A8EEF94
S1131C50D80AC601DFD4D801A051BE4F8C91F80137
S1131C60E151FE4F8083329680818C938EE2808393
S1131C7063E070E0C601B6D494C060E070E0C801CF
S1131C80895C9D4FAFD461E070E0C801845B9D4FD7
S1131C90A9D462E070E0C8018F599D4FA3D463E0DA
S1131CA070E0C8018A589D4F9DD481E38E8388E0FB
S1131CB0F801E15AFD4F808380E275968083759622
S1131CC0808361E070E0C801845B9D4F8BD462E047
S1131CD070E0C8018F599D4F85D463E070E0C8015E
S1131CE08A589D4F7FD45DC02C8530E02F5F3F4FD5
S1131CF042E06EE0680194EBC91A9DEFD90AC6016F
S1131D0089D461E070E0C6016DD44BC080E2F80173
S1131D10E15AFD4F808398E0759690837596808391
S1131D2061E070E0C801845B9D4F5CD462E070E0C8
S1131D30C8018F599D4F56D463E070E0C8018A589A
S1131D409D4F50D42EC08D81FA01E80FF11D4585B9
S1131D506EE06801AFE9CA1AADEFDA0AC60120D60F
S1131D6062E070E0C6013ED41CC080E2F801E15A92
S1131D70FD4F80837596808388E07596808361E04B
S1131D8070E0C801845B9D4F2DD462E070E0C8010F
S1131D908F599D4F27D463E070E0C8018A589D4F46
S1131DA021D48E818093BB098A8581FF17C11A864D
S1131DB08E8182958F70823021F0833009F4F5C0D2
S1131DC00DC12D8130E0A701420F531FFA01E856DF
S1131DD0FF4F808190E0982F8827709640816C0196
S1131DE0C42A2F5F3F4F42E067E05801B1E7AB1AC6
S1131DF0BEEFBB0AC5010ED4960144E06AE0C501FA
S1131E0009D48D81F701E80FF11DE857FF4F808158
S1131E10882319F0813079F01CC083E5F801E2557C
S1131E20FE4F80838FE6319680839CE631969083C3
S1131E30319680830EC080E5F801E255FE4F808321
S1131E408FE6319680838CE63196808389E73196DC
S1131E5080838D81F701E80FF11D208D30E02F5F25
S1131E603F4F42E06AE0C80187549E4FD3D38D812F
S1131E70F701E80FF11DE551FF4F80818130A9F092
S1131E8028F08230F9F0833051F137C081E4F80151
S1131E90E452FE4F80838DE23196808382E5319651
S1131EA0808380E23196808328C082E5F801E45281
S1131EB0FE4F808380E23196808331968083319611
S1131EC080831BC081E4F801E452FE4F808380E2EA
S1131ED03196808331968083319680830EC08EE460
S1131EE0F801E452FE4F80838FE6319680838EE6BC
S1131EF03196808385E6319680838D81F701E80FE2
S1131F00F11DE553FF4F208130E0322F22277096D8
S1131F108081282B45E06DE0C8018D519E4F7AD316
S1131F20D801A051BE4F8C91F801E151FE4F80833E
S1131F30329680818C938EE280838E81843218F075
S1131F40877F825201C081E0C82ED12C0F2EF5E18B
S1131F50BF2EF02DBC9CC001BD9C900D1124865851
S1131F609E4F61E070E0800F911F3CD396012F5F7C
S1131F703F4FB29EC001B39E900D112486589E4FD0
S1131F8062E070E0800F911F2DD3F2E0CF0ED11CE0
S1131F90BC9CC001BD9C900D112486589E4F63E0EB
S1131FA070E0800F911F1ED319C02D8130E02F5F88
S1131FB03F4F42E06AE068018FE9C81A8DEFD80A02
S1131FC0C60128D38D81FE01E80FF11D45856EE021
S1131FD0C601E6D462E070E0C60104D38A8582FFBC
S1131FE065C18B85982F9F70892E998590FF02C0BB
S1131FF028E001C020E082958F70823009F48EC001
S113200030F4882369F0813009F452C04EC1843021
S113201009F4F0C008F4B8C0853009F434C145C1EE
S1132020E82DF0E0D701AE0FBF1F8C9181110AC0DB
S1132030FD01208530E043E06EE0C8018C509D4FE7
S1132040E9D229C08DE2D801AE5FBC4F8C93680100
S1132050A3E0CA0EDA1EEE0DFF1D8085809590E088
S1132060019664E670E00E942D1E2AE030E0B9017A
S11320700E942D1E605DD6016C937801BCEFEB1AB3
S1132080FB0A8085809590E00196B9010E942D1E7F
S1132090805DF7018083F801E250FD4F81E3880DF4
S11320A0808363E070E0C8018C509D4F9BD2FDC0DB
S11320B0F801E25FFC4F81E3880D8083912CF701E6
S11320C0E80DF91D8089882394F48DE2F801E05F1E
S11320D0FC4F8083F701E80DF91D2089209530E03D
S11320E043E068E0C801875F9C4F94D210C08BE244
S11320F0F801E05FFC4F8083F701E80DF91D2089AA
S113210030E043E068E0C801875F9C4F83D263E01E
S113211070E0C801875F9C4F65D2C7C0912CC22E66
S1132120D12CC4018C0D9D1D5801F2EEAF1AFCEFA9
S1132130BF0AE80EF91EF701E85BFF4F208130E08B
S1132140322F222770968081282B45E06EE0C5014E
S113215061D2F801E55DFC4FD801A45DBC4F8C91C0
S11321608083329680818C938EE2808394012F5FEA
S11321703F4F2C0D3D1D42E06AE0C5014BD263E0A8
S113218070E0C5012FD291C0912CC22ED12CC40174
S11321908C0D9D1D58012DECA21A2CEFB20AE80EED
S11321A0F91EF701E859FF4F208130E0322F222732
S11321B070968081282B45E06FE0C5012BD2F80191
S11321C0EF5BFC4FD801AE5BBC4F8C9180833296A1
S11321D080818C938EE2808394012F5F3F4F2C0D7E
S11321E03D1D42E06BE0C50115D263E070E0C5011E
S11321F0F9D15BC0C22ED12CC80CD11CF701EC0D57
S1132200FD1D80A581110CC0F701EC0DFD1D20AD55
S113221030E042E06FE0C801885B9C4FFBD125C0F1
S11322208DE2F801E95AFC4F80833196EC0CFD1CD9
S1132230D701D8968C91809590E0019664E670E081
S11322400E942D1E2AE030E0B9010E942D1E605D1F
S113225060833196D701D8968C91809590E0019651
S1132260B9010E942D1E805D8083085B1C4F96017E
S11322702F5F3F4F42E06CE0C801CCD163E070E0D7
S1132280C801B0D112C0065D1F4FF701E853FF4FDC
S11322902081318143E065E0C801BCD18E81811188
S11322A004C062E070E0C8019DD11A86DF91CF912D
S11322B01F910F91FF90EF90DF90CF90BF90AF9060
S11322C09F908F9008951F920F920FB60F92112432
S11322D00BB60F922F933F935F936F937F938F93DC
S11322E09F93AF93BF93EF93FF9320913601822F77
S11322F082958F708850823078F480919C0390E0AE
S1132300FC01EE0FFF1F8E0F9F1FFC01E454F64FDC
S113231020831092070250C080910702811115C0DA
S113232080919C0390E030910702FC01EE0FFF1FA7
S1132330E80FF91FE454F64FE30FF11D2183809158
S113234007028F5F8093070237C0809107028F3F97
S113235099F180919C0390E030910702FC01EE0F0B
S1132360FF1FE80FF91FE454F64FE30FF11D21831B
S113237080919C0390E0FC01EE0FFF1F8E0F9F1FC6
S1132380FC01E454F64F208180919C0390E0019677
S11323906AE070E00E942D1E80939C0380919C0350
S11323A090E0FC01EE0FFF1F8E0F9F1FFC01E45411
S11323B0F64F208310920702FF91EF91BF91AF91E6
S11323C09F918F917F916F915F913F912F910F908A
S11323D00BBE0F900FBE0F901F90189510923501F1
S11323E08FE180933401E1E3F1E0808188698083A7
S11323F0E2E3F1E08081866080830895AF92BF922A
S1132400CF92DF92EF92FF920F931F93CF93DF93BC
S1132410CDB7DEB7E0919B0380919C03E81709F4E4
S11324205CC07E0186EAE80EF11C0AE010E0F0E0F0
S1132430CF01880F991FE80FF91FE454F64F8081EC
S11324402281908182958F708930C9F52223B9F158
S11324509F70CB56DE4F8881C559D14098132FC049
S11324600F2EF9E8AF2EBB24B394F02DAC0EBD1E95
S1132470EDE0AE0EB11C6E01F6E9CF0ED11C8091D9
S11324809B0390E0FC01EE0FFF1F8E0F9F1FFC01CA
S1132490E454F64F9181F50181915F01981309C0CD
S11324A0F6012081E057F1094081F601608980A19D
S11324B0E4D3FFEFCF1ADF0ACE14DF0401F78091D3
S11324C09B0390E00196B8010E942D1EE82F809393
S11324D09B0380919C038E13AACFDF91CF911F9110
S11324E00F91FF90EF90DF90CF90BF90AF90089541
S11324F0E2E0F1E080818062808385E08A95F1F7F3
S1132500000080818F7D80830895E2E0F1E0908176
S11325109F7B908388B9ECCF0895E2E0F1E090814D
S11325209064908388B9E4CF089580E68093010194
S11325308FEF87B9E2E0F1E080818F79808318B86A
S11325408FE193E00197F1F700C000008AE2DDDF3C
S113255081E7DBDF8CE5E1DF88E2D7DF88E0D5DFE8
S11325608AE2D3DF89E7D1DF85EDCFDF80E7CDDFF6
S113257088E7CBDF89E0C9DF86E0C7DF82E7C5DF14
S11325808AE0CBDF89E7C1DF8AEDBFDF80E1BDDF11
S11325908CEDBBDF80E0B9DF81E8B7DF8FE7B5DF23
S11325A089EDB3DF81EFB1DF8BEDAFDF80E4ADDF29
S11325B088E7ABDF88E2A9DF81E0A7DF8FE39FE153
S11325C00197F1F700C0000080E89FDF8CE09DDFF9
S11325D09FEF24E38CE0915020408040E1F700C05D
S11325E0000008950F931F93CF93DF938C01FB0199
S11325F0FF27E85FFD4F808188DFE8010C5E1F4FF5
S113260089918BDFC017D107D9F7DF91CF911F9143
S11326100F910895CF93DF93F901433009F454C027
S113262028F4413051F0423029F1B7C1443009F463
S113263095C0453009F40AC1B0C1EC01C60FD11DE3
S1132640ADECBCEC0E94641E969587959695879593
S1132650969587959C01220F331F880F991F880F29
S1132660991F880F991F820F931FE81BF90BE05DD8
S1132670E88393C1EC01C60FD11DADECBCEC0E9404
S1132680641E9695879596958795969587959C0152
S1132690220F331F880F991F880F991F880F991FC6
S11326A0820F931F9F01281B390BC901805D898309
S11326B09F010E94641E9695879596958795969599
S11326C08795805D888369C1EC01C60FD11DADEC8F
S11326D0BCEC0E94641E9695879596958795969571
S11326E087959C01220F331F880F991F880F991F0C
S11326F0880F991F820F931F9F01281B390BC90153
S1132700805D8A83AF0156954795569547959A0102
S1132710ABE7B4E10E94641E9695879564E6689FD2
S11327209001699F300D1124CF01821B930B9C01F2
S1132730ADECBCEC0E94641E9695879596958795A2
S113274096958795805D89839A01ABE7B4E10E94F1
S1132750641E96958795805D88831FC1EC01C60F22
S1132760D11DADECBCEC0E94641E969587959695A0
S11327708795969587959C01220F331F880F991F83
S1132780880F991F880F991F820F931F9F01281B81
S1132790390BC901805D8B839F013695279536954A
S11327A02795ABE7B4E10E94641E9695879544E6AD
S11327B0489F9001499F300D1124CF01821B930B38
S11327C09C01ADECBCEC0E94641E96958795969591
S11327D0879596958795805D8A83AF015695479531
S11327E056954795569547959A01A5ECB0E20E94F7
S11327F0641E929582958F7089279F70892768EE51
S113280073E0869F9001879F300D969F300D1124B1
S1132810CF01821B930B9C013695279536952795FE
S1132820ABE7B4E10E94641E96958795805D898329
S11328309A01A5ECB0E20E94641E929582958F7075
S113284089279F708927805D8883A7C0EC01C60F04
S1132850D11DADECBCEC0E94641E969587959695AF
S11328608795969587959C01220F331F880F991F92
S1132870880F991F880F991F820F931F9F01281B90
S1132880390BC901805D8C839F0136952795369558
S11328902795ABE7B4E10E94641E9695879544E6BC
S11328A0489F9001499F300D1124CF01821B930B47
S11328B09C01ADECBCEC0E94641E969587959695A0
S11328C0879596958795805D8B839F01369527958F
S11328D03695279536952795A5ECB0E20E94641E9F
S11328E0929582958F7089279F70892748EE53E0CF
S11328F0849F9001859F300D949F300D1124CF014A
S1132900821B930B9C013695279536952795ABE74B
S1132910B4E10E94641E96958795805D8A83AF0119
S1132920529542954F7045275F7045279A01A7E459
S1132930B3E00E94641E9695879596958795969523
S1132940879560E177E2869F9001879F300D969F7F
S1132950300D1124CF01821B930B9C0136952795D2
S11329603695279536952795A5ECB0E20E94641E0E
S1132970929582958F7089279F708927805D8983BE
S11329809A01A7E4B3E00E94641E969587959695F4
S1132990879596958795805D8883DF91CF9108957B
S11329A09C01A62FEBEA4E9FE12D1124E695E695B6
S11329B0E6959FE29E0F8E2F880FE80FEE0FEE0F25
S11329C04E1B50E04C30510558F5FA018827E85168
S11329D0FF4F8F4F0C945C1E80E243E423C083E2DC
S11329E043E420C080E244E41DC083E244E41AC00E
S11329F080E245E417C080E246E414C083E246E482
S1132A0011C080E247E40EC083E247E40BC080E2D9
S1132A1041E408C083E241E405C080E242E402C02C
S1132A2080E040E0F901EA0FF11D40838183928345
S1132A30089582E084BD93E095BD99E197BD8093AC
S1132A406E0008951F920F920FB60F9211248F9368
S1132A509F9380919E0390919F03019690939F036F
S1132A6080939E039F918F910F900FBE0F901F90A4
S1132A701895CF92DF92EF92FF920F931F93CF930B
S1132A80DF93CDB7DEB7CC52DF4F28813981C45DE7
S1132A90D04040E050E060EF79E482E090E00E94B2
S1132AA0401E80919E0390919F038217930708F420
S1132AB04EC0C257DE4F8881CE58D140882309F4D6
S1132AC040C010929F0310929E03E0919D03F0E09A
S1132AD0EE0FFF1F8CE090E08C0F9D1FE80FF91F95
S1132AE0E550FF4FE080F1808E010C561F4F6E01C0
S1132AF094EAC90ED11CE0FE09C0F8012081E05718
S1132B00F1094081F801608980A1B7D0F694E79477
S1132B100F5F1F4F0C151D0571F780919D038F5F8B
S1132B2080939D0390E0CA52DF4F2881C65DD04058
S1132B3030E021503109281739074CF410929D03D5
S1132B4006C010929D0310929F0310929E03DF9182
S1132B50CF911F910F91FF90EF90DF90CF90089548
S1132B601F920F920FB60F9211240BB60F922F9350
S1132B703F938F939F93EF93FF938091A203909140
S1132B80A3032091A0033091A10382179307C1F0FE
S1132B90FC01E652F64F80818093C6008091A20327
S1132BA09091A3030196803821E092072CF490932E
S1132BB0A3038093A20304C01092A3031092A20360
S1132BC0FF91EF919F918F913F912F910F900BBEA9
S1132BD00F900FBE0F901F9018952091A003309175
S1132BE0A103F901E652F64F80832F5F3F4F20384F
S1132BF081E038072CF43093A1032093A0030895B7
S1132C001092A1031092A00308950F931F93CF93E2
S1132C10DF93662369F0EC016150062F10E00F5F2B
S1132C201F4F080F191F8991D8DFC017D107D9F793
S1132C308091C00085FD1092C600DF91CF911F9155
S1132C400F9108951092C50080E18093C40088E438
S1132C508093C10086E08093C200089588E0809349
S1132C60900083E080939100109299008AEF809302
S1132C70980082E0809371000895CF93DF93CDB7DD
S1132C80DEB72A970FB6F894DEBF0FBECDBF90EF24
S1132C9099839AEA9A839AE09B8393E09C832D8399
S1132CA08E836F834887198685E58A876AE0CE011B
S1132CB00196ABDF2A960FB6F894DEBF0FBECDBFE8
S1132CC0DF91CF910895CF93DF93CDB7DEB72897E7
S1132CD00FB6F894DEBF0FBECDBF90EF99839AEA8A
S1132CE09A8398E09B8395E09C834D838E836F83C6
S1132CF085E5888768E0CE01019687DF28960FB6C0
S1132D00F894DEBF0FBECDBFDF91CF910895CF936E
S1132D10DF93CDB7DEB729970FB6F894DEBF0FBEA9
S1132D20CDBF90EF99839AEA9A8399E09B8398E0C8
S1132D309C838D836E834F83288785E5898769E02B
S1132D40CE01019662DF29960FB6F894DEBF0FBE5E
S1132D50CDBFDF91CF910895CF92EF920F93CF9390
S1132D60DF93CDB7DEB72C970FB6F894DEBF0FBE56
S1132D70CDBF90EF99839AEA9A839CE09B839AE073
S1132D809C838D836E834F8328870987EA86CB864D
S1132D9085E58C876CE0CE01019637DF2C960FB663
S1132DA0F894DEBF0FBECDBFDF91CF910F91EF90AE
S1132DB0CF900895CF93DF93CDB7DEB728970FB6A2
S1132DC0F894DEBF0FBECDBF90EF99839AEA9A8341
S1132DD098E09B839CE09C838D836E834F8385E581
S1132DE0888768E0CE01019610DF28960FB6F89424
S1132DF0DEBF0FBECDBFDF91CF9108952F923F92DA
S1132E004F925F926F927F928F929F92AF92BF92F6
S1132E10CF92EF920F931F93CF93DF933B01142F25
S1132E20842E912C9C01280D391DF901E553FF4F87
S1132E30A080B12CBA2CAA2470964081A42A709642
S1132E402081213009F454C038F0223009F48BC0B9
S1132E50233009F4AEC0C1C0EC01C80DD91DFE0178
S1132E60E857FF4F2E0128E9420E511C1E0188EA43
S1132E70280E311C2081488DF2016081F10180818E
S1132E80FCDEDE01A85BBF4FFE01E85AFF4FC12CF8
S1132E90EC90008128A548ADF2016081F1018081A8
S1132EA05BDFF301EB55FF4F81E090E002C0880F38
S1132EB0991F1A95E2F720813181822B932B9183FC
S1132EC08083E401CC0FDD1FCC0FDD1FC60DD71DA1
S1132ED0C955DF4F349780819181A281B3818A0DD6
S1132EE09B1DA11DB11D88839983AA83BB8375C0D3
S1132EF0EC01C80DD91DCE0188579F4FDE01A8569D
S1132F00BF4F2E01F8EA4F0E511CFC012081488D61
S1132F106C91F2018081B1DEF301EB55FF4F81E04A
S1132F2090E002C0880F991F1A95E2F72081318141
S1132F30822B932B91838083E401CC0FDD1FCC0F74
S1132F40DD1FC60DD71DC955DF4F34978081918190
S1132F50A281B3818A0D9B1DA11DB11D8883998314
S1132F60AA83BB833AC0EC01C80DD91DFE01E85702
S1132F70FF4F4E0128E9820E911C5E0188EAA80EDB
S1132F80B11C2081488DF4016081F501808175DEDA
S1132F90DE01A85BBF4FFE01E85AFF4FC12CEC9045
S1132FA0008128A548ADF4016081F5018081D4DE5B
S1132FB014C0EC01C80DD91DCE0188579F4FDE0106
S1132FC0A856BF4F5E01F8EAAF0EB11CFC01208188
S1132FD0488D6C91F501808150DEDF91CF911F9176
S1132FE00F91EF90CF90BF90AF909F908F907F9074
S1132FF06F905F904F903F902F9008954F925F9203
S11330006F927F928F929F92AF92BF92CF92EF92E4
S11330100F93CF93DF93FB01EB55FF4F808091809B
S1133020EB01C955DF4F88589F4F5C013B0187EE88
S1133030680E711CE1E08E2299242B01F1EA4F0EF7
S1133040511C81149104D1F0488159816A817B819A
S1133050F20180819181A281B381481759076A07DF
S11330607B0760F0CC24C394F5017097E080F501F0
S113307000812AEB4FEF60A180A96EDE2496FFEF5A
S1133080AF1ABF0AC615D705E1F6DF91CF910F91AC
S1133090EF90CF90BF90AF909F908F907F906F9064
S11330A05F904F9008951092B90088E48093B8001F
S11330B0089594EA9093BC00ECEBF0E0908199239E
S11330C0ECF79091B900987F983011F09031A1F409
S11330D08093BB0084E88093BC00ECEBF0E080813B
S11330E08823ECF79091B900987F983139F081E00A
S11330F0903429F480E0089581E0089580E00895F3
S113310084E98093BC00ECEBF0E0808184FDFDCF8A
S113311008958093BB0084E88093BC00ECEBF0E05E
S113312080818823ECF79091B900987F81E09832F0
S113313009F480E0089584EC8093BC00ECEBF0E0AB
S113314080818823ECF78091BB00089584E8809304
S1133150BC00ECEBF0E080818823ECF78091BB00AD
S113316008954F925F926F927F928F929F92AF9247
S1133170BF92CF92DF92EF92FF920F931F93CF9360
S1133180DF93CDB7DEB7C459D1090FB6F894DEBFCB
S11331900FBECDBFCD5DDD4F4881C352D240C05973
S11331A0DE4F8881C057D140CF58DE4F9881C15738
S11331B0D140242F30E044238CF0215031093901CF
S11331C0660C771C620E731E7694762C66247794B4
S11331D067940F2EF0EA5F2EF02D11C020583109AC
S11331E03901660C771C260D371D39017694762C2F
S11331F06624779467940F2EF8EA5F2EF02DBE01B3
S113320068557F4F8E010F5F1F4FFE01E055FF4F42
S11332109801DB014D91BD01D9014D939D016E17BC
S11332207F07B9F7DE0119969E0128543F4F41915B
S11332304D93E217F307D9F74E01B1E18B0E911CC0
S11332407E01E0ECEE0EF11CD401F90141919F01E5
S11332504D93EE15FF05C9F79E01275E3F4FBE0152
S113326060537F4FD7014D917D01F90141939F0137
S1133270A617B707B9F79E01275D3F4FDE01A0529D
S1133280BF4FFB014191BF01F90141939F016A17AF
S11332907B07B9F79E01275C3F4FBE0160517F4F0A
S11332A04D91F90141939F01A617B707C9F79E01F4
S11332B0275B3F4FDE01B395FB014191BF01F9014B
S11332C041939F016A177B07B9F79E01275A3F4F25
S11332D0BE01605F7E4F4D91F90141939F01A61796
S11332E0B707C9F7DE01A759BF4F5E01F0EEAF1A69
S11332F0FEEFBF0AFB012191BF012D93EA15FB05E7
S1133300C9F7EB969FAFEB97EC968FAFEC97CE583F
S1133310DE4F8881C257D140ED968FAFED97852D52
S1133320C8DE813081F484E1ECE0F2E0DE01AF57E5
S1133330BF4F01900D928A95E1F763E070E0CE01F2
S11333408F579F4F4FD9872DE4DE462C862DE1DE23
S11333506E01FDE7CF0ED11C7801D7018D917D015F
S1133360D8DECE14DF04C9F7CBDEEFE1FEE43197FB
S1133370F1F700C000009E01205D3E4FF801D50129
S11333808D915D0181932A173B07C9F7DE01919660
S1133390F90181919F01F40181934F01AE17BF0799
S11333A0B9F7CE01805C9E4FAE014F5C5F4FFC01CC
S11333B02191CF012D93A417B507C9F7CE01805BE6
S11333C09E4FDE01AF5BBF4FFC012191CF01FA019B
S11333D02193AF01EA17FB07B9F7FE01E05AFE4F4C
S11333E09E0120593E4F81918D932E173F07D9F7A7
S11333F0AE014D585E4FCE018F5A9F4FDE01AD573F
S1133400BE4FFA012191AF01FC012193CF01A41712
S1133410B507B9F7CE018F599F4FAE014D565E4F98
S11334202D91FC012193CF01A417B507C9F7DE0143
S1133430AF58BF4F7E01FDE5EF1AFEEFFF0AFA0118
S11334408191AF018D93EE16FF06C9F7852D31DE0C
S1133450813081F484E1E1E2F2E0DE01AF57BF4F55
S113346001900D928A95E1F763E070E0CE018F57E9
S11334709F4FB8D8C30180589F4F892F4ADE80E8F8
S1133480840D47DE6E01F1E8CF0ED11CD8018D9179
S11334908D013FDEC016D106C9F732DEEFE1FEE44E
S11334A03197F1F700C00000852D03DE813081F4EF
S11334B084E1E6E3F2E0DE01AF57BF4F01900D92E5
S11334C08A95E1F763E070E0CE018F579F4F8AD869
S11334D07394872D1EDE842D1CDE6E012DEDC21A21
S11334E02DEFD20AD7011C9111968C91B2E0EB0E0C
S11334F0F11C0FDE812F0DDECE14DF0499F700DE00
S1133500EFE1FEE43197F1F700C00000CC56DF4F45
S11335100FB6F894DEBF0FBECDBFDF91CF911F91E0
S11335200F91FF90EF90DF90CF90BF90AF909F905E
S11335308F907F906F905F904F9008958F929F929D
S1133540AF92BF92CF92DF92EF92FF920F931F93AD
S1133550CF93DF93CDB7DEB7C459D1400FB6F894FB
S1133560DEBF0FBECDBF7C01862F90E0662384F0C2
S113357001979C01220F331F820F931F9695982F5A
S1133580882797958795082FD92E80EA11EA10C0CD
S1133590805891099C01220F331F820F931F969527
S11335A0982F882797958795082FD92E88EA19EAA6
S11335B080DD813029F463E070E08DE793E012D878
S11335C08D2DA7DD802FA5DD812F73DD813009F0DE
S11335D048C184E1EBE4F2E0DE01AF57BE4F019055
S11335E00D928A95E1F763E070E0CE018F579E4F0C
S11335F00E94F21236C19FDDD8018D938D01AC1566
S1133600BD05C9F7A3DDC058DE4F8883C058D1403B
S113361077DD87014E01B9E08B0E911CF701D501CE
S11336208D915D018193A815B905C9F7D12CF401D9
S113363081914F01F80180874D2D60810F5F1F4FED
S113364042DBD394F8E0DF12F2CF5E0181E1A80EF1
S1133650B11C670190E1C90ED11C10E0D5014D9158
S11336605D01F60141936F0160E0812FA3DB1F5FD1
S11336701830A1F7FE017996C7014896AE01475D5F
S11336805F4F2191DC012D93CD01E417F507C9F7B4
S11336905701B8E2AB0EB11CDE01D996C501FA019F
S11336A02191AF01FC012193CF014A175B07B9F7C0
S11336B0C701C896AE01475B5F4F2D91FC01219372
S11336C0CF01A417B507C9F7C701885B9F4FDE0177
S11336D0A75ABF4FFA012191AF01FC012193CF01F9
S11336E04A175B07B9F7C701885A9F4FAE0147597C
S11336F05F4F2D91FC012193CF01A417B507C9F7A2
S1133700D701A859BF4F9E0127583F4FFA01819115
S1133710AF018D93E217F307C9F7F701E853FF4FA1
S1133720EB968FADEB9790E0982F8827EC962FAD12
S1133730EC97822B91838083ED968FADED97329633
S11337408083AE014F575F4FC70188589F4FFE01DA
S1133750EF56FF4FDA012D91AD01DC012D93CD0120
S1133760E417F507B9F7C70188579F4FAE014F55C6
S11337705F4F2191DC012D93CD014E175F07C9F7EF
S1133780870108561F4F4E01B1EB8B0E911CF801B7
S1133790DA018D91AD0181938A169B06C9F76E01FA
S11337A0B1ECCB0ED11CF40181914F01F801808B57
S11337B0D5012D915D011F964C9160810F5F1F4FC4
S11337C0A6DAC814D90479F7970128543F4FDE01CB
S11337D0AF52BF4FF60181916F01F90181939F01AF
S11337E0CA16DB06B9F7C70185539F4FAE014F5187
S11337F05F4F2D91FC012193CF014A175B07C9F755
S1133800C70185529F4FBE016F507F4FDA012D9142
S1133810AD01FC012193CF01A617B707B9F7C70182
S113382085519F4FFE01EF5FFE4FDB012D91BD01DE
S1133830DC012D93CD01E617F707B9F7D701A550A1
S1133840BF4FAE014F575E4F808190E0982F88277D
S11338502181822B8D939D9332964E175F07A1F79A
S11338600AC0FE0131965F016E01F0E8CF1AFEEF47
S1133870DF0A8501C0CECC56DE4F0FB6F894DEBF0A
S11338800FBECDBFDF91CF911F910F91FF90EF90AD
S1133890DF90CF90BF90AF909F908F9008951F932B
S11338A0CF93DF93CDB7DEB710E01F938DB79EB7EC
S11338B08B5791400FB6F8949EBF0FBE8DBFADB726
S11338C0BEB711968BE791E0FE01379601900D92F9
S11338D00197E1F746DC8FE19EE40197F1F700C020
S11338E000001F5F0FB6F894DEBF0FBECDBF1F3FB1
S11338F0E1F6DF91CF911F910895CF93DF93EC010F
S11339006C8580E090E046D240E150E061E070E0F8
S1133910CE010D9636D2DF91CF910895CF93DF93E8
S113392061110CC0EC0180E090E023D28C8740E16F
S113393050E061E070E0CE010D960BD2DF91CF91A3
S113394008955058BB27AA270ED04DC13ED130F060
S113395043D120F031F49F3F11F41EF433C10EF42F
S1133960E095E7FB29C1E92F4FD180F3BA1762072D
S113397073078407950718F071F49EF567C10EF478
S1133980E0950B2EBA2FA02D0B01B90190010C016B
S1133990CA01A0011124FF27591B99F0593F50F483
S11339A0503E68F11A16F040A22F232F342F4427DB
S11339B0585FF3CF469537952795A795F0405395D3
S11339C0C9F77EF41F16BA0B620B730B840BBAF0A3
S11339D09150A1F0FF0FBB1F661F771F881FC2F70E
S11339E00EC0BA0F621F731F841F48F48795779522
S11339F06795B795F7959E3F08F0B3CF9395880FD9
S1133A0008F09927EE0F9795879508950CD0EBC091
S1133A10E3D040F0DAD030F021F45F3F19F0CCC0AD
S1133A20511115C1CFC0F0D098F39923C9F3552390
S1133A30B1F3951B550BBB27AA276217730784079D
S1133A4038F09F5F5F4F220F331F441FAA1FA9F353
S1133A5033D00E2E3AF0E0E830D091505040E69545
S1133A60001CCAF729D0FE2F27D0660F771F881FA6
S1133A70BB1F261737074807AB07B0E809F0BB0B95
S1133A80802DBF01FF2793585F4F2AF09E3F5105B9
S1133A9068F092C0DCC05F3FECF3983EDCF386959F
S1133AA077956795B795F7959F5FC9F7880F911D2F
S1133AB09695879597F90895E1E0660F771F881F1B
S1133AC0BB1F621773078407BA0720F0621B730BCE
S1133AD0840BBA0BEE1F88F7E095089504D0689420
S1133AE0B111B5C0089598D088F09F5790F0B92FC0
S1133AF09927B751A0F0D1F0660F771F881F991F3F
S1133B001AF0BA95C9F712C0B13081F09FD0B1E074
S1133B1008959CC0672F782F8827B85F39F0B93F84
S1133B20CCF3869577956795B395D9F73EF4909540
S1133B308095709561957F4F8F4F9F4F0895E894BE
S1133B4009C097FB3EF490958095709561957F4FE1
S1133B508F4F9F4F9923A9F0F92F96E9BB2793958F
S1133B60F695879577956795B795F111F8CFFAF49F
S1133B70BB0F11F460FF1BC06F5F7F4F8F4F9F4FD0
S1133B8016C0882311F096E911C0772321F09EE82E
S1133B90872F762F05C0662371F096E8862F70E094
S1133BA060E02AF09A95660F771F881FDAF7880F6E
S1133BB09695879597F9089597F99F6780E870E03F
S1133BC060E008959FEF80EC089500240A9416168F
S1133BD0170618060906089500240A9412161306F7
S1133BE0140605060895092E0394000C11F4882385
S1133BF052F0BB0F40F4BF2B11F460FF04C06F5FA1
S1133C007F4F8F4F9F4F089557FD9058440F551F76
S1133C1059F05F3F71F04795880F97FB991F61F04A
S1133C209F3F79F087950895121613061406551FC1
S1133C30F2CF4695F1DF08C0161617061806991F2D
S1133C40F1CF86957105610508940895E894BB2722
S1133C5066277727CB0197F9089597FB072E16F46B
S1133C60009406D077FD08D03ED007FC05D03EF482
S1133C70909581959F4F0895709561957F4F089514
S1133C80052E97FB16F400940FD057FD05D03FD0B6
S1133C9007FC02D046F408C0509540953095219514
S1133CA03F4F4F4F5F4F0895909580957095619564
S1133CB07F4F8F4F9F4F0895EE0FFF1F881F8BBFBD
S1133CC00790F691E02D1994A29FB001B39FC00113
S1133CD0A39F700D811D1124911DB29F700D811D34
S1133CE01124911D0895AA1BBB1B51E107C0AA1FF3
S1133CF0BB1FA617B70710F0A61BB70B881F991F89
S1133D005A95A9F780959095BC01CD010895A1E23B
S1133D101A2EAA1BBB1BFD010DC0AA1FBB1FEE1F41
S1133D20FF1FA217B307E407F50720F0A21BB30B8C
S1133D30E40BF50B661F771F881F991F1A9469F708
S1133D4060957095809590959B01AC01BD01CF0164
S1133D500895DC01CB01FC01F999FECF06C0F2BD48
S1133D60E1BDF89A319600B40D9241505040B8F735
S1133D700895F999FECF92BD81BDF89A992780B52F
S1133D800895DC01CB0102C02D9105D04150504073
S1133D90D8F70895262FF999FECF1FBA92BD81BD99
S1133DA020BD0FB6F894FA9AF99A0FBE01960895B9
S1073DB0F894FFCFB1
S1133DB4FFFFD7A3484047FF80A0C0E0416464727A
S1133DC4657373205772697465204572726F72311A
S1133DD40041646472657373205772697465204585
S1133DE472726F7232004164647265737320577225
S1133DF4697465204572726F72330041646472653C
S1133E0473732052656164204572726F72322000AC
S1133E14506572666F726D616E6365204D6F646583
S1133E24005061747465726E3A0042504D3A005306
S1133E34746F700053657175656E636520456469BC
S1133E44740053746570733A0053746570206E750E
S1133E546D6265723A00547261636B2053657474C5
S1133E64696E677300547261636B3A00506C6179D4
S1133E744D6F64653A004F7574526F7574653A00FA
S1133E84456E76656C6F70654D6F64653A00537565
S1133E94737461696E54696D653A20202020202072
S1133EA453004D696469204368616E6E656C3A0021
S1133EB44D69646920747269672020203A00476C54
S1133EC46F62616C2053657474696E6773004F7517
S1133ED474566F6C756D652078203A207878786410
S1133EE462005069746368203A20787878004174D9
S1133EF47461636B54696D6520203A20202020206E
S1133F0420530052656C6561736554696D657878F6
S1133F143A78782078787800547261636B566F6CC1
S1133F24756D652078783A787878646200416464C1
S1133F34726573732052656164204572726F7231C5
S1053F44200057
S9030000FC
